{
  "contractName": "IndividualOwnershipStakeToken",
  "abi": [
    {
      "constant": true,
      "inputs": [],
      "name": "MAX_OWNERSHIP_STAKE_ERROR",
      "outputs": [
        {
          "name": "",
          "type": "string"
        }
      ],
      "payable": false,
      "stateMutability": "view",
      "type": "function"
    },
    {
      "constant": false,
      "inputs": [
        {
          "name": "_spender",
          "type": "address"
        },
        {
          "name": "_value",
          "type": "uint256"
        }
      ],
      "name": "approve",
      "outputs": [
        {
          "name": "",
          "type": "bool"
        }
      ],
      "payable": false,
      "stateMutability": "nonpayable",
      "type": "function"
    },
    {
      "constant": true,
      "inputs": [
        {
          "name": "part",
          "type": "uint256"
        },
        {
          "name": "whole",
          "type": "uint256"
        }
      ],
      "name": "calcPercentTimesOneThousand",
      "outputs": [
        {
          "name": "",
          "type": "uint256"
        }
      ],
      "payable": false,
      "stateMutability": "pure",
      "type": "function"
    },
    {
      "constant": true,
      "inputs": [],
      "name": "SUCCESS_CODE",
      "outputs": [
        {
          "name": "",
          "type": "uint8"
        }
      ],
      "payable": false,
      "stateMutability": "view",
      "type": "function"
    },
    {
      "constant": true,
      "inputs": [],
      "name": "totalSupply",
      "outputs": [
        {
          "name": "",
          "type": "uint256"
        }
      ],
      "payable": false,
      "stateMutability": "view",
      "type": "function"
    },
    {
      "constant": true,
      "inputs": [
        {
          "name": "",
          "type": "address"
        }
      ],
      "name": "individualMaxPercentOwnershipByAddress",
      "outputs": [
        {
          "name": "",
          "type": "uint256"
        }
      ],
      "payable": false,
      "stateMutability": "view",
      "type": "function"
    },
    {
      "constant": false,
      "inputs": [
        {
          "name": "from",
          "type": "address"
        },
        {
          "name": "to",
          "type": "address"
        },
        {
          "name": "value",
          "type": "uint256"
        }
      ],
      "name": "transferFrom",
      "outputs": [
        {
          "name": "success",
          "type": "bool"
        }
      ],
      "payable": false,
      "stateMutability": "nonpayable",
      "type": "function"
    },
    {
      "constant": false,
      "inputs": [
        {
          "name": "_spender",
          "type": "address"
        },
        {
          "name": "_subtractedValue",
          "type": "uint256"
        }
      ],
      "name": "decreaseApproval",
      "outputs": [
        {
          "name": "",
          "type": "bool"
        }
      ],
      "payable": false,
      "stateMutability": "nonpayable",
      "type": "function"
    },
    {
      "constant": true,
      "inputs": [
        {
          "name": "_owner",
          "type": "address"
        }
      ],
      "name": "balanceOf",
      "outputs": [
        {
          "name": "",
          "type": "uint256"
        }
      ],
      "payable": false,
      "stateMutability": "view",
      "type": "function"
    },
    {
      "constant": false,
      "inputs": [],
      "name": "renounceOwnership",
      "outputs": [],
      "payable": false,
      "stateMutability": "nonpayable",
      "type": "function"
    },
    {
      "constant": true,
      "inputs": [
        {
          "name": "restrictionCode",
          "type": "uint8"
        }
      ],
      "name": "messageForTransferRestriction",
      "outputs": [
        {
          "name": "message",
          "type": "string"
        }
      ],
      "payable": false,
      "stateMutability": "view",
      "type": "function"
    },
    {
      "constant": true,
      "inputs": [],
      "name": "owner",
      "outputs": [
        {
          "name": "",
          "type": "address"
        }
      ],
      "payable": false,
      "stateMutability": "view",
      "type": "function"
    },
    {
      "constant": true,
      "inputs": [],
      "name": "MAX_OWNERSHIP_STAKE_CODE",
      "outputs": [
        {
          "name": "",
          "type": "uint8"
        }
      ],
      "payable": false,
      "stateMutability": "view",
      "type": "function"
    },
    {
      "constant": false,
      "inputs": [
        {
          "name": "_maxPercentOwnershipTimesOneThousand",
          "type": "uint256"
        }
      ],
      "name": "changeMaximumPercentOwnership",
      "outputs": [],
      "payable": false,
      "stateMutability": "nonpayable",
      "type": "function"
    },
    {
      "constant": false,
      "inputs": [
        {
          "name": "to",
          "type": "address"
        },
        {
          "name": "value",
          "type": "uint256"
        }
      ],
      "name": "transfer",
      "outputs": [
        {
          "name": "success",
          "type": "bool"
        }
      ],
      "payable": false,
      "stateMutability": "nonpayable",
      "type": "function"
    },
    {
      "constant": true,
      "inputs": [],
      "name": "maxPercentOwnershipTimesOneThousand",
      "outputs": [
        {
          "name": "",
          "type": "uint256"
        }
      ],
      "payable": false,
      "stateMutability": "view",
      "type": "function"
    },
    {
      "constant": false,
      "inputs": [
        {
          "name": "_spender",
          "type": "address"
        },
        {
          "name": "_addedValue",
          "type": "uint256"
        }
      ],
      "name": "increaseApproval",
      "outputs": [
        {
          "name": "",
          "type": "bool"
        }
      ],
      "payable": false,
      "stateMutability": "nonpayable",
      "type": "function"
    },
    {
      "constant": true,
      "inputs": [
        {
          "name": "_owner",
          "type": "address"
        },
        {
          "name": "_spender",
          "type": "address"
        }
      ],
      "name": "allowance",
      "outputs": [
        {
          "name": "",
          "type": "uint256"
        }
      ],
      "payable": false,
      "stateMutability": "view",
      "type": "function"
    },
    {
      "constant": true,
      "inputs": [],
      "name": "PERCENT_OUT_OF_BOUNDS_ERROR",
      "outputs": [
        {
          "name": "",
          "type": "string"
        }
      ],
      "payable": false,
      "stateMutability": "view",
      "type": "function"
    },
    {
      "constant": true,
      "inputs": [],
      "name": "INDIVIDUAL_MAX_OWNERSHIP_STAKE_ERROR",
      "outputs": [
        {
          "name": "",
          "type": "string"
        }
      ],
      "payable": false,
      "stateMutability": "view",
      "type": "function"
    },
    {
      "constant": true,
      "inputs": [],
      "name": "SUCCESS_MESSAGE",
      "outputs": [
        {
          "name": "",
          "type": "string"
        }
      ],
      "payable": false,
      "stateMutability": "view",
      "type": "function"
    },
    {
      "constant": true,
      "inputs": [
        {
          "name": "",
          "type": "address"
        }
      ],
      "name": "individualAssignedMaxPercentOwnership",
      "outputs": [
        {
          "name": "",
          "type": "bool"
        }
      ],
      "payable": false,
      "stateMutability": "view",
      "type": "function"
    },
    {
      "constant": false,
      "inputs": [
        {
          "name": "_newOwner",
          "type": "address"
        }
      ],
      "name": "transferOwnership",
      "outputs": [],
      "payable": false,
      "stateMutability": "nonpayable",
      "type": "function"
    },
    {
      "constant": true,
      "inputs": [],
      "name": "INDIVIDUAL_MAX_OWNERSHIP_STAKE_CODE",
      "outputs": [
        {
          "name": "",
          "type": "uint8"
        }
      ],
      "payable": false,
      "stateMutability": "view",
      "type": "function"
    },
    {
      "inputs": [
        {
          "name": "globalMaxPercentOwnershipTimesOneThousand",
          "type": "uint256"
        }
      ],
      "payable": false,
      "stateMutability": "nonpayable",
      "type": "constructor"
    },
    {
      "anonymous": false,
      "inputs": [
        {
          "indexed": true,
          "name": "individual",
          "type": "address"
        },
        {
          "indexed": false,
          "name": "newIndividualMaxPercentOwnershipTimesOneThousand",
          "type": "uint256"
        },
        {
          "indexed": false,
          "name": "oldIndividualMaxPercentOwnershipTimesOneThousand",
          "type": "uint256"
        }
      ],
      "name": "ChangedIndividualMaxOwnershipStake",
      "type": "event"
    },
    {
      "anonymous": false,
      "inputs": [
        {
          "indexed": false,
          "name": "newMaxPercentOwnershipTimesOneThousand",
          "type": "uint256"
        },
        {
          "indexed": false,
          "name": "oldMaxPercentOwnershipTimesOneThousand",
          "type": "uint256"
        }
      ],
      "name": "ChangedMaxOwnershipStake",
      "type": "event"
    },
    {
      "anonymous": false,
      "inputs": [
        {
          "indexed": true,
          "name": "previousOwner",
          "type": "address"
        }
      ],
      "name": "OwnershipRenounced",
      "type": "event"
    },
    {
      "anonymous": false,
      "inputs": [
        {
          "indexed": true,
          "name": "previousOwner",
          "type": "address"
        },
        {
          "indexed": true,
          "name": "newOwner",
          "type": "address"
        }
      ],
      "name": "OwnershipTransferred",
      "type": "event"
    },
    {
      "anonymous": false,
      "inputs": [
        {
          "indexed": true,
          "name": "owner",
          "type": "address"
        },
        {
          "indexed": true,
          "name": "spender",
          "type": "address"
        },
        {
          "indexed": false,
          "name": "value",
          "type": "uint256"
        }
      ],
      "name": "Approval",
      "type": "event"
    },
    {
      "anonymous": false,
      "inputs": [
        {
          "indexed": true,
          "name": "from",
          "type": "address"
        },
        {
          "indexed": true,
          "name": "to",
          "type": "address"
        },
        {
          "indexed": false,
          "name": "value",
          "type": "uint256"
        }
      ],
      "name": "Transfer",
      "type": "event"
    },
    {
      "constant": false,
      "inputs": [
        {
          "name": "individual",
          "type": "address"
        }
      ],
      "name": "resetIndividualPercentOwnership",
      "outputs": [],
      "payable": false,
      "stateMutability": "nonpayable",
      "type": "function"
    },
    {
      "constant": false,
      "inputs": [
        {
          "name": "individual",
          "type": "address"
        },
        {
          "name": "individualPercentOwnershipTimesOneThousand",
          "type": "uint256"
        }
      ],
      "name": "changeIndividualPercentOwnership",
      "outputs": [],
      "payable": false,
      "stateMutability": "nonpayable",
      "type": "function"
    },
    {
      "constant": true,
      "inputs": [
        {
          "name": "from",
          "type": "address"
        },
        {
          "name": "to",
          "type": "address"
        },
        {
          "name": "value",
          "type": "uint256"
        }
      ],
      "name": "detectTransferRestriction",
      "outputs": [
        {
          "name": "restrictionCode",
          "type": "uint8"
        }
      ],
      "payable": false,
      "stateMutability": "view",
      "type": "function"
    }
  ],
  "bytecode": "0x60806040523480156200001157600080fd5b50604051602080620030548339810180604052810190808051906020019092919050505080600373__MessagesAndCodes______________________636ef3054c909160006040805190810160405280600781526020017f53554343455353000000000000000000000000000000000000000000000000008152506040518463ffffffff167c0100000000000000000000000000000000000000000000000000000000028152600401808481526020018360ff1660ff16815260200180602001828103825283818151815260200191508051906020019080838360005b838110156200010b578082015181840152602081019050620000ee565b50505050905090810190601f168015620001395780820380516001836020036101000a031916815260200191505b5094505050505060206040518083038186803b1580156200015957600080fd5b505af41580156200016e573d6000803e3d6000fd5b505050506040513d60208110156200018557600080fd5b81019080805190602001909291905050505033600560006101000a81548173ffffffffffffffffffffffffffffffffffffffff021916908373ffffffffffffffffffffffffffffffffffffffff1602179055506103e8811115608060405190810160405280604781526020017f4d6178696d756d2070657263656e74206f776e6572736869702074696d65732081526020017f31303030206d757374206265206c657373207468616e206f7220657175616c2081526020017f746f2031303030000000000000000000000000000000000000000000000000008152509015156200030d576040517f08c379a00000000000000000000000000000000000000000000000000000000081526004018080602001828103825283818151815260200191508051906020019080838360005b83811015620002d1578082015181840152602081019050620002b4565b50505050905090810190601f168015620002ff5780820380516001836020036101000a031916815260200191505b509250505060405180910390fd5b5080600681905550600373__MessagesAndCodes______________________63ef0067949091606060405190810160405280603e81526020017f494c4c4547414c5f5452414e534645525f4d4158494d554d5f4f574e4552534881526020017f49505f5354414b455f524541434845445f464f525f524543495049454e5400008152506040518363ffffffff167c01000000000000000000000000000000000000000000000000000000000281526004018083815260200180602001828103825283818151815260200191508051906020019080838360005b8381101562000403578082015181840152602081019050620003e6565b50505050905090810190601f168015620004315780820380516001836020036101000a031916815260200191505b50935050505060206040518083038186803b1580156200045057600080fd5b505af415801562000465573d6000803e3d6000fd5b505050506040513d60208110156200047c57600080fd5b8101908080519060200190929190505050600560146101000a81548160ff021916908360ff16021790555050600373__MessagesAndCodes______________________63ef0067949091608060405190810160405280604981526020017f494c4c4547414c5f5452414e534645525f4d4158494d554d5f494e444956494481526020017f55414c5f4f574e4552534849505f5354414b455f524541434845445f464f525f81526020017f524543495049454e5400000000000000000000000000000000000000000000008152506040518363ffffffff167c01000000000000000000000000000000000000000000000000000000000281526004018083815260200180602001828103825283818151815260200191508051906020019080838360005b83811015620005bc5780820151818401526020810190506200059f565b50505050905090810190601f168015620005ea5780820380516001836020036101000a031916815260200191505b50935050505060206040518083038186803b1580156200060957600080fd5b505af41580156200061e573d6000803e3d6000fd5b505050506040513d60208110156200063557600080fd5b8101908080519060200190929190505050600760006101000a81548160ff021916908360ff160217905550506129e380620006716000396000f30060806040526004361061015f576000357c0100000000000000000000000000000000000000000000000000000000900463ffffffff16806306d53c0c14610164578063095ea7b3146101f45780630b397a90146102595780630e969a05146102a457806318160ddd146102d55780631f04f87b1461030057806323b872dd1461035757806366188463146103dc57806370a082311461044157806370e42e3414610498578063715018a6146104db5780637f4ab1dd146104f25780638da5cb5b1461059b5780638fd7022b146105f25780639a33185614610623578063a45c2cb514610670578063a9059cbb1461069d578063afa255d914610702578063d4ce14151461072d578063d73dd623146107b4578063dd62ed3e14610819578063e30014fd14610890578063e6354ff114610920578063e7984d17146109b0578063f1b8d63c14610a40578063f2fde38b14610a9b578063f8bf21f614610ade575b600080fd5b34801561017057600080fd5b50610179610b0f565b6040518080602001828103825283818151815260200191508051906020019080838360005b838110156101b957808201518184015260208101905061019e565b50505050905090810190601f1680156101e65780820380516001836020036101000a031916815260200191505b509250505060405180910390f35b34801561020057600080fd5b5061023f600480360381019080803573ffffffffffffffffffffffffffffffffffffffff16906020019092919080359060200190929190505050610b6f565b604051808215151515815260200191505060405180910390f35b34801561026557600080fd5b5061028e6004803603810190808035906020019092919080359060200190929190505050610c61565b6040518082815260200191505060405180910390f35b3480156102b057600080fd5b506102b9610cc3565b604051808260ff1660ff16815260200191505060405180910390f35b3480156102e157600080fd5b506102ea610cc8565b6040518082815260200191505060405180910390f35b34801561030c57600080fd5b50610341600480360381019080803573ffffffffffffffffffffffffffffffffffffffff169060200190929190505050610cd2565b6040518082815260200191505060405180910390f35b34801561036357600080fd5b506103c2600480360381019080803573ffffffffffffffffffffffffffffffffffffffff169060200190929190803573ffffffffffffffffffffffffffffffffffffffff16906020019092919080359060200190929190505050610cea565b604051808215151515815260200191505060405180910390f35b3480156103e857600080fd5b50610427600480360381019080803573ffffffffffffffffffffffffffffffffffffffff16906020019092919080359060200190929190505050610dd2565b604051808215151515815260200191505060405180910390f35b34801561044d57600080fd5b50610482600480360381019080803573ffffffffffffffffffffffffffffffffffffffff169060200190929190505050611064565b6040518082815260200191505060405180910390f35b3480156104a457600080fd5b506104d9600480360381019080803573ffffffffffffffffffffffffffffffffffffffff1690602001909291905050506110ac565b005b3480156104e757600080fd5b506104f061123f565b005b3480156104fe57600080fd5b50610520600480360381019080803560ff169060200190929190505050611344565b6040518080602001828103825283818151815260200191508051906020019080838360005b83811015610560578082015181840152602081019050610545565b50505050905090810190601f16801561058d5780820380516001836020036101000a031916815260200191505b509250505060405180910390f35b3480156105a757600080fd5b506105b0611402565b604051808273ffffffffffffffffffffffffffffffffffffffff1673ffffffffffffffffffffffffffffffffffffffff16815260200191505060405180910390f35b3480156105fe57600080fd5b50610607611428565b604051808260ff1660ff16815260200191505060405180910390f35b34801561062f57600080fd5b5061066e600480360381019080803573ffffffffffffffffffffffffffffffffffffffff1690602001909291908035906020019092919050505061143b565b005b34801561067c57600080fd5b5061069b600480360381019080803590602001909291905050506116fe565b005b3480156106a957600080fd5b506106e8600480360381019080803573ffffffffffffffffffffffffffffffffffffffff169060200190929190803590602001909291905050506118d7565b604051808215151515815260200191505060405180910390f35b34801561070e57600080fd5b506107176119bd565b6040518082815260200191505060405180910390f35b34801561073957600080fd5b50610798600480360381019080803573ffffffffffffffffffffffffffffffffffffffff169060200190929190803573ffffffffffffffffffffffffffffffffffffffff169060200190929190803590602001909291905050506119c3565b604051808260ff1660ff16815260200191505060405180910390f35b3480156107c057600080fd5b506107ff600480360381019080803573ffffffffffffffffffffffffffffffffffffffff16906020019092919080359060200190929190505050611c32565b604051808215151515815260200191505060405180910390f35b34801561082557600080fd5b5061087a600480360381019080803573ffffffffffffffffffffffffffffffffffffffff169060200190929190803573ffffffffffffffffffffffffffffffffffffffff169060200190929190505050611e2e565b6040518082815260200191505060405180910390f35b34801561089c57600080fd5b506108a5611eb5565b6040518080602001828103825283818151815260200191508051906020019080838360005b838110156108e55780820151818401526020810190506108ca565b50505050905090810190601f1680156109125780820380516001836020036101000a031916815260200191505b509250505060405180910390f35b34801561092c57600080fd5b50610935611f3b565b6040518080602001828103825283818151815260200191508051906020019080838360005b8381101561097557808201518184015260208101905061095a565b50505050905090810190601f1680156109a25780820380516001836020036101000a031916815260200191505b509250505060405180910390f35b3480156109bc57600080fd5b506109c5611fc1565b6040518080602001828103825283818151815260200191508051906020019080838360005b83811015610a055780820151818401526020810190506109ea565b50505050905090810190601f168015610a325780820380516001836020036101000a031916815260200191505b509250505060405180910390f35b348015610a4c57600080fd5b50610a81600480360381019080803573ffffffffffffffffffffffffffffffffffffffff169060200190929190505050611ffa565b604051808215151515815260200191505060405180910390f35b348015610aa757600080fd5b50610adc600480360381019080803573ffffffffffffffffffffffffffffffffffffffff16906020019092919050505061201a565b005b348015610aea57600080fd5b50610af3612082565b604051808260ff1660ff16815260200191505060405180910390f35b606060405190810160405280603e81526020017f494c4c4547414c5f5452414e534645525f4d4158494d554d5f4f574e4552534881526020017f49505f5354414b455f524541434845445f464f525f524543495049454e54000081525081565b600081600260003373ffffffffffffffffffffffffffffffffffffffff1673ffffffffffffffffffffffffffffffffffffffff16815260200190815260200160002060008573ffffffffffffffffffffffffffffffffffffffff1673ffffffffffffffffffffffffffffffffffffffff168152602001908152602001600020819055508273ffffffffffffffffffffffffffffffffffffffff163373ffffffffffffffffffffffffffffffffffffffff167f8c5be1e5ebec7d5bd14f71427d1e84f3dd0314c0f7b2291e5b200ac8c7c3b925846040518082815260200191505060405180910390a36001905092915050565b6000806000610c7b6127108661209590919063ffffffff16565b9150610cb6600a610ca86005610c9a88876120cd90919063ffffffff16565b6120e390919063ffffffff16565b6120cd90919063ffffffff16565b9050809250505092915050565b600081565b6000600154905090565b60096020528060005260406000206000915090505481565b60008383836000610cfc8484846119c3565b9050600060ff168160ff1614610d1182611344565b901515610db9576040517f08c379a00000000000000000000000000000000000000000000000000000000081526004018080602001828103825283818151815260200191508051906020019080838360005b83811015610d7e578082015181840152602081019050610d63565b50505050905090810190601f168015610dab5780820380516001836020036101000a031916815260200191505b509250505060405180910390fd5b50610dc58888886120ff565b9450505050509392505050565b600080600260003373ffffffffffffffffffffffffffffffffffffffff1673ffffffffffffffffffffffffffffffffffffffff16815260200190815260200160002060008573ffffffffffffffffffffffffffffffffffffffff1673ffffffffffffffffffffffffffffffffffffffff1681526020019081526020016000205490508083101515610ee4576000600260003373ffffffffffffffffffffffffffffffffffffffff1673ffffffffffffffffffffffffffffffffffffffff16815260200190815260200160002060008673ffffffffffffffffffffffffffffffffffffffff1673ffffffffffffffffffffffffffffffffffffffff16815260200190815260200160002081905550610f78565b610ef783826124ba90919063ffffffff16565b600260003373ffffffffffffffffffffffffffffffffffffffff1673ffffffffffffffffffffffffffffffffffffffff16815260200190815260200160002060008673ffffffffffffffffffffffffffffffffffffffff1673ffffffffffffffffffffffffffffffffffffffff168152602001908152602001600020819055505b8373ffffffffffffffffffffffffffffffffffffffff163373ffffffffffffffffffffffffffffffffffffffff167f8c5be1e5ebec7d5bd14f71427d1e84f3dd0314c0f7b2291e5b200ac8c7c3b925600260003373ffffffffffffffffffffffffffffffffffffffff1673ffffffffffffffffffffffffffffffffffffffff16815260200190815260200160002060008873ffffffffffffffffffffffffffffffffffffffff1673ffffffffffffffffffffffffffffffffffffffff168152602001908152602001600020546040518082815260200191505060405180910390a3600191505092915050565b60008060008373ffffffffffffffffffffffffffffffffffffffff1673ffffffffffffffffffffffffffffffffffffffff168152602001908152602001600020549050919050565b600560009054906101000a900473ffffffffffffffffffffffffffffffffffffffff1673ffffffffffffffffffffffffffffffffffffffff163373ffffffffffffffffffffffffffffffffffffffff1614151561110857600080fd5b8073ffffffffffffffffffffffffffffffffffffffff167f55cd28e6ab80a8d2fd63e015581dfc9d6f641d7d0ce2223b29efa8f32a75a172600654600960008573ffffffffffffffffffffffffffffffffffffffff1673ffffffffffffffffffffffffffffffffffffffff16815260200190815260200160002054604051808381526020018281526020019250505060405180910390a26000600860008373ffffffffffffffffffffffffffffffffffffffff1673ffffffffffffffffffffffffffffffffffffffff16815260200190815260200160002060006101000a81548160ff0219169083151502179055506000600960008373ffffffffffffffffffffffffffffffffffffffff1673ffffffffffffffffffffffffffffffffffffffff1681526020019081526020016000208190555050565b600560009054906101000a900473ffffffffffffffffffffffffffffffffffffffff1673ffffffffffffffffffffffffffffffffffffffff163373ffffffffffffffffffffffffffffffffffffffff1614151561129b57600080fd5b600560009054906101000a900473ffffffffffffffffffffffffffffffffffffffff1673ffffffffffffffffffffffffffffffffffffffff167ff8df31144d9c2f0f6b59d69b8b98abd5459d07f2742c4df920b25aae33c6482060405160405180910390a26000600560006101000a81548173ffffffffffffffffffffffffffffffffffffffff021916908373ffffffffffffffffffffffffffffffffffffffff160217905550565b6060600360000160008360ff1660ff1681526020019081526020016000208054600181600116156101000203166002900480601f0160208091040260200160405190810160405280929190818152602001828054600181600116156101000203166002900480156113f65780601f106113cb576101008083540402835291602001916113f6565b820191906000526020600020905b8154815290600101906020018083116113d957829003601f168201915b50505050509050919050565b600560009054906101000a900473ffffffffffffffffffffffffffffffffffffffff1681565b600560149054906101000a900460ff1681565b600560009054906101000a900473ffffffffffffffffffffffffffffffffffffffff1673ffffffffffffffffffffffffffffffffffffffff163373ffffffffffffffffffffffffffffffffffffffff1614151561149757600080fd5b6103e8811115608060405190810160405280604781526020017f4d6178696d756d2070657263656e74206f776e6572736869702074696d65732081526020017f31303030206d757374206265206c657373207468616e206f7220657175616c2081526020017f746f2031303030000000000000000000000000000000000000000000000000008152509015156115c8576040517f08c379a00000000000000000000000000000000000000000000000000000000081526004018080602001828103825283818151815260200191508051906020019080838360005b8381101561158d578082015181840152602081019050611572565b50505050905090810190601f1680156115ba5780820380516001836020036101000a031916815260200191505b509250505060405180910390fd5b508173ffffffffffffffffffffffffffffffffffffffff167f55cd28e6ab80a8d2fd63e015581dfc9d6f641d7d0ce2223b29efa8f32a75a17282600960008673ffffffffffffffffffffffffffffffffffffffff1673ffffffffffffffffffffffffffffffffffffffff16815260200190815260200160002054604051808381526020018281526020019250505060405180910390a26001600860008473ffffffffffffffffffffffffffffffffffffffff1673ffffffffffffffffffffffffffffffffffffffff16815260200190815260200160002060006101000a81548160ff02191690831515021790555080600960008473ffffffffffffffffffffffffffffffffffffffff1673ffffffffffffffffffffffffffffffffffffffff168152602001908152602001600020819055505050565b600560009054906101000a900473ffffffffffffffffffffffffffffffffffffffff1673ffffffffffffffffffffffffffffffffffffffff163373ffffffffffffffffffffffffffffffffffffffff1614151561175a57600080fd5b6103e8811115608060405190810160405280604781526020017f4d6178696d756d2070657263656e74206f776e6572736869702074696d65732081526020017f31303030206d757374206265206c657373207468616e206f7220657175616c2081526020017f746f20313030300000000000000000000000000000000000000000000000000081525090151561188b576040517f08c379a00000000000000000000000000000000000000000000000000000000081526004018080602001828103825283818151815260200191508051906020019080838360005b83811015611850578082015181840152602081019050611835565b50505050905090810190601f16801561187d5780820380516001836020036101000a031916815260200191505b509250505060405180910390fd5b507f9cb5d86ab37fb16dcc670df336ca46a2330d55e8ad2eaf6cc59953932bc6e28081600654604051808381526020018281526020019250505060405180910390a18060068190555050565b600033838360006118e98484846119c3565b9050600060ff168160ff16146118fe82611344565b9015156119a6576040517f08c379a00000000000000000000000000000000000000000000000000000000081526004018080602001828103825283818151815260200191508051906020019080838360005b8381101561196b578082015181840152602081019050611950565b50505050905090810190601f1680156119985780820380516001836020036101000a031916815260200191505b509250505060405180910390fd5b506119b187876124d3565b94505050505092915050565b60065481565b6000806000806000809450600860008873ffffffffffffffffffffffffffffffffffffffff1673ffffffffffffffffffffffffffffffffffffffff16815260200190815260200160002060009054906101000a900460ff1615611c1957611b08863073ffffffffffffffffffffffffffffffffffffffff166370a082318a6040518263ffffffff167c0100000000000000000000000000000000000000000000000000000000028152600401808273ffffffffffffffffffffffffffffffffffffffff1673ffffffffffffffffffffffffffffffffffffffff168152602001915050602060405180830381600087803b158015611abf57600080fd5b505af1158015611ad3573d6000803e3d6000fd5b505050506040513d6020811015611ae957600080fd5b81019080805190602001909291905050506120e390919063ffffffff16565b9350611bb2843073ffffffffffffffffffffffffffffffffffffffff166318160ddd6040518163ffffffff167c0100000000000000000000000000000000000000000000000000000000028152600401602060405180830381600087803b158015611b7257600080fd5b505af1158015611b86573d6000803e3d6000fd5b505050506040513d6020811015611b9c57600080fd5b8101908080519060200190929190505050610c61565b9250600960008873ffffffffffffffffffffffffffffffffffffffff1673ffffffffffffffffffffffffffffffffffffffff16815260200190815260200160002054915081831190508015611c1457600760009054906101000a900460ff1694505b611c27565b611c248888886126f3565b94505b505050509392505050565b6000611cc382600260003373ffffffffffffffffffffffffffffffffffffffff1673ffffffffffffffffffffffffffffffffffffffff16815260200190815260200160002060008673ffffffffffffffffffffffffffffffffffffffff1673ffffffffffffffffffffffffffffffffffffffff168152602001908152602001600020546120e390919063ffffffff16565b600260003373ffffffffffffffffffffffffffffffffffffffff1673ffffffffffffffffffffffffffffffffffffffff16815260200190815260200160002060008573ffffffffffffffffffffffffffffffffffffffff1673ffffffffffffffffffffffffffffffffffffffff168152602001908152602001600020819055508273ffffffffffffffffffffffffffffffffffffffff163373ffffffffffffffffffffffffffffffffffffffff167f8c5be1e5ebec7d5bd14f71427d1e84f3dd0314c0f7b2291e5b200ac8c7c3b925600260003373ffffffffffffffffffffffffffffffffffffffff1673ffffffffffffffffffffffffffffffffffffffff16815260200190815260200160002060008773ffffffffffffffffffffffffffffffffffffffff1673ffffffffffffffffffffffffffffffffffffffff168152602001908152602001600020546040518082815260200191505060405180910390a36001905092915050565b6000600260008473ffffffffffffffffffffffffffffffffffffffff1673ffffffffffffffffffffffffffffffffffffffff16815260200190815260200160002060008373ffffffffffffffffffffffffffffffffffffffff1673ffffffffffffffffffffffffffffffffffffffff16815260200190815260200160002054905092915050565b608060405190810160405280604781526020017f4d6178696d756d2070657263656e74206f776e6572736869702074696d65732081526020017f31303030206d757374206265206c657373207468616e206f7220657175616c2081526020017f746f20313030300000000000000000000000000000000000000000000000000081525081565b608060405190810160405280604981526020017f494c4c4547414c5f5452414e534645525f4d4158494d554d5f494e444956494481526020017f55414c5f4f574e4552534849505f5354414b455f524541434845445f464f525f81526020017f524543495049454e54000000000000000000000000000000000000000000000081525081565b6040805190810160405280600781526020017f535543434553530000000000000000000000000000000000000000000000000081525081565b60086020528060005260406000206000915054906101000a900460ff1681565b600560009054906101000a900473ffffffffffffffffffffffffffffffffffffffff1673ffffffffffffffffffffffffffffffffffffffff163373ffffffffffffffffffffffffffffffffffffffff1614151561207657600080fd5b61207f816128bb565b50565b600760009054906101000a900460ff1681565b6000808314156120a857600090506120c7565b81830290508183828115156120b957fe5b041415156120c357fe5b8090505b92915050565b600081838115156120da57fe5b04905092915050565b600081830190508281101515156120f657fe5b80905092915050565b60008060008573ffffffffffffffffffffffffffffffffffffffff1673ffffffffffffffffffffffffffffffffffffffff16815260200190815260200160002054821115151561214e57600080fd5b600260008573ffffffffffffffffffffffffffffffffffffffff1673ffffffffffffffffffffffffffffffffffffffff16815260200190815260200160002060003373ffffffffffffffffffffffffffffffffffffffff1673ffffffffffffffffffffffffffffffffffffffff1681526020019081526020016000205482111515156121d957600080fd5b600073ffffffffffffffffffffffffffffffffffffffff168373ffffffffffffffffffffffffffffffffffffffff161415151561221557600080fd5b612266826000808773ffffffffffffffffffffffffffffffffffffffff1673ffffffffffffffffffffffffffffffffffffffff168152602001908152602001600020546124ba90919063ffffffff16565b6000808673ffffffffffffffffffffffffffffffffffffffff1673ffffffffffffffffffffffffffffffffffffffff168152602001908152602001600020819055506122f9826000808673ffffffffffffffffffffffffffffffffffffffff1673ffffffffffffffffffffffffffffffffffffffff168152602001908152602001600020546120e390919063ffffffff16565b6000808573ffffffffffffffffffffffffffffffffffffffff1673ffffffffffffffffffffffffffffffffffffffff168152602001908152602001600020819055506123ca82600260008773ffffffffffffffffffffffffffffffffffffffff1673ffffffffffffffffffffffffffffffffffffffff16815260200190815260200160002060003373ffffffffffffffffffffffffffffffffffffffff1673ffffffffffffffffffffffffffffffffffffffff168152602001908152602001600020546124ba90919063ffffffff16565b600260008673ffffffffffffffffffffffffffffffffffffffff1673ffffffffffffffffffffffffffffffffffffffff16815260200190815260200160002060003373ffffffffffffffffffffffffffffffffffffffff1673ffffffffffffffffffffffffffffffffffffffff168152602001908152602001600020819055508273ffffffffffffffffffffffffffffffffffffffff168473ffffffffffffffffffffffffffffffffffffffff167fddf252ad1be2c89b69c2b068fc378daa952ba7f163c4a11628f55a4df523b3ef846040518082815260200191505060405180910390a3600190509392505050565b60008282111515156124c857fe5b818303905092915050565b60008060003373ffffffffffffffffffffffffffffffffffffffff1673ffffffffffffffffffffffffffffffffffffffff16815260200190815260200160002054821115151561252257600080fd5b600073ffffffffffffffffffffffffffffffffffffffff168373ffffffffffffffffffffffffffffffffffffffff161415151561255e57600080fd5b6125af826000803373ffffffffffffffffffffffffffffffffffffffff1673ffffffffffffffffffffffffffffffffffffffff168152602001908152602001600020546124ba90919063ffffffff16565b6000803373ffffffffffffffffffffffffffffffffffffffff1673ffffffffffffffffffffffffffffffffffffffff16815260200190815260200160002081905550612642826000808673ffffffffffffffffffffffffffffffffffffffff1673ffffffffffffffffffffffffffffffffffffffff168152602001908152602001600020546120e390919063ffffffff16565b6000808573ffffffffffffffffffffffffffffffffffffffff1673ffffffffffffffffffffffffffffffffffffffff168152602001908152602001600020819055508273ffffffffffffffffffffffffffffffffffffffff163373ffffffffffffffffffffffffffffffffffffffff167fddf252ad1be2c89b69c2b068fc378daa952ba7f163c4a11628f55a4df523b3ef846040518082815260200191505060405180910390a36001905092915050565b600080600080600093506127e5853073ffffffffffffffffffffffffffffffffffffffff166370a08231896040518263ffffffff167c0100000000000000000000000000000000000000000000000000000000028152600401808273ffffffffffffffffffffffffffffffffffffffff1673ffffffffffffffffffffffffffffffffffffffff168152602001915050602060405180830381600087803b15801561279c57600080fd5b505af11580156127b0573d6000803e3d6000fd5b505050506040513d60208110156127c657600080fd5b81019080805190602001909291905050506120e390919063ffffffff16565b925061288f833073ffffffffffffffffffffffffffffffffffffffff166318160ddd6040518163ffffffff167c0100000000000000000000000000000000000000000000000000000000028152600401602060405180830381600087803b15801561284f57600080fd5b505af1158015612863573d6000803e3d6000fd5b505050506040513d602081101561287957600080fd5b8101908080519060200190929190505050610c61565b91506006548211905080156128b157600560149054906101000a900460ff1693505b5050509392505050565b600073ffffffffffffffffffffffffffffffffffffffff168173ffffffffffffffffffffffffffffffffffffffff16141515156128f757600080fd5b8073ffffffffffffffffffffffffffffffffffffffff16600560009054906101000a900473ffffffffffffffffffffffffffffffffffffffff1673ffffffffffffffffffffffffffffffffffffffff167f8be0079c531659141344cd1fd0a4f28419497f9722a3daafe3b4186f6b6457e060405160405180910390a380600560006101000a81548173ffffffffffffffffffffffffffffffffffffffff021916908373ffffffffffffffffffffffffffffffffffffffff160217905550505600a165627a7a7230582071ecc021b7cb93262f82b51aec8e20152823f1fac8dbf110300979ae1710f15c0029",
  "deployedBytecode": "0x60806040526004361061015f576000357c0100000000000000000000000000000000000000000000000000000000900463ffffffff16806306d53c0c14610164578063095ea7b3146101f45780630b397a90146102595780630e969a05146102a457806318160ddd146102d55780631f04f87b1461030057806323b872dd1461035757806366188463146103dc57806370a082311461044157806370e42e3414610498578063715018a6146104db5780637f4ab1dd146104f25780638da5cb5b1461059b5780638fd7022b146105f25780639a33185614610623578063a45c2cb514610670578063a9059cbb1461069d578063afa255d914610702578063d4ce14151461072d578063d73dd623146107b4578063dd62ed3e14610819578063e30014fd14610890578063e6354ff114610920578063e7984d17146109b0578063f1b8d63c14610a40578063f2fde38b14610a9b578063f8bf21f614610ade575b600080fd5b34801561017057600080fd5b50610179610b0f565b6040518080602001828103825283818151815260200191508051906020019080838360005b838110156101b957808201518184015260208101905061019e565b50505050905090810190601f1680156101e65780820380516001836020036101000a031916815260200191505b509250505060405180910390f35b34801561020057600080fd5b5061023f600480360381019080803573ffffffffffffffffffffffffffffffffffffffff16906020019092919080359060200190929190505050610b6f565b604051808215151515815260200191505060405180910390f35b34801561026557600080fd5b5061028e6004803603810190808035906020019092919080359060200190929190505050610c61565b6040518082815260200191505060405180910390f35b3480156102b057600080fd5b506102b9610cc3565b604051808260ff1660ff16815260200191505060405180910390f35b3480156102e157600080fd5b506102ea610cc8565b6040518082815260200191505060405180910390f35b34801561030c57600080fd5b50610341600480360381019080803573ffffffffffffffffffffffffffffffffffffffff169060200190929190505050610cd2565b6040518082815260200191505060405180910390f35b34801561036357600080fd5b506103c2600480360381019080803573ffffffffffffffffffffffffffffffffffffffff169060200190929190803573ffffffffffffffffffffffffffffffffffffffff16906020019092919080359060200190929190505050610cea565b604051808215151515815260200191505060405180910390f35b3480156103e857600080fd5b50610427600480360381019080803573ffffffffffffffffffffffffffffffffffffffff16906020019092919080359060200190929190505050610dd2565b604051808215151515815260200191505060405180910390f35b34801561044d57600080fd5b50610482600480360381019080803573ffffffffffffffffffffffffffffffffffffffff169060200190929190505050611064565b6040518082815260200191505060405180910390f35b3480156104a457600080fd5b506104d9600480360381019080803573ffffffffffffffffffffffffffffffffffffffff1690602001909291905050506110ac565b005b3480156104e757600080fd5b506104f061123f565b005b3480156104fe57600080fd5b50610520600480360381019080803560ff169060200190929190505050611344565b6040518080602001828103825283818151815260200191508051906020019080838360005b83811015610560578082015181840152602081019050610545565b50505050905090810190601f16801561058d5780820380516001836020036101000a031916815260200191505b509250505060405180910390f35b3480156105a757600080fd5b506105b0611402565b604051808273ffffffffffffffffffffffffffffffffffffffff1673ffffffffffffffffffffffffffffffffffffffff16815260200191505060405180910390f35b3480156105fe57600080fd5b50610607611428565b604051808260ff1660ff16815260200191505060405180910390f35b34801561062f57600080fd5b5061066e600480360381019080803573ffffffffffffffffffffffffffffffffffffffff1690602001909291908035906020019092919050505061143b565b005b34801561067c57600080fd5b5061069b600480360381019080803590602001909291905050506116fe565b005b3480156106a957600080fd5b506106e8600480360381019080803573ffffffffffffffffffffffffffffffffffffffff169060200190929190803590602001909291905050506118d7565b604051808215151515815260200191505060405180910390f35b34801561070e57600080fd5b506107176119bd565b6040518082815260200191505060405180910390f35b34801561073957600080fd5b50610798600480360381019080803573ffffffffffffffffffffffffffffffffffffffff169060200190929190803573ffffffffffffffffffffffffffffffffffffffff169060200190929190803590602001909291905050506119c3565b604051808260ff1660ff16815260200191505060405180910390f35b3480156107c057600080fd5b506107ff600480360381019080803573ffffffffffffffffffffffffffffffffffffffff16906020019092919080359060200190929190505050611c32565b604051808215151515815260200191505060405180910390f35b34801561082557600080fd5b5061087a600480360381019080803573ffffffffffffffffffffffffffffffffffffffff169060200190929190803573ffffffffffffffffffffffffffffffffffffffff169060200190929190505050611e2e565b6040518082815260200191505060405180910390f35b34801561089c57600080fd5b506108a5611eb5565b6040518080602001828103825283818151815260200191508051906020019080838360005b838110156108e55780820151818401526020810190506108ca565b50505050905090810190601f1680156109125780820380516001836020036101000a031916815260200191505b509250505060405180910390f35b34801561092c57600080fd5b50610935611f3b565b6040518080602001828103825283818151815260200191508051906020019080838360005b8381101561097557808201518184015260208101905061095a565b50505050905090810190601f1680156109a25780820380516001836020036101000a031916815260200191505b509250505060405180910390f35b3480156109bc57600080fd5b506109c5611fc1565b6040518080602001828103825283818151815260200191508051906020019080838360005b83811015610a055780820151818401526020810190506109ea565b50505050905090810190601f168015610a325780820380516001836020036101000a031916815260200191505b509250505060405180910390f35b348015610a4c57600080fd5b50610a81600480360381019080803573ffffffffffffffffffffffffffffffffffffffff169060200190929190505050611ffa565b604051808215151515815260200191505060405180910390f35b348015610aa757600080fd5b50610adc600480360381019080803573ffffffffffffffffffffffffffffffffffffffff16906020019092919050505061201a565b005b348015610aea57600080fd5b50610af3612082565b604051808260ff1660ff16815260200191505060405180910390f35b606060405190810160405280603e81526020017f494c4c4547414c5f5452414e534645525f4d4158494d554d5f4f574e4552534881526020017f49505f5354414b455f524541434845445f464f525f524543495049454e54000081525081565b600081600260003373ffffffffffffffffffffffffffffffffffffffff1673ffffffffffffffffffffffffffffffffffffffff16815260200190815260200160002060008573ffffffffffffffffffffffffffffffffffffffff1673ffffffffffffffffffffffffffffffffffffffff168152602001908152602001600020819055508273ffffffffffffffffffffffffffffffffffffffff163373ffffffffffffffffffffffffffffffffffffffff167f8c5be1e5ebec7d5bd14f71427d1e84f3dd0314c0f7b2291e5b200ac8c7c3b925846040518082815260200191505060405180910390a36001905092915050565b6000806000610c7b6127108661209590919063ffffffff16565b9150610cb6600a610ca86005610c9a88876120cd90919063ffffffff16565b6120e390919063ffffffff16565b6120cd90919063ffffffff16565b9050809250505092915050565b600081565b6000600154905090565b60096020528060005260406000206000915090505481565b60008383836000610cfc8484846119c3565b9050600060ff168160ff1614610d1182611344565b901515610db9576040517f08c379a00000000000000000000000000000000000000000000000000000000081526004018080602001828103825283818151815260200191508051906020019080838360005b83811015610d7e578082015181840152602081019050610d63565b50505050905090810190601f168015610dab5780820380516001836020036101000a031916815260200191505b509250505060405180910390fd5b50610dc58888886120ff565b9450505050509392505050565b600080600260003373ffffffffffffffffffffffffffffffffffffffff1673ffffffffffffffffffffffffffffffffffffffff16815260200190815260200160002060008573ffffffffffffffffffffffffffffffffffffffff1673ffffffffffffffffffffffffffffffffffffffff1681526020019081526020016000205490508083101515610ee4576000600260003373ffffffffffffffffffffffffffffffffffffffff1673ffffffffffffffffffffffffffffffffffffffff16815260200190815260200160002060008673ffffffffffffffffffffffffffffffffffffffff1673ffffffffffffffffffffffffffffffffffffffff16815260200190815260200160002081905550610f78565b610ef783826124ba90919063ffffffff16565b600260003373ffffffffffffffffffffffffffffffffffffffff1673ffffffffffffffffffffffffffffffffffffffff16815260200190815260200160002060008673ffffffffffffffffffffffffffffffffffffffff1673ffffffffffffffffffffffffffffffffffffffff168152602001908152602001600020819055505b8373ffffffffffffffffffffffffffffffffffffffff163373ffffffffffffffffffffffffffffffffffffffff167f8c5be1e5ebec7d5bd14f71427d1e84f3dd0314c0f7b2291e5b200ac8c7c3b925600260003373ffffffffffffffffffffffffffffffffffffffff1673ffffffffffffffffffffffffffffffffffffffff16815260200190815260200160002060008873ffffffffffffffffffffffffffffffffffffffff1673ffffffffffffffffffffffffffffffffffffffff168152602001908152602001600020546040518082815260200191505060405180910390a3600191505092915050565b60008060008373ffffffffffffffffffffffffffffffffffffffff1673ffffffffffffffffffffffffffffffffffffffff168152602001908152602001600020549050919050565b600560009054906101000a900473ffffffffffffffffffffffffffffffffffffffff1673ffffffffffffffffffffffffffffffffffffffff163373ffffffffffffffffffffffffffffffffffffffff1614151561110857600080fd5b8073ffffffffffffffffffffffffffffffffffffffff167f55cd28e6ab80a8d2fd63e015581dfc9d6f641d7d0ce2223b29efa8f32a75a172600654600960008573ffffffffffffffffffffffffffffffffffffffff1673ffffffffffffffffffffffffffffffffffffffff16815260200190815260200160002054604051808381526020018281526020019250505060405180910390a26000600860008373ffffffffffffffffffffffffffffffffffffffff1673ffffffffffffffffffffffffffffffffffffffff16815260200190815260200160002060006101000a81548160ff0219169083151502179055506000600960008373ffffffffffffffffffffffffffffffffffffffff1673ffffffffffffffffffffffffffffffffffffffff1681526020019081526020016000208190555050565b600560009054906101000a900473ffffffffffffffffffffffffffffffffffffffff1673ffffffffffffffffffffffffffffffffffffffff163373ffffffffffffffffffffffffffffffffffffffff1614151561129b57600080fd5b600560009054906101000a900473ffffffffffffffffffffffffffffffffffffffff1673ffffffffffffffffffffffffffffffffffffffff167ff8df31144d9c2f0f6b59d69b8b98abd5459d07f2742c4df920b25aae33c6482060405160405180910390a26000600560006101000a81548173ffffffffffffffffffffffffffffffffffffffff021916908373ffffffffffffffffffffffffffffffffffffffff160217905550565b6060600360000160008360ff1660ff1681526020019081526020016000208054600181600116156101000203166002900480601f0160208091040260200160405190810160405280929190818152602001828054600181600116156101000203166002900480156113f65780601f106113cb576101008083540402835291602001916113f6565b820191906000526020600020905b8154815290600101906020018083116113d957829003601f168201915b50505050509050919050565b600560009054906101000a900473ffffffffffffffffffffffffffffffffffffffff1681565b600560149054906101000a900460ff1681565b600560009054906101000a900473ffffffffffffffffffffffffffffffffffffffff1673ffffffffffffffffffffffffffffffffffffffff163373ffffffffffffffffffffffffffffffffffffffff1614151561149757600080fd5b6103e8811115608060405190810160405280604781526020017f4d6178696d756d2070657263656e74206f776e6572736869702074696d65732081526020017f31303030206d757374206265206c657373207468616e206f7220657175616c2081526020017f746f2031303030000000000000000000000000000000000000000000000000008152509015156115c8576040517f08c379a00000000000000000000000000000000000000000000000000000000081526004018080602001828103825283818151815260200191508051906020019080838360005b8381101561158d578082015181840152602081019050611572565b50505050905090810190601f1680156115ba5780820380516001836020036101000a031916815260200191505b509250505060405180910390fd5b508173ffffffffffffffffffffffffffffffffffffffff167f55cd28e6ab80a8d2fd63e015581dfc9d6f641d7d0ce2223b29efa8f32a75a17282600960008673ffffffffffffffffffffffffffffffffffffffff1673ffffffffffffffffffffffffffffffffffffffff16815260200190815260200160002054604051808381526020018281526020019250505060405180910390a26001600860008473ffffffffffffffffffffffffffffffffffffffff1673ffffffffffffffffffffffffffffffffffffffff16815260200190815260200160002060006101000a81548160ff02191690831515021790555080600960008473ffffffffffffffffffffffffffffffffffffffff1673ffffffffffffffffffffffffffffffffffffffff168152602001908152602001600020819055505050565b600560009054906101000a900473ffffffffffffffffffffffffffffffffffffffff1673ffffffffffffffffffffffffffffffffffffffff163373ffffffffffffffffffffffffffffffffffffffff1614151561175a57600080fd5b6103e8811115608060405190810160405280604781526020017f4d6178696d756d2070657263656e74206f776e6572736869702074696d65732081526020017f31303030206d757374206265206c657373207468616e206f7220657175616c2081526020017f746f20313030300000000000000000000000000000000000000000000000000081525090151561188b576040517f08c379a00000000000000000000000000000000000000000000000000000000081526004018080602001828103825283818151815260200191508051906020019080838360005b83811015611850578082015181840152602081019050611835565b50505050905090810190601f16801561187d5780820380516001836020036101000a031916815260200191505b509250505060405180910390fd5b507f9cb5d86ab37fb16dcc670df336ca46a2330d55e8ad2eaf6cc59953932bc6e28081600654604051808381526020018281526020019250505060405180910390a18060068190555050565b600033838360006118e98484846119c3565b9050600060ff168160ff16146118fe82611344565b9015156119a6576040517f08c379a00000000000000000000000000000000000000000000000000000000081526004018080602001828103825283818151815260200191508051906020019080838360005b8381101561196b578082015181840152602081019050611950565b50505050905090810190601f1680156119985780820380516001836020036101000a031916815260200191505b509250505060405180910390fd5b506119b187876124d3565b94505050505092915050565b60065481565b6000806000806000809450600860008873ffffffffffffffffffffffffffffffffffffffff1673ffffffffffffffffffffffffffffffffffffffff16815260200190815260200160002060009054906101000a900460ff1615611c1957611b08863073ffffffffffffffffffffffffffffffffffffffff166370a082318a6040518263ffffffff167c0100000000000000000000000000000000000000000000000000000000028152600401808273ffffffffffffffffffffffffffffffffffffffff1673ffffffffffffffffffffffffffffffffffffffff168152602001915050602060405180830381600087803b158015611abf57600080fd5b505af1158015611ad3573d6000803e3d6000fd5b505050506040513d6020811015611ae957600080fd5b81019080805190602001909291905050506120e390919063ffffffff16565b9350611bb2843073ffffffffffffffffffffffffffffffffffffffff166318160ddd6040518163ffffffff167c0100000000000000000000000000000000000000000000000000000000028152600401602060405180830381600087803b158015611b7257600080fd5b505af1158015611b86573d6000803e3d6000fd5b505050506040513d6020811015611b9c57600080fd5b8101908080519060200190929190505050610c61565b9250600960008873ffffffffffffffffffffffffffffffffffffffff1673ffffffffffffffffffffffffffffffffffffffff16815260200190815260200160002054915081831190508015611c1457600760009054906101000a900460ff1694505b611c27565b611c248888886126f3565b94505b505050509392505050565b6000611cc382600260003373ffffffffffffffffffffffffffffffffffffffff1673ffffffffffffffffffffffffffffffffffffffff16815260200190815260200160002060008673ffffffffffffffffffffffffffffffffffffffff1673ffffffffffffffffffffffffffffffffffffffff168152602001908152602001600020546120e390919063ffffffff16565b600260003373ffffffffffffffffffffffffffffffffffffffff1673ffffffffffffffffffffffffffffffffffffffff16815260200190815260200160002060008573ffffffffffffffffffffffffffffffffffffffff1673ffffffffffffffffffffffffffffffffffffffff168152602001908152602001600020819055508273ffffffffffffffffffffffffffffffffffffffff163373ffffffffffffffffffffffffffffffffffffffff167f8c5be1e5ebec7d5bd14f71427d1e84f3dd0314c0f7b2291e5b200ac8c7c3b925600260003373ffffffffffffffffffffffffffffffffffffffff1673ffffffffffffffffffffffffffffffffffffffff16815260200190815260200160002060008773ffffffffffffffffffffffffffffffffffffffff1673ffffffffffffffffffffffffffffffffffffffff168152602001908152602001600020546040518082815260200191505060405180910390a36001905092915050565b6000600260008473ffffffffffffffffffffffffffffffffffffffff1673ffffffffffffffffffffffffffffffffffffffff16815260200190815260200160002060008373ffffffffffffffffffffffffffffffffffffffff1673ffffffffffffffffffffffffffffffffffffffff16815260200190815260200160002054905092915050565b608060405190810160405280604781526020017f4d6178696d756d2070657263656e74206f776e6572736869702074696d65732081526020017f31303030206d757374206265206c657373207468616e206f7220657175616c2081526020017f746f20313030300000000000000000000000000000000000000000000000000081525081565b608060405190810160405280604981526020017f494c4c4547414c5f5452414e534645525f4d4158494d554d5f494e444956494481526020017f55414c5f4f574e4552534849505f5354414b455f524541434845445f464f525f81526020017f524543495049454e54000000000000000000000000000000000000000000000081525081565b6040805190810160405280600781526020017f535543434553530000000000000000000000000000000000000000000000000081525081565b60086020528060005260406000206000915054906101000a900460ff1681565b600560009054906101000a900473ffffffffffffffffffffffffffffffffffffffff1673ffffffffffffffffffffffffffffffffffffffff163373ffffffffffffffffffffffffffffffffffffffff1614151561207657600080fd5b61207f816128bb565b50565b600760009054906101000a900460ff1681565b6000808314156120a857600090506120c7565b81830290508183828115156120b957fe5b041415156120c357fe5b8090505b92915050565b600081838115156120da57fe5b04905092915050565b600081830190508281101515156120f657fe5b80905092915050565b60008060008573ffffffffffffffffffffffffffffffffffffffff1673ffffffffffffffffffffffffffffffffffffffff16815260200190815260200160002054821115151561214e57600080fd5b600260008573ffffffffffffffffffffffffffffffffffffffff1673ffffffffffffffffffffffffffffffffffffffff16815260200190815260200160002060003373ffffffffffffffffffffffffffffffffffffffff1673ffffffffffffffffffffffffffffffffffffffff1681526020019081526020016000205482111515156121d957600080fd5b600073ffffffffffffffffffffffffffffffffffffffff168373ffffffffffffffffffffffffffffffffffffffff161415151561221557600080fd5b612266826000808773ffffffffffffffffffffffffffffffffffffffff1673ffffffffffffffffffffffffffffffffffffffff168152602001908152602001600020546124ba90919063ffffffff16565b6000808673ffffffffffffffffffffffffffffffffffffffff1673ffffffffffffffffffffffffffffffffffffffff168152602001908152602001600020819055506122f9826000808673ffffffffffffffffffffffffffffffffffffffff1673ffffffffffffffffffffffffffffffffffffffff168152602001908152602001600020546120e390919063ffffffff16565b6000808573ffffffffffffffffffffffffffffffffffffffff1673ffffffffffffffffffffffffffffffffffffffff168152602001908152602001600020819055506123ca82600260008773ffffffffffffffffffffffffffffffffffffffff1673ffffffffffffffffffffffffffffffffffffffff16815260200190815260200160002060003373ffffffffffffffffffffffffffffffffffffffff1673ffffffffffffffffffffffffffffffffffffffff168152602001908152602001600020546124ba90919063ffffffff16565b600260008673ffffffffffffffffffffffffffffffffffffffff1673ffffffffffffffffffffffffffffffffffffffff16815260200190815260200160002060003373ffffffffffffffffffffffffffffffffffffffff1673ffffffffffffffffffffffffffffffffffffffff168152602001908152602001600020819055508273ffffffffffffffffffffffffffffffffffffffff168473ffffffffffffffffffffffffffffffffffffffff167fddf252ad1be2c89b69c2b068fc378daa952ba7f163c4a11628f55a4df523b3ef846040518082815260200191505060405180910390a3600190509392505050565b60008282111515156124c857fe5b818303905092915050565b60008060003373ffffffffffffffffffffffffffffffffffffffff1673ffffffffffffffffffffffffffffffffffffffff16815260200190815260200160002054821115151561252257600080fd5b600073ffffffffffffffffffffffffffffffffffffffff168373ffffffffffffffffffffffffffffffffffffffff161415151561255e57600080fd5b6125af826000803373ffffffffffffffffffffffffffffffffffffffff1673ffffffffffffffffffffffffffffffffffffffff168152602001908152602001600020546124ba90919063ffffffff16565b6000803373ffffffffffffffffffffffffffffffffffffffff1673ffffffffffffffffffffffffffffffffffffffff16815260200190815260200160002081905550612642826000808673ffffffffffffffffffffffffffffffffffffffff1673ffffffffffffffffffffffffffffffffffffffff168152602001908152602001600020546120e390919063ffffffff16565b6000808573ffffffffffffffffffffffffffffffffffffffff1673ffffffffffffffffffffffffffffffffffffffff168152602001908152602001600020819055508273ffffffffffffffffffffffffffffffffffffffff163373ffffffffffffffffffffffffffffffffffffffff167fddf252ad1be2c89b69c2b068fc378daa952ba7f163c4a11628f55a4df523b3ef846040518082815260200191505060405180910390a36001905092915050565b600080600080600093506127e5853073ffffffffffffffffffffffffffffffffffffffff166370a08231896040518263ffffffff167c0100000000000000000000000000000000000000000000000000000000028152600401808273ffffffffffffffffffffffffffffffffffffffff1673ffffffffffffffffffffffffffffffffffffffff168152602001915050602060405180830381600087803b15801561279c57600080fd5b505af11580156127b0573d6000803e3d6000fd5b505050506040513d60208110156127c657600080fd5b81019080805190602001909291905050506120e390919063ffffffff16565b925061288f833073ffffffffffffffffffffffffffffffffffffffff166318160ddd6040518163ffffffff167c0100000000000000000000000000000000000000000000000000000000028152600401602060405180830381600087803b15801561284f57600080fd5b505af1158015612863573d6000803e3d6000fd5b505050506040513d602081101561287957600080fd5b8101908080519060200190929190505050610c61565b91506006548211905080156128b157600560149054906101000a900460ff1693505b5050509392505050565b600073ffffffffffffffffffffffffffffffffffffffff168173ffffffffffffffffffffffffffffffffffffffff16141515156128f757600080fd5b8073ffffffffffffffffffffffffffffffffffffffff16600560009054906101000a900473ffffffffffffffffffffffffffffffffffffffff1673ffffffffffffffffffffffffffffffffffffffff167f8be0079c531659141344cd1fd0a4f28419497f9722a3daafe3b4186f6b6457e060405160405180910390a380600560006101000a81548173ffffffffffffffffffffffffffffffffffffffff021916908373ffffffffffffffffffffffffffffffffffffffff160217905550505600a165627a7a7230582071ecc021b7cb93262f82b51aec8e20152823f1fac8dbf110300979ae1710f15c0029",
  "source": "pragma solidity ^0.4.24;\nimport \"./MaxOwnershipStakeToken.sol\";\n\n/// @title ERC-1404 that limits the ownership stake individual accounts may hold\ncontract IndividualOwnershipStakeToken is MaxOwnershipStakeToken {\n    uint8 public INDIVIDUAL_MAX_OWNERSHIP_STAKE_CODE;\n    mapping(address => bool) public individualAssignedMaxPercentOwnership;\n    mapping(address => uint256) public individualMaxPercentOwnershipByAddress;\n    string public constant INDIVIDUAL_MAX_OWNERSHIP_STAKE_ERROR = \"ILLEGAL_TRANSFER_MAXIMUM_INDIVIDUAL_OWNERSHIP_STAKE_REACHED_FOR_RECIPIENT\";\n\n    event ChangedIndividualMaxOwnershipStake(\n      address indexed individual,\n      uint256 newIndividualMaxPercentOwnershipTimesOneThousand,\n      uint256 oldIndividualMaxPercentOwnershipTimesOneThousand\n    );\n\n    constructor (uint256 globalMaxPercentOwnershipTimesOneThousand)\n        MaxOwnershipStakeToken(globalMaxPercentOwnershipTimesOneThousand)\n        public\n    {\n        INDIVIDUAL_MAX_OWNERSHIP_STAKE_CODE = messagesAndCodes.autoAddMessage(INDIVIDUAL_MAX_OWNERSHIP_STAKE_ERROR);\n    }\n\n    function resetIndividualPercentOwnership (address individual)\n        public\n        onlyOwner\n    {\n        emit ChangedIndividualMaxOwnershipStake(\n            individual,\n            maxPercentOwnershipTimesOneThousand,\n            individualMaxPercentOwnershipByAddress[individual]\n        );\n        individualAssignedMaxPercentOwnership[individual] = false;\n        individualMaxPercentOwnershipByAddress[individual] = 0;\n    }\n\n    function changeIndividualPercentOwnership (\n        address individual,\n        uint256 individualPercentOwnershipTimesOneThousand\n    )\n        public\n        onlyOwner\n    {\n        require(individualPercentOwnershipTimesOneThousand <= 1000, PERCENT_OUT_OF_BOUNDS_ERROR);\n        emit ChangedIndividualMaxOwnershipStake(\n            individual,\n            individualPercentOwnershipTimesOneThousand,\n            individualMaxPercentOwnershipByAddress[individual]\n        );\n        individualAssignedMaxPercentOwnership[individual] = true;\n        individualMaxPercentOwnershipByAddress[individual] = individualPercentOwnershipTimesOneThousand;\n    }\n\n    function detectTransferRestriction (address from, address to, uint256 value)\n        public\n        view\n        returns (uint8 restrictionCode)\n    {\n        restrictionCode = SUCCESS_CODE;\n        // check if individual has been assigned a maximum\n        if (individualAssignedMaxPercentOwnership[to]) {\n            uint256 expectedRecipientBalance = this.balanceOf(to).add(value);\n            uint256 expectedPercentOwnershipTimesOneThousand = calcPercentTimesOneThousand(expectedRecipientBalance, this.totalSupply());\n            uint256 individualMaxPercentOwnership = individualMaxPercentOwnershipByAddress[to];\n            bool exceedsMaxPercentOwnership = expectedPercentOwnershipTimesOneThousand > individualMaxPercentOwnership;\n            if (exceedsMaxPercentOwnership) {\n                restrictionCode = INDIVIDUAL_MAX_OWNERSHIP_STAKE_CODE;\n            }\n        // else default to the global maximum\n        } else {\n            restrictionCode = super.detectTransferRestriction(from, to, value);\n        }\n    }\n}",
  "sourcePath": "/Users/dameongreen/Documents/erc-1440-2/Security-Tokens-and-Stablecoins-Quick-Start-Guide/Chapter06/simple-restricted-token/contracts/examples/ownership-percentage/IndividualOwnershipStakeToken.sol",
  "compiler": {
    "name": "solc",
    "version": "0.4.24+commit.e67f0147.Emscripten.clang"
  },
  "schemaVersion": "3.0.16",
  "updatedAt": "2020-04-12T15:16:49.572Z",
  "devdoc": {
    "methods": {
      "allowance(address,address)": {
        "details": "Function to check the amount of tokens that an owner allowed to a spender.",
        "params": {
          "_owner": "address The address which owns the funds.",
          "_spender": "address The address which will spend the funds."
        },
        "return": "A uint256 specifying the amount of tokens still available for the spender."
      },
      "approve(address,uint256)": {
        "details": "Approve the passed address to spend the specified amount of tokens on behalf of msg.sender. Beware that changing an allowance with this method brings the risk that someone may use both the old and the new allowance by unfortunate transaction ordering. One possible solution to mitigate this race condition is to first reduce the spender's allowance to 0 and set the desired value afterwards: https://github.com/ethereum/EIPs/issues/20#issuecomment-263524729",
        "params": {
          "_spender": "The address which will spend the funds.",
          "_value": "The amount of tokens to be spent."
        }
      },
      "balanceOf(address)": {
        "details": "Gets the balance of the specified address.",
        "params": {
          "_owner": "The address to query the the balance of."
        },
        "return": "An uint256 representing the amount owned by the passed address."
      },
      "decreaseApproval(address,uint256)": {
        "details": "Decrease the amount of tokens that an owner allowed to a spender. approve should be called when allowed[_spender] == 0. To decrement allowed value is better to use this function to avoid 2 calls (and wait until the first transaction is mined) From MonolithDAO Token.sol",
        "params": {
          "_spender": "The address which will spend the funds.",
          "_subtractedValue": "The amount of tokens to decrease the allowance by."
        }
      },
      "increaseApproval(address,uint256)": {
        "details": "Increase the amount of tokens that an owner allowed to a spender. approve should be called when allowed[_spender] == 0. To increment allowed value is better to use this function to avoid 2 calls (and wait until the first transaction is mined) From MonolithDAO Token.sol",
        "params": {
          "_addedValue": "The amount of tokens to increase the allowance by.",
          "_spender": "The address which will spend the funds."
        }
      },
      "renounceOwnership()": {
        "details": "Allows the current owner to relinquish control of the contract."
      },
      "totalSupply()": {
        "details": "Total number of tokens in existence"
      },
      "transferOwnership(address)": {
        "details": "Allows the current owner to transfer control of the contract to a newOwner.",
        "params": {
          "_newOwner": "The address to transfer ownership to."
        }
      }
    },
    "title": "ERC-1404 that limits the ownership stake individual accounts may hold"
  },
  "userdoc": {
    "methods": {
      "renounceOwnership()": {
        "notice": "Renouncing to ownership will leave the contract without an owner. It will not be possible to call the functions with the `onlyOwner` modifier anymore."
      }
    }
  }
}