{
  "contractName": "ManagedWhitelist",
  "abi": [
    {
      "constant": false,
      "inputs": [
        {
          "name": "managerAddress",
          "type": "address"
        }
      ],
      "name": "addManager",
      "outputs": [],
      "payable": false,
      "stateMutability": "nonpayable",
      "type": "function"
    },
    {
      "constant": true,
      "inputs": [
        {
          "name": "",
          "type": "address"
        }
      ],
      "name": "sendAllowed",
      "outputs": [
        {
          "name": "",
          "type": "bool"
        }
      ],
      "payable": false,
      "stateMutability": "view",
      "type": "function"
    },
    {
      "constant": false,
      "inputs": [],
      "name": "renounceOwnership",
      "outputs": [],
      "payable": false,
      "stateMutability": "nonpayable",
      "type": "function"
    },
    {
      "constant": true,
      "inputs": [],
      "name": "owner",
      "outputs": [
        {
          "name": "",
          "type": "address"
        }
      ],
      "payable": false,
      "stateMutability": "view",
      "type": "function"
    },
    {
      "constant": false,
      "inputs": [
        {
          "name": "managerAddress",
          "type": "address"
        }
      ],
      "name": "removeManager",
      "outputs": [],
      "payable": false,
      "stateMutability": "nonpayable",
      "type": "function"
    },
    {
      "constant": true,
      "inputs": [],
      "name": "isManager",
      "outputs": [
        {
          "name": "",
          "type": "bool"
        }
      ],
      "payable": false,
      "stateMutability": "view",
      "type": "function"
    },
    {
      "constant": true,
      "inputs": [
        {
          "name": "",
          "type": "address"
        }
      ],
      "name": "receiveAllowed",
      "outputs": [
        {
          "name": "",
          "type": "bool"
        }
      ],
      "payable": false,
      "stateMutability": "view",
      "type": "function"
    },
    {
      "constant": true,
      "inputs": [
        {
          "name": "managerAddress",
          "type": "address"
        }
      ],
      "name": "checkManagerStatus",
      "outputs": [
        {
          "name": "",
          "type": "bool"
        }
      ],
      "payable": false,
      "stateMutability": "view",
      "type": "function"
    },
    {
      "constant": false,
      "inputs": [
        {
          "name": "_newOwner",
          "type": "address"
        }
      ],
      "name": "transferOwnership",
      "outputs": [],
      "payable": false,
      "stateMutability": "nonpayable",
      "type": "function"
    },
    {
      "constant": true,
      "inputs": [
        {
          "name": "",
          "type": "address"
        }
      ],
      "name": "managers",
      "outputs": [
        {
          "name": "",
          "type": "bool"
        }
      ],
      "payable": false,
      "stateMutability": "view",
      "type": "function"
    },
    {
      "anonymous": false,
      "inputs": [
        {
          "indexed": true,
          "name": "previousOwner",
          "type": "address"
        }
      ],
      "name": "OwnershipRenounced",
      "type": "event"
    },
    {
      "anonymous": false,
      "inputs": [
        {
          "indexed": true,
          "name": "previousOwner",
          "type": "address"
        },
        {
          "indexed": true,
          "name": "newOwner",
          "type": "address"
        }
      ],
      "name": "OwnershipTransferred",
      "type": "event"
    },
    {
      "constant": false,
      "inputs": [
        {
          "name": "operator",
          "type": "address"
        }
      ],
      "name": "addToSendAllowed",
      "outputs": [],
      "payable": false,
      "stateMutability": "nonpayable",
      "type": "function"
    },
    {
      "constant": false,
      "inputs": [
        {
          "name": "operator",
          "type": "address"
        }
      ],
      "name": "addToReceiveAllowed",
      "outputs": [],
      "payable": false,
      "stateMutability": "nonpayable",
      "type": "function"
    },
    {
      "constant": false,
      "inputs": [
        {
          "name": "operator",
          "type": "address"
        }
      ],
      "name": "addToBothSendAndReceiveAllowed",
      "outputs": [],
      "payable": false,
      "stateMutability": "nonpayable",
      "type": "function"
    },
    {
      "constant": false,
      "inputs": [
        {
          "name": "operator",
          "type": "address"
        }
      ],
      "name": "removeFromSendAllowed",
      "outputs": [],
      "payable": false,
      "stateMutability": "nonpayable",
      "type": "function"
    },
    {
      "constant": false,
      "inputs": [
        {
          "name": "operator",
          "type": "address"
        }
      ],
      "name": "removeFromReceiveAllowed",
      "outputs": [],
      "payable": false,
      "stateMutability": "nonpayable",
      "type": "function"
    },
    {
      "constant": false,
      "inputs": [
        {
          "name": "operator",
          "type": "address"
        }
      ],
      "name": "removeFromBothSendAndReceiveAllowed",
      "outputs": [],
      "payable": false,
      "stateMutability": "nonpayable",
      "type": "function"
    }
  ],
  "bytecode": "0x6080604052336000806101000a81548173ffffffffffffffffffffffffffffffffffffffff021916908373ffffffffffffffffffffffffffffffffffffffff1602179055506111a6806100536000396000f3006080604052600436106100e6576000357c0100000000000000000000000000000000000000000000000000000000900463ffffffff1680632583cfef146100eb57806326a5a5541461012e57806327029357146101715780632d06177a146101b45780632f0c92d3146101f75780633639e95514610252578063715018a6146102955780638da5cb5b146102ac578063ac18de4314610303578063c56a3e8814610346578063e00a1e8b14610375578063eff1337c146103b8578063f281e7d114610413578063f2fde38b1461046e578063f8465534146104b1578063fdff9b4d146104f4575b600080fd5b3480156100f757600080fd5b5061012c600480360381019080803573ffffffffffffffffffffffffffffffffffffffff16906020019092919050505061054f565b005b34801561013a57600080fd5b5061016f600480360381019080803573ffffffffffffffffffffffffffffffffffffffff16906020019092919050505061065e565b005b34801561017d57600080fd5b506101b2600480360381019080803573ffffffffffffffffffffffffffffffffffffffff1690602001909291905050506107b3565b005b3480156101c057600080fd5b506101f5600480360381019080803573ffffffffffffffffffffffffffffffffffffffff169060200190929190505050610908565b005b34801561020357600080fd5b50610238600480360381019080803573ffffffffffffffffffffffffffffffffffffffff1690602001909291905050506109bd565b604051808215151515815260200191505060405180910390f35b34801561025e57600080fd5b50610293600480360381019080803573ffffffffffffffffffffffffffffffffffffffff1690602001909291905050506109dd565b005b3480156102a157600080fd5b506102aa610aec565b005b3480156102b857600080fd5b506102c1610bee565b604051808273ffffffffffffffffffffffffffffffffffffffff1673ffffffffffffffffffffffffffffffffffffffff16815260200191505060405180910390f35b34801561030f57600080fd5b50610344600480360381019080803573ffffffffffffffffffffffffffffffffffffffff169060200190929190505050610c13565b005b34801561035257600080fd5b5061035b610cc9565b604051808215151515815260200191505060405180910390f35b34801561038157600080fd5b506103b6600480360381019080803573ffffffffffffffffffffffffffffffffffffffff169060200190929190505050610cd9565b005b3480156103c457600080fd5b506103f9600480360381019080803573ffffffffffffffffffffffffffffffffffffffff169060200190929190505050610e2e565b604051808215151515815260200191505060405180910390f35b34801561041f57600080fd5b50610454600480360381019080803573ffffffffffffffffffffffffffffffffffffffff169060200190929190505050610e4e565b604051808215151515815260200191505060405180910390f35b34801561047a57600080fd5b506104af600480360381019080803573ffffffffffffffffffffffffffffffffffffffff169060200190929190505050610ea4565b005b3480156104bd57600080fd5b506104f2600480360381019080803573ffffffffffffffffffffffffffffffffffffffff169060200190929190505050610f0b565b005b34801561050057600080fd5b50610535600480360381019080803573ffffffffffffffffffffffffffffffffffffffff169060200190929190505050611060565b604051808215151515815260200191505060405180910390f35b61055833610e4e565b806105af57506000809054906101000a900473ffffffffffffffffffffffffffffffffffffffff1673ffffffffffffffffffffffffffffffffffffffff163373ffffffffffffffffffffffffffffffffffffffff16145b1515610649576040517f08c379a000000000000000000000000000000000000000000000000000000000815260040180806020018281038252602f8152602001807f4f6e6c79206d616e6167657273206f72206f776e657273206d6179207065726681526020017f6f726d207468697320616374696f6e000000000000000000000000000000000081525060400191505060405180910390fd5b61065281610f0b565b61065b8161065e565b50565b61066733610e4e565b806106be57506000809054906101000a900473ffffffffffffffffffffffffffffffffffffffff1673ffffffffffffffffffffffffffffffffffffffff163373ffffffffffffffffffffffffffffffffffffffff16145b1515610758576040517f08c379a000000000000000000000000000000000000000000000000000000000815260040180806020018281038252602f8152602001807f4f6e6c79206d616e6167657273206f72206f776e657273206d6179207065726681526020017f6f726d207468697320616374696f6e000000000000000000000000000000000081525060400191505060405180910390fd5b6000600360008373ffffffffffffffffffffffffffffffffffffffff1673ffffffffffffffffffffffffffffffffffffffff16815260200190815260200160002060006101000a81548160ff02191690831515021790555050565b6107bc33610e4e565b8061081357506000809054906101000a900473ffffffffffffffffffffffffffffffffffffffff1673ffffffffffffffffffffffffffffffffffffffff163373ffffffffffffffffffffffffffffffffffffffff16145b15156108ad576040517f08c379a000000000000000000000000000000000000000000000000000000000815260040180806020018281038252602f8152602001807f4f6e6c79206d616e6167657273206f72206f776e657273206d6179207065726681526020017f6f726d207468697320616374696f6e000000000000000000000000000000000081525060400191505060405180910390fd5b6001600360008373ffffffffffffffffffffffffffffffffffffffff1673ffffffffffffffffffffffffffffffffffffffff16815260200190815260200160002060006101000a81548160ff02191690831515021790555050565b6000809054906101000a900473ffffffffffffffffffffffffffffffffffffffff1673ffffffffffffffffffffffffffffffffffffffff163373ffffffffffffffffffffffffffffffffffffffff1614151561096357600080fd5b60018060008373ffffffffffffffffffffffffffffffffffffffff1673ffffffffffffffffffffffffffffffffffffffff16815260200190815260200160002060006101000a81548160ff02191690831515021790555050565b60026020528060005260406000206000915054906101000a900460ff1681565b6109e633610e4e565b80610a3d57506000809054906101000a900473ffffffffffffffffffffffffffffffffffffffff1673ffffffffffffffffffffffffffffffffffffffff163373ffffffffffffffffffffffffffffffffffffffff16145b1515610ad7576040517f08c379a000000000000000000000000000000000000000000000000000000000815260040180806020018281038252602f8152602001807f4f6e6c79206d616e6167657273206f72206f776e657273206d6179207065726681526020017f6f726d207468697320616374696f6e000000000000000000000000000000000081525060400191505060405180910390fd5b610ae081610cd9565b610ae9816107b3565b50565b6000809054906101000a900473ffffffffffffffffffffffffffffffffffffffff1673ffffffffffffffffffffffffffffffffffffffff163373ffffffffffffffffffffffffffffffffffffffff16141515610b4757600080fd5b6000809054906101000a900473ffffffffffffffffffffffffffffffffffffffff1673ffffffffffffffffffffffffffffffffffffffff167ff8df31144d9c2f0f6b59d69b8b98abd5459d07f2742c4df920b25aae33c6482060405160405180910390a260008060006101000a81548173ffffffffffffffffffffffffffffffffffffffff021916908373ffffffffffffffffffffffffffffffffffffffff160217905550565b6000809054906101000a900473ffffffffffffffffffffffffffffffffffffffff1681565b6000809054906101000a900473ffffffffffffffffffffffffffffffffffffffff1673ffffffffffffffffffffffffffffffffffffffff163373ffffffffffffffffffffffffffffffffffffffff16141515610c6e57600080fd5b6000600160008373ffffffffffffffffffffffffffffffffffffffff1673ffffffffffffffffffffffffffffffffffffffff16815260200190815260200160002060006101000a81548160ff02191690831515021790555050565b6000610cd433610e4e565b905090565b610ce233610e4e565b80610d3957506000809054906101000a900473ffffffffffffffffffffffffffffffffffffffff1673ffffffffffffffffffffffffffffffffffffffff163373ffffffffffffffffffffffffffffffffffffffff16145b1515610dd3576040517f08c379a000000000000000000000000000000000000000000000000000000000815260040180806020018281038252602f8152602001807f4f6e6c79206d616e6167657273206f72206f776e657273206d6179207065726681526020017f6f726d207468697320616374696f6e000000000000000000000000000000000081525060400191505060405180910390fd5b6001600260008373ffffffffffffffffffffffffffffffffffffffff1673ffffffffffffffffffffffffffffffffffffffff16815260200190815260200160002060006101000a81548160ff02191690831515021790555050565b60036020528060005260406000206000915054906101000a900460ff1681565b6000600160008373ffffffffffffffffffffffffffffffffffffffff1673ffffffffffffffffffffffffffffffffffffffff16815260200190815260200160002060009054906101000a900460ff169050919050565b6000809054906101000a900473ffffffffffffffffffffffffffffffffffffffff1673ffffffffffffffffffffffffffffffffffffffff163373ffffffffffffffffffffffffffffffffffffffff16141515610eff57600080fd5b610f0881611080565b50565b610f1433610e4e565b80610f6b57506000809054906101000a900473ffffffffffffffffffffffffffffffffffffffff1673ffffffffffffffffffffffffffffffffffffffff163373ffffffffffffffffffffffffffffffffffffffff16145b1515611005576040517f08c379a000000000000000000000000000000000000000000000000000000000815260040180806020018281038252602f8152602001807f4f6e6c79206d616e6167657273206f72206f776e657273206d6179207065726681526020017f6f726d207468697320616374696f6e000000000000000000000000000000000081525060400191505060405180910390fd5b6000600260008373ffffffffffffffffffffffffffffffffffffffff1673ffffffffffffffffffffffffffffffffffffffff16815260200190815260200160002060006101000a81548160ff02191690831515021790555050565b60016020528060005260406000206000915054906101000a900460ff1681565b600073ffffffffffffffffffffffffffffffffffffffff168173ffffffffffffffffffffffffffffffffffffffff16141515156110bc57600080fd5b8073ffffffffffffffffffffffffffffffffffffffff166000809054906101000a900473ffffffffffffffffffffffffffffffffffffffff1673ffffffffffffffffffffffffffffffffffffffff167f8be0079c531659141344cd1fd0a4f28419497f9722a3daafe3b4186f6b6457e060405160405180910390a3806000806101000a81548173ffffffffffffffffffffffffffffffffffffffff021916908373ffffffffffffffffffffffffffffffffffffffff160217905550505600a165627a7a72305820577afd850de66b0a6896ef1ba62e7d4238a2dfe5ef1ab0ffbf086d56cfb54cb30029",
  "source": "pragma solidity ^0.4.24;\nimport \"../../ownership/Managed.sol\";\n\ncontract ManagedWhitelist is Managed {\n    mapping (address => bool) public sendAllowed;\n    mapping (address => bool) public receiveAllowed;\n\n    modifier onlySendAllowed {\n        require(sendAllowed[msg.sender], \"Sender is not whitelisted\");\n        _;\n    }\n\n    modifier onlyReceiveAllowed {\n        require(receiveAllowed[msg.sender], \"Recipient is not whitelisted\");\n        _;\n    }\n\n    function addToSendAllowed (address operator) public onlyManagerOrOwner {\n        sendAllowed[operator] = true;\n    }\n\n    function addToReceiveAllowed (address operator) public onlyManagerOrOwner {\n        receiveAllowed[operator] = true;\n    }\n\n    function addToBothSendAndReceiveAllowed (address operator) public onlyManagerOrOwner {\n        addToSendAllowed(operator);\n        addToReceiveAllowed(operator);\n    }\n\n    function removeFromSendAllowed (address operator) public onlyManagerOrOwner {\n        sendAllowed[operator] = false;\n    }\n\n    function removeFromReceiveAllowed (address operator) public onlyManagerOrOwner {\n        receiveAllowed[operator] = false;\n    }\n\n    function removeFromBothSendAndReceiveAllowed (address operator) public onlyManagerOrOwner {\n        removeFromSendAllowed(operator);\n        removeFromReceiveAllowed(operator);\n    }\n}",
  "sourcePath": "/Users/dameongreen/Documents/erc-1440-2/Security-Tokens-and-Stablecoins-Quick-Start-Guide/Chapter06/simple-restricted-token/contracts/examples/whitelists/ManagedWhitelist.sol",
  "compiler": {
    "name": "solc",
    "version": "0.4.24+commit.e67f0147.Emscripten.clang"
  },
  "schemaVersion": "3.0.16",
  "updatedAt": "2020-04-12T15:16:49.585Z",
  "devdoc": {
    "methods": {
      "renounceOwnership()": {
        "details": "Allows the current owner to relinquish control of the contract."
      },
      "transferOwnership(address)": {
        "details": "Allows the current owner to transfer control of the contract to a newOwner.",
        "params": {
          "_newOwner": "The address to transfer ownership to."
        }
      }
    }
  },
  "userdoc": {
    "methods": {
      "renounceOwnership()": {
        "notice": "Renouncing to ownership will leave the contract without an owner. It will not be possible to call the functions with the `onlyOwner` modifier anymore."
      }
    }
  }
}