{
  "contractName": "MaxNumShareholdersToken",
  "abi": [
    {
      "constant": true,
      "inputs": [],
      "name": "MAX_NUM_SHAREHOLDERS_CODE",
      "outputs": [
        {
          "name": "",
          "type": "uint8"
        }
      ],
      "payable": false,
      "stateMutability": "view",
      "type": "function"
    },
    {
      "constant": false,
      "inputs": [
        {
          "name": "_spender",
          "type": "address"
        },
        {
          "name": "_value",
          "type": "uint256"
        }
      ],
      "name": "approve",
      "outputs": [
        {
          "name": "",
          "type": "bool"
        }
      ],
      "payable": false,
      "stateMutability": "nonpayable",
      "type": "function"
    },
    {
      "constant": true,
      "inputs": [],
      "name": "SUCCESS_CODE",
      "outputs": [
        {
          "name": "",
          "type": "uint8"
        }
      ],
      "payable": false,
      "stateMutability": "view",
      "type": "function"
    },
    {
      "constant": true,
      "inputs": [],
      "name": "MAX_NUM_SHAREHOLDERS_ERROR",
      "outputs": [
        {
          "name": "",
          "type": "string"
        }
      ],
      "payable": false,
      "stateMutability": "view",
      "type": "function"
    },
    {
      "constant": true,
      "inputs": [],
      "name": "totalSupply",
      "outputs": [
        {
          "name": "",
          "type": "uint256"
        }
      ],
      "payable": false,
      "stateMutability": "view",
      "type": "function"
    },
    {
      "constant": true,
      "inputs": [],
      "name": "maxNumShareholders",
      "outputs": [
        {
          "name": "",
          "type": "uint256"
        }
      ],
      "payable": false,
      "stateMutability": "view",
      "type": "function"
    },
    {
      "constant": false,
      "inputs": [
        {
          "name": "_spender",
          "type": "address"
        },
        {
          "name": "_subtractedValue",
          "type": "uint256"
        }
      ],
      "name": "decreaseApproval",
      "outputs": [
        {
          "name": "",
          "type": "bool"
        }
      ],
      "payable": false,
      "stateMutability": "nonpayable",
      "type": "function"
    },
    {
      "constant": true,
      "inputs": [],
      "name": "numShareholders",
      "outputs": [
        {
          "name": "",
          "type": "uint256"
        }
      ],
      "payable": false,
      "stateMutability": "view",
      "type": "function"
    },
    {
      "constant": true,
      "inputs": [
        {
          "name": "_owner",
          "type": "address"
        }
      ],
      "name": "balanceOf",
      "outputs": [
        {
          "name": "",
          "type": "uint256"
        }
      ],
      "payable": false,
      "stateMutability": "view",
      "type": "function"
    },
    {
      "constant": false,
      "inputs": [],
      "name": "renounceOwnership",
      "outputs": [],
      "payable": false,
      "stateMutability": "nonpayable",
      "type": "function"
    },
    {
      "constant": true,
      "inputs": [
        {
          "name": "restrictionCode",
          "type": "uint8"
        }
      ],
      "name": "messageForTransferRestriction",
      "outputs": [
        {
          "name": "message",
          "type": "string"
        }
      ],
      "payable": false,
      "stateMutability": "view",
      "type": "function"
    },
    {
      "constant": true,
      "inputs": [],
      "name": "owner",
      "outputs": [
        {
          "name": "",
          "type": "address"
        }
      ],
      "payable": false,
      "stateMutability": "view",
      "type": "function"
    },
    {
      "constant": true,
      "inputs": [],
      "name": "NEW_MAX_NUM_SHAREHOLDERS_ERROR",
      "outputs": [
        {
          "name": "",
          "type": "string"
        }
      ],
      "payable": false,
      "stateMutability": "view",
      "type": "function"
    },
    {
      "constant": true,
      "inputs": [
        {
          "name": "",
          "type": "address"
        }
      ],
      "name": "isShareholder",
      "outputs": [
        {
          "name": "",
          "type": "bool"
        }
      ],
      "payable": false,
      "stateMutability": "view",
      "type": "function"
    },
    {
      "constant": false,
      "inputs": [
        {
          "name": "_spender",
          "type": "address"
        },
        {
          "name": "_addedValue",
          "type": "uint256"
        }
      ],
      "name": "increaseApproval",
      "outputs": [
        {
          "name": "",
          "type": "bool"
        }
      ],
      "payable": false,
      "stateMutability": "nonpayable",
      "type": "function"
    },
    {
      "constant": true,
      "inputs": [
        {
          "name": "_owner",
          "type": "address"
        },
        {
          "name": "_spender",
          "type": "address"
        }
      ],
      "name": "allowance",
      "outputs": [
        {
          "name": "",
          "type": "uint256"
        }
      ],
      "payable": false,
      "stateMutability": "view",
      "type": "function"
    },
    {
      "constant": true,
      "inputs": [],
      "name": "SUCCESS_MESSAGE",
      "outputs": [
        {
          "name": "",
          "type": "string"
        }
      ],
      "payable": false,
      "stateMutability": "view",
      "type": "function"
    },
    {
      "constant": false,
      "inputs": [
        {
          "name": "_newOwner",
          "type": "address"
        }
      ],
      "name": "transferOwnership",
      "outputs": [],
      "payable": false,
      "stateMutability": "nonpayable",
      "type": "function"
    },
    {
      "inputs": [
        {
          "name": "_maxNumShareholders",
          "type": "uint256"
        }
      ],
      "payable": false,
      "stateMutability": "nonpayable",
      "type": "constructor"
    },
    {
      "anonymous": false,
      "inputs": [
        {
          "indexed": true,
          "name": "shareholder",
          "type": "address"
        }
      ],
      "name": "ShareholderAdded",
      "type": "event"
    },
    {
      "anonymous": false,
      "inputs": [
        {
          "indexed": true,
          "name": "newShareholder",
          "type": "address"
        },
        {
          "indexed": true,
          "name": "prevShareholder",
          "type": "address"
        }
      ],
      "name": "ShareholderReplaced",
      "type": "event"
    },
    {
      "anonymous": false,
      "inputs": [
        {
          "indexed": false,
          "name": "newMaxNumShareholders",
          "type": "uint256"
        },
        {
          "indexed": false,
          "name": "prevMaxNumShareholders",
          "type": "uint256"
        }
      ],
      "name": "ChangedMaxNumShareholders",
      "type": "event"
    },
    {
      "anonymous": false,
      "inputs": [
        {
          "indexed": true,
          "name": "owner",
          "type": "address"
        },
        {
          "indexed": true,
          "name": "spender",
          "type": "address"
        },
        {
          "indexed": false,
          "name": "value",
          "type": "uint256"
        }
      ],
      "name": "Approval",
      "type": "event"
    },
    {
      "anonymous": false,
      "inputs": [
        {
          "indexed": true,
          "name": "from",
          "type": "address"
        },
        {
          "indexed": true,
          "name": "to",
          "type": "address"
        },
        {
          "indexed": false,
          "name": "value",
          "type": "uint256"
        }
      ],
      "name": "Transfer",
      "type": "event"
    },
    {
      "anonymous": false,
      "inputs": [
        {
          "indexed": true,
          "name": "previousOwner",
          "type": "address"
        }
      ],
      "name": "OwnershipRenounced",
      "type": "event"
    },
    {
      "anonymous": false,
      "inputs": [
        {
          "indexed": true,
          "name": "previousOwner",
          "type": "address"
        },
        {
          "indexed": true,
          "name": "newOwner",
          "type": "address"
        }
      ],
      "name": "OwnershipTransferred",
      "type": "event"
    },
    {
      "constant": false,
      "inputs": [
        {
          "name": "_maxNumShareholders",
          "type": "uint256"
        }
      ],
      "name": "changeMaxNumShareholders",
      "outputs": [],
      "payable": false,
      "stateMutability": "nonpayable",
      "type": "function"
    },
    {
      "constant": true,
      "inputs": [
        {
          "name": "from",
          "type": "address"
        },
        {
          "name": "to",
          "type": "address"
        },
        {
          "name": "value",
          "type": "uint256"
        }
      ],
      "name": "detectTransferRestriction",
      "outputs": [
        {
          "name": "restrictionCode",
          "type": "uint8"
        }
      ],
      "payable": false,
      "stateMutability": "view",
      "type": "function"
    },
    {
      "constant": false,
      "inputs": [
        {
          "name": "to",
          "type": "address"
        },
        {
          "name": "value",
          "type": "uint256"
        }
      ],
      "name": "transfer",
      "outputs": [
        {
          "name": "",
          "type": "bool"
        }
      ],
      "payable": false,
      "stateMutability": "nonpayable",
      "type": "function"
    },
    {
      "constant": false,
      "inputs": [
        {
          "name": "from",
          "type": "address"
        },
        {
          "name": "to",
          "type": "address"
        },
        {
          "name": "value",
          "type": "uint256"
        }
      ],
      "name": "transferFrom",
      "outputs": [
        {
          "name": "",
          "type": "bool"
        }
      ],
      "payable": false,
      "stateMutability": "nonpayable",
      "type": "function"
    }
  ],
  "bytecode": "0x608060405260006006553480156200001657600080fd5b506040516020806200279e83398101806040528101908080519060200190929190505050336000806101000a81548173ffffffffffffffffffffffffffffffffffffffff021916908373ffffffffffffffffffffffffffffffffffffffff160217905550600473__MessagesAndCodes______________________636ef3054c909160006040805190810160405280600781526020017f53554343455353000000000000000000000000000000000000000000000000008152506040518463ffffffff167c0100000000000000000000000000000000000000000000000000000000028152600401808481526020018360ff1660ff16815260200180602001828103825283818151815260200191508051906020019080838360005b838110156200014f57808201518184015260208101905062000132565b50505050905090810190601f1680156200017d5780820380516001836020036101000a031916815260200191505b5094505050505060206040518083038186803b1580156200019d57600080fd5b505af4158015620001b2573d6000803e3d6000fd5b505050506040513d6020811015620001c957600080fd5b81019080805190602001909291905050505080600781905550600473__MessagesAndCodes______________________63ef0067949091606060405190810160405280603781526020017f494c4c4547414c5f5452414e534645525f4d4158494d554d5f4e554d4245525f81526020017f4f465f5348415245484f4c444552535f524541434845440000000000000000008152506040518363ffffffff167c01000000000000000000000000000000000000000000000000000000000281526004018083815260200180602001828103825283818151815260200191508051906020019080838360005b83811015620002d0578082015181840152602081019050620002b3565b50505050905090810190601f168015620002fe5780820380516001836020036101000a031916815260200191505b50935050505060206040518083038186803b1580156200031d57600080fd5b505af415801562000332573d6000803e3d6000fd5b505050506040513d60208110156200034957600080fd5b8101908080519060200190929190505050600860006101000a81548160ff021916908360ff1602179055505061241980620003856000396000f300608060405260043610610127576000357c0100000000000000000000000000000000000000000000000000000000900463ffffffff1680627c064f1461012c578063095ea7b31461015d5780630e969a05146101c2578063112c1818146101f357806318160ddd146102835780631b392b79146102ae57806323b872dd146102db57806332fd9e2514610360578063661884631461038b57806368eca613146103f057806370a082311461041b578063715018a6146104725780637f4ab1dd146104895780638da5cb5b14610532578063a9059cbb14610589578063aa2c264b146105ee578063b89a73cb1461067e578063d4ce1415146106d9578063d73dd62314610760578063dd62ed3e146107c5578063e7984d171461083c578063f2fde38b146108cc575b600080fd5b34801561013857600080fd5b5061014161090f565b604051808260ff1660ff16815260200191505060405180910390f35b34801561016957600080fd5b506101a8600480360381019080803573ffffffffffffffffffffffffffffffffffffffff16906020019092919080359060200190929190505050610922565b604051808215151515815260200191505060405180910390f35b3480156101ce57600080fd5b506101d7610a14565b604051808260ff1660ff16815260200191505060405180910390f35b3480156101ff57600080fd5b50610208610a19565b6040518080602001828103825283818151815260200191508051906020019080838360005b8381101561024857808201518184015260208101905061022d565b50505050905090810190601f1680156102755780820380516001836020036101000a031916815260200191505b509250505060405180910390f35b34801561028f57600080fd5b50610298610a79565b6040518082815260200191505060405180910390f35b3480156102ba57600080fd5b506102d960048036038101908080359060200190929190505050610a83565b005b3480156102e757600080fd5b50610346600480360381019080803573ffffffffffffffffffffffffffffffffffffffff169060200190929190803573ffffffffffffffffffffffffffffffffffffffff16906020019092919080359060200190929190505050610c5b565b604051808215151515815260200191505060405180910390f35b34801561036c57600080fd5b50610375610c7c565b6040518082815260200191505060405180910390f35b34801561039757600080fd5b506103d6600480360381019080803573ffffffffffffffffffffffffffffffffffffffff16906020019092919080359060200190929190505050610c82565b604051808215151515815260200191505060405180910390f35b3480156103fc57600080fd5b50610405610f14565b6040518082815260200191505060405180910390f35b34801561042757600080fd5b5061045c600480360381019080803573ffffffffffffffffffffffffffffffffffffffff169060200190929190505050610f1a565b6040518082815260200191505060405180910390f35b34801561047e57600080fd5b50610487610f63565b005b34801561049557600080fd5b506104b7600480360381019080803560ff169060200190929190505050611065565b6040518080602001828103825283818151815260200191508051906020019080838360005b838110156104f75780820151818401526020810190506104dc565b50505050905090810190601f1680156105245780820380516001836020036101000a031916815260200191505b509250505060405180910390f35b34801561053e57600080fd5b50610547611123565b604051808273ffffffffffffffffffffffffffffffffffffffff1673ffffffffffffffffffffffffffffffffffffffff16815260200191505060405180910390f35b34801561059557600080fd5b506105d4600480360381019080803573ffffffffffffffffffffffffffffffffffffffff16906020019092919080359060200190929190505050611148565b604051808215151515815260200191505060405180910390f35b3480156105fa57600080fd5b50610603611167565b6040518080602001828103825283818151815260200191508051906020019080838360005b83811015610643578082015181840152602081019050610628565b50505050905090810190601f1680156106705780820380516001836020036101000a031916815260200191505b509250505060405180910390f35b34801561068a57600080fd5b506106bf600480360381019080803573ffffffffffffffffffffffffffffffffffffffff1690602001909291905050506111ed565b604051808215151515815260200191505060405180910390f35b3480156106e557600080fd5b50610744600480360381019080803573ffffffffffffffffffffffffffffffffffffffff169060200190929190803573ffffffffffffffffffffffffffffffffffffffff1690602001909291908035906020019092919050505061120d565b604051808260ff1660ff16815260200191505060405180910390f35b34801561076c57600080fd5b506107ab600480360381019080803573ffffffffffffffffffffffffffffffffffffffff16906020019092919080359060200190929190505050611246565b604051808215151515815260200191505060405180910390f35b3480156107d157600080fd5b50610826600480360381019080803573ffffffffffffffffffffffffffffffffffffffff169060200190929190803573ffffffffffffffffffffffffffffffffffffffff169060200190929190505050611442565b6040518082815260200191505060405180910390f35b34801561084857600080fd5b506108516114c9565b6040518080602001828103825283818151815260200191508051906020019080838360005b83811015610891578082015181840152602081019050610876565b50505050905090810190601f1680156108be5780820380516001836020036101000a031916815260200191505b509250505060405180910390f35b3480156108d857600080fd5b5061090d600480360381019080803573ffffffffffffffffffffffffffffffffffffffff169060200190929190505050611502565b005b600860009054906101000a900460ff1681565b600081600360003373ffffffffffffffffffffffffffffffffffffffff1673ffffffffffffffffffffffffffffffffffffffff16815260200190815260200160002060008573ffffffffffffffffffffffffffffffffffffffff1673ffffffffffffffffffffffffffffffffffffffff168152602001908152602001600020819055508273ffffffffffffffffffffffffffffffffffffffff163373ffffffffffffffffffffffffffffffffffffffff167f8c5be1e5ebec7d5bd14f71427d1e84f3dd0314c0f7b2291e5b200ac8c7c3b925846040518082815260200191505060405180910390a36001905092915050565b600081565b606060405190810160405280603781526020017f494c4c4547414c5f5452414e534645525f4d4158494d554d5f4e554d4245525f81526020017f4f465f5348415245484f4c444552535f5245414348454400000000000000000081525081565b6000600254905090565b6000809054906101000a900473ffffffffffffffffffffffffffffffffffffffff1673ffffffffffffffffffffffffffffffffffffffff163373ffffffffffffffffffffffffffffffffffffffff16141515610ade57600080fd5b600654811015608060405190810160405280604e81526020017f4e6577206d6178206e756d626572206f66207368617265686f6c64657220616381526020017f636f756e7473206d7573742062652067726561746572207468616e207468652081526020017f63757272656e7420616d6f756e74000000000000000000000000000000000000815250901515610c0f576040517f08c379a00000000000000000000000000000000000000000000000000000000081526004018080602001828103825283818151815260200191508051906020019080838360005b83811015610bd4578082015181840152602081019050610bb9565b50505050905090810190601f168015610c015780820380516001836020036101000a031916815260200191505b509250505060405180910390fd5b507fdc59e5dc888daf257524dfe166aa2b249578d69845debbf7e65853131f60171981600754604051808381526020018281526020019250505060405180910390a18060078190555050565b6000610c68848484611569565b610c73848484611936565b90509392505050565b60075481565b600080600360003373ffffffffffffffffffffffffffffffffffffffff1673ffffffffffffffffffffffffffffffffffffffff16815260200190815260200160002060008573ffffffffffffffffffffffffffffffffffffffff1673ffffffffffffffffffffffffffffffffffffffff1681526020019081526020016000205490508083101515610d94576000600360003373ffffffffffffffffffffffffffffffffffffffff1673ffffffffffffffffffffffffffffffffffffffff16815260200190815260200160002060008673ffffffffffffffffffffffffffffffffffffffff1673ffffffffffffffffffffffffffffffffffffffff16815260200190815260200160002081905550610e28565b610da78382611a1e90919063ffffffff16565b600360003373ffffffffffffffffffffffffffffffffffffffff1673ffffffffffffffffffffffffffffffffffffffff16815260200190815260200160002060008673ffffffffffffffffffffffffffffffffffffffff1673ffffffffffffffffffffffffffffffffffffffff168152602001908152602001600020819055505b8373ffffffffffffffffffffffffffffffffffffffff163373ffffffffffffffffffffffffffffffffffffffff167f8c5be1e5ebec7d5bd14f71427d1e84f3dd0314c0f7b2291e5b200ac8c7c3b925600360003373ffffffffffffffffffffffffffffffffffffffff1673ffffffffffffffffffffffffffffffffffffffff16815260200190815260200160002060008873ffffffffffffffffffffffffffffffffffffffff1673ffffffffffffffffffffffffffffffffffffffff168152602001908152602001600020546040518082815260200191505060405180910390a3600191505092915050565b60065481565b6000600160008373ffffffffffffffffffffffffffffffffffffffff1673ffffffffffffffffffffffffffffffffffffffff168152602001908152602001600020549050919050565b6000809054906101000a900473ffffffffffffffffffffffffffffffffffffffff1673ffffffffffffffffffffffffffffffffffffffff163373ffffffffffffffffffffffffffffffffffffffff16141515610fbe57600080fd5b6000809054906101000a900473ffffffffffffffffffffffffffffffffffffffff1673ffffffffffffffffffffffffffffffffffffffff167ff8df31144d9c2f0f6b59d69b8b98abd5459d07f2742c4df920b25aae33c6482060405160405180910390a260008060006101000a81548173ffffffffffffffffffffffffffffffffffffffff021916908373ffffffffffffffffffffffffffffffffffffffff160217905550565b6060600460000160008360ff1660ff1681526020019081526020016000208054600181600116156101000203166002900480601f0160208091040260200160405190810160405280929190818152602001828054600181600116156101000203166002900480156111175780601f106110ec57610100808354040283529160200191611117565b820191906000526020600020905b8154815290600101906020018083116110fa57829003601f168201915b50505050509050919050565b6000809054906101000a900473ffffffffffffffffffffffffffffffffffffffff1681565b6000611155338484611569565b61115f8383611a37565b905092915050565b608060405190810160405280604e81526020017f4e6577206d6178206e756d626572206f66207368617265686f6c64657220616381526020017f636f756e7473206d7573742062652067726561746572207468616e207468652081526020017f63757272656e7420616d6f756e7400000000000000000000000000000000000081525081565b60096020528060005260406000206000915054906101000a900460ff1681565b60008060009150600754611222868686611b1d565b119050801561123e57600860009054906101000a900460ff1691505b509392505050565b60006112d782600360003373ffffffffffffffffffffffffffffffffffffffff1673ffffffffffffffffffffffffffffffffffffffff16815260200190815260200160002060008673ffffffffffffffffffffffffffffffffffffffff1673ffffffffffffffffffffffffffffffffffffffff16815260200190815260200160002054611cf290919063ffffffff16565b600360003373ffffffffffffffffffffffffffffffffffffffff1673ffffffffffffffffffffffffffffffffffffffff16815260200190815260200160002060008573ffffffffffffffffffffffffffffffffffffffff1673ffffffffffffffffffffffffffffffffffffffff168152602001908152602001600020819055508273ffffffffffffffffffffffffffffffffffffffff163373ffffffffffffffffffffffffffffffffffffffff167f8c5be1e5ebec7d5bd14f71427d1e84f3dd0314c0f7b2291e5b200ac8c7c3b925600360003373ffffffffffffffffffffffffffffffffffffffff1673ffffffffffffffffffffffffffffffffffffffff16815260200190815260200160002060008773ffffffffffffffffffffffffffffffffffffffff1673ffffffffffffffffffffffffffffffffffffffff168152602001908152602001600020546040518082815260200191505060405180910390a36001905092915050565b6000600360008473ffffffffffffffffffffffffffffffffffffffff1673ffffffffffffffffffffffffffffffffffffffff16815260200190815260200160002060008373ffffffffffffffffffffffffffffffffffffffff1673ffffffffffffffffffffffffffffffffffffffff16815260200190815260200160002054905092915050565b6040805190810160405280600781526020017f535543434553530000000000000000000000000000000000000000000000000081525081565b6000809054906101000a900473ffffffffffffffffffffffffffffffffffffffff1673ffffffffffffffffffffffffffffffffffffffff163373ffffffffffffffffffffffffffffffffffffffff1614151561155d57600080fd5b61156681611d0e565b50565b6000806000600960008673ffffffffffffffffffffffffffffffffffffffff1673ffffffffffffffffffffffffffffffffffffffff16815260200190815260200160002060009054906101000a900460ff161592506000843073ffffffffffffffffffffffffffffffffffffffff166370a08231896040518263ffffffff167c0100000000000000000000000000000000000000000000000000000000028152600401808273ffffffffffffffffffffffffffffffffffffffff1673ffffffffffffffffffffffffffffffffffffffff168152602001915050602060405180830381600087803b15801561165c57600080fd5b505af1158015611670573d6000803e3d6000fd5b505050506040513d602081101561168657600080fd5b810190808051906020019092919050505003149150600960008773ffffffffffffffffffffffffffffffffffffffff1673ffffffffffffffffffffffffffffffffffffffff16815260200190815260200160002060009054906101000a900460ff161580156116f3575081155b905082156117a9576006600081548092919060010191905055506001600960008773ffffffffffffffffffffffffffffffffffffffff1673ffffffffffffffffffffffffffffffffffffffff16815260200190815260200160002060006101000a81548160ff0219169083151502179055508473ffffffffffffffffffffffffffffffffffffffff167f3082c1c4977de80c4f67ee77b56b282610ec93a7ecbcc31b551e0ac2f7bd039560405160405180910390a25b8015611861576006600081548092919060010191905055506001600960008873ffffffffffffffffffffffffffffffffffffffff1673ffffffffffffffffffffffffffffffffffffffff16815260200190815260200160002060006101000a81548160ff0219169083151502179055508573ffffffffffffffffffffffffffffffffffffffff167f3082c1c4977de80c4f67ee77b56b282610ec93a7ecbcc31b551e0ac2f7bd039560405160405180910390a261192e565b811561192d57600660008154809291906001900391905055506000600960008873ffffffffffffffffffffffffffffffffffffffff1673ffffffffffffffffffffffffffffffffffffffff16815260200190815260200160002060006101000a81548160ff0219169083151502179055508573ffffffffffffffffffffffffffffffffffffffff168573ffffffffffffffffffffffffffffffffffffffff167fb073f454ab920177291bf57858d537020227c1ee1bc9d147f4e892b2cb3c191c60405160405180910390a35b5b505050505050565b6000838383600061194884848461120d565b9050600060ff168160ff161461195d82611065565b901515611a05576040517f08c379a00000000000000000000000000000000000000000000000000000000081526004018080602001828103825283818151815260200191508051906020019080838360005b838110156119ca5780820151818401526020810190506119af565b50505050905090810190601f1680156119f75780820380516001836020036101000a031916815260200191505b509250505060405180910390fd5b50611a11888888611e08565b9450505050509392505050565b6000828211151515611a2c57fe5b818303905092915050565b60003383836000611a4984848461120d565b9050600060ff168160ff1614611a5e82611065565b901515611b06576040517f08c379a00000000000000000000000000000000000000000000000000000000081526004018080602001828103825283818151815260200191508051906020019080838360005b83811015611acb578082015181840152602081019050611ab0565b50505050905090810190601f168015611af85780820380516001836020036101000a031916815260200191505b509250505060405180910390fd5b50611b1187876121c8565b94505050505092915050565b6000806000806000600960008873ffffffffffffffffffffffffffffffffffffffff1673ffffffffffffffffffffffffffffffffffffffff16815260200190815260200160002060009054906101000a900460ff161593506000863073ffffffffffffffffffffffffffffffffffffffff166370a082318b6040518263ffffffff167c0100000000000000000000000000000000000000000000000000000000028152600401808273ffffffffffffffffffffffffffffffffffffffff1673ffffffffffffffffffffffffffffffffffffffff168152602001915050602060405180830381600087803b158015611c1357600080fd5b505af1158015611c27573d6000803e3d6000fd5b505050506040513d6020811015611c3d57600080fd5b810190808051906020019092919050505003149250600960008973ffffffffffffffffffffffffffffffffffffffff1673ffffffffffffffffffffffffffffffffffffffff16815260200190815260200160002060009054906101000a900460ff16158015611caa575082155b915060065490508315611cc05780806001019150505b8115611cd3578080600101915050611ce4565b8215611ce3578080600190039150505b5b809450505050509392505050565b60008183019050828110151515611d0557fe5b80905092915050565b600073ffffffffffffffffffffffffffffffffffffffff168173ffffffffffffffffffffffffffffffffffffffff1614151515611d4a57600080fd5b8073ffffffffffffffffffffffffffffffffffffffff166000809054906101000a900473ffffffffffffffffffffffffffffffffffffffff1673ffffffffffffffffffffffffffffffffffffffff167f8be0079c531659141344cd1fd0a4f28419497f9722a3daafe3b4186f6b6457e060405160405180910390a3806000806101000a81548173ffffffffffffffffffffffffffffffffffffffff021916908373ffffffffffffffffffffffffffffffffffffffff16021790555050565b6000600160008573ffffffffffffffffffffffffffffffffffffffff1673ffffffffffffffffffffffffffffffffffffffff168152602001908152602001600020548211151515611e5857600080fd5b600360008573ffffffffffffffffffffffffffffffffffffffff1673ffffffffffffffffffffffffffffffffffffffff16815260200190815260200160002060003373ffffffffffffffffffffffffffffffffffffffff1673ffffffffffffffffffffffffffffffffffffffff168152602001908152602001600020548211151515611ee357600080fd5b600073ffffffffffffffffffffffffffffffffffffffff168373ffffffffffffffffffffffffffffffffffffffff1614151515611f1f57600080fd5b611f7182600160008773ffffffffffffffffffffffffffffffffffffffff1673ffffffffffffffffffffffffffffffffffffffff16815260200190815260200160002054611a1e90919063ffffffff16565b600160008673ffffffffffffffffffffffffffffffffffffffff1673ffffffffffffffffffffffffffffffffffffffff1681526020019081526020016000208190555061200682600160008673ffffffffffffffffffffffffffffffffffffffff1673ffffffffffffffffffffffffffffffffffffffff16815260200190815260200160002054611cf290919063ffffffff16565b600160008573ffffffffffffffffffffffffffffffffffffffff1673ffffffffffffffffffffffffffffffffffffffff168152602001908152602001600020819055506120d882600360008773ffffffffffffffffffffffffffffffffffffffff1673ffffffffffffffffffffffffffffffffffffffff16815260200190815260200160002060003373ffffffffffffffffffffffffffffffffffffffff1673ffffffffffffffffffffffffffffffffffffffff16815260200190815260200160002054611a1e90919063ffffffff16565b600360008673ffffffffffffffffffffffffffffffffffffffff1673ffffffffffffffffffffffffffffffffffffffff16815260200190815260200160002060003373ffffffffffffffffffffffffffffffffffffffff1673ffffffffffffffffffffffffffffffffffffffff168152602001908152602001600020819055508273ffffffffffffffffffffffffffffffffffffffff168473ffffffffffffffffffffffffffffffffffffffff167fddf252ad1be2c89b69c2b068fc378daa952ba7f163c4a11628f55a4df523b3ef846040518082815260200191505060405180910390a3600190509392505050565b6000600160003373ffffffffffffffffffffffffffffffffffffffff1673ffffffffffffffffffffffffffffffffffffffff16815260200190815260200160002054821115151561221857600080fd5b600073ffffffffffffffffffffffffffffffffffffffff168373ffffffffffffffffffffffffffffffffffffffff161415151561225457600080fd5b6122a682600160003373ffffffffffffffffffffffffffffffffffffffff1673ffffffffffffffffffffffffffffffffffffffff16815260200190815260200160002054611a1e90919063ffffffff16565b600160003373ffffffffffffffffffffffffffffffffffffffff1673ffffffffffffffffffffffffffffffffffffffff1681526020019081526020016000208190555061233b82600160008673ffffffffffffffffffffffffffffffffffffffff1673ffffffffffffffffffffffffffffffffffffffff16815260200190815260200160002054611cf290919063ffffffff16565b600160008573ffffffffffffffffffffffffffffffffffffffff1673ffffffffffffffffffffffffffffffffffffffff168152602001908152602001600020819055508273ffffffffffffffffffffffffffffffffffffffff163373ffffffffffffffffffffffffffffffffffffffff167fddf252ad1be2c89b69c2b068fc378daa952ba7f163c4a11628f55a4df523b3ef846040518082815260200191505060405180910390a360019050929150505600a165627a7a723058203383363b9e164aa76b254928e985576dcfa3f113074557fd828ef94660eb6e710029",
  "source": "pragma solidity ^0.4.24;\nimport \"../../token/ERC1404/MessagedERC1404.sol\";\nimport \"zeppelin-solidity/contracts/ownership/Ownable.sol\";\n\n/// @title ERC-1404 that limits the number of accounts to hold a token balance\ncontract MaxNumShareholdersToken is Ownable, MessagedERC1404 {\n    uint256 public numShareholders = 0;\n    uint256 public maxNumShareholders;\n    uint8 public MAX_NUM_SHAREHOLDERS_CODE;\n    string public constant MAX_NUM_SHAREHOLDERS_ERROR = \"ILLEGAL_TRANSFER_MAXIMUM_NUMBER_OF_SHAREHOLDERS_REACHED\";\n    string public constant NEW_MAX_NUM_SHAREHOLDERS_ERROR = \"New max number of shareholder accounts must be greater than the current amount\";\n    mapping(address => bool) public isShareholder;\n\n    event ShareholderAdded(address indexed shareholder);\n    event ShareholderReplaced(address indexed newShareholder, address indexed prevShareholder);\n    event ChangedMaxNumShareholders(uint256 newMaxNumShareholders, uint256 prevMaxNumShareholders);\n\n    constructor (uint256 _maxNumShareholders) public {\n        maxNumShareholders = _maxNumShareholders;\n        MAX_NUM_SHAREHOLDERS_CODE = messagesAndCodes.autoAddMessage(MAX_NUM_SHAREHOLDERS_ERROR);\n    }\n\n    function changeMaxNumShareholders (uint256 _maxNumShareholders)\n        public\n        onlyOwner\n    {\n        require(_maxNumShareholders >= numShareholders, NEW_MAX_NUM_SHAREHOLDERS_ERROR);\n        emit ChangedMaxNumShareholders(_maxNumShareholders, maxNumShareholders);\n        maxNumShareholders = _maxNumShareholders;\n    }\n\n    function detectTransferRestriction (address from, address to, uint256 value)\n        public\n        view\n        returns (uint8 restrictionCode)\n    {\n        restrictionCode = SUCCESS_CODE;\n\n        bool exceedsMaxShareholders = calcNextNumShareholders(from, to, value) > maxNumShareholders;\n        if (exceedsMaxShareholders) {\n            restrictionCode = MAX_NUM_SHAREHOLDERS_CODE;\n        }\n    }\n\n    function calcNextNumShareholders (address from, address to, uint256 value)\n        internal\n        view\n        returns (uint256)\n    {\n        bool shareholderNotRecorded = !isShareholder[to];\n        bool shareholderReplaced = (this.balanceOf(from) - value) == 0;\n        bool senderNotRecorded = !isShareholder[from] && !shareholderReplaced;\n        uint256 nextNumShareholders = numShareholders;\n\n        if (shareholderNotRecorded) {\n            nextNumShareholders++;\n        }\n        if (senderNotRecorded) {\n            nextNumShareholders++;\n        } else if (shareholderReplaced) {\n            nextNumShareholders--;\n        }\n\n        return nextNumShareholders;\n    }\n\n    function recordShareholders (address from, address to, uint256 value)\n        internal\n    {\n        bool shareholderNotRecorded = !isShareholder[to];\n        bool shareholderReplaced = (this.balanceOf(from) - value) == 0;\n        bool senderNotRecorded = !isShareholder[from] && !shareholderReplaced;\n\n        if (shareholderNotRecorded) {\n            numShareholders++;\n            isShareholder[to] = true;\n            emit ShareholderAdded(to);\n        }\n        if (senderNotRecorded) {\n            numShareholders++;\n            isShareholder[from] = true;\n            emit ShareholderAdded(from);\n        } else if (shareholderReplaced) {\n            numShareholders--;\n            isShareholder[from] = false;\n            emit ShareholderReplaced(to, from);\n        }\n    }\n\n    function transfer (address to, uint256 value)\n        public\n        returns (bool)\n    {\n        recordShareholders(msg.sender, to, value);\n        return super.transfer(to, value);\n    }\n\n    function transferFrom (address from, address to, uint256 value)\n        public\n        returns (bool)\n    {\n        recordShareholders(from, to, value);\n        return super.transferFrom(from, to, value);\n    }\n}",
  "sourcePath": "/Users/dameongreen/Documents/erc-1440-2/Security-Tokens-and-Stablecoins-Quick-Start-Guide/Chapter06/simple-restricted-token/contracts/examples/number-of-accounts/MaxNumShareholdersToken.sol",
  "compiler": {
    "name": "solc",
    "version": "0.4.24+commit.e67f0147.Emscripten.clang"
  },
  "schemaVersion": "3.0.16",
  "updatedAt": "2020-04-12T15:16:49.554Z",
  "devdoc": {
    "methods": {
      "allowance(address,address)": {
        "details": "Function to check the amount of tokens that an owner allowed to a spender.",
        "params": {
          "_owner": "address The address which owns the funds.",
          "_spender": "address The address which will spend the funds."
        },
        "return": "A uint256 specifying the amount of tokens still available for the spender."
      },
      "approve(address,uint256)": {
        "details": "Approve the passed address to spend the specified amount of tokens on behalf of msg.sender. Beware that changing an allowance with this method brings the risk that someone may use both the old and the new allowance by unfortunate transaction ordering. One possible solution to mitigate this race condition is to first reduce the spender's allowance to 0 and set the desired value afterwards: https://github.com/ethereum/EIPs/issues/20#issuecomment-263524729",
        "params": {
          "_spender": "The address which will spend the funds.",
          "_value": "The amount of tokens to be spent."
        }
      },
      "balanceOf(address)": {
        "details": "Gets the balance of the specified address.",
        "params": {
          "_owner": "The address to query the the balance of."
        },
        "return": "An uint256 representing the amount owned by the passed address."
      },
      "decreaseApproval(address,uint256)": {
        "details": "Decrease the amount of tokens that an owner allowed to a spender. approve should be called when allowed[_spender] == 0. To decrement allowed value is better to use this function to avoid 2 calls (and wait until the first transaction is mined) From MonolithDAO Token.sol",
        "params": {
          "_spender": "The address which will spend the funds.",
          "_subtractedValue": "The amount of tokens to decrease the allowance by."
        }
      },
      "increaseApproval(address,uint256)": {
        "details": "Increase the amount of tokens that an owner allowed to a spender. approve should be called when allowed[_spender] == 0. To increment allowed value is better to use this function to avoid 2 calls (and wait until the first transaction is mined) From MonolithDAO Token.sol",
        "params": {
          "_addedValue": "The amount of tokens to increase the allowance by.",
          "_spender": "The address which will spend the funds."
        }
      },
      "renounceOwnership()": {
        "details": "Allows the current owner to relinquish control of the contract."
      },
      "totalSupply()": {
        "details": "Total number of tokens in existence"
      },
      "transferOwnership(address)": {
        "details": "Allows the current owner to transfer control of the contract to a newOwner.",
        "params": {
          "_newOwner": "The address to transfer ownership to."
        }
      }
    },
    "title": "ERC-1404 that limits the number of accounts to hold a token balance"
  },
  "userdoc": {
    "methods": {
      "renounceOwnership()": {
        "notice": "Renouncing to ownership will leave the contract without an owner. It will not be possible to call the functions with the `onlyOwner` modifier anymore."
      }
    }
  }
}