{
  "contractName": "MaxOwnershipStakeToken",
  "abi": [
    {
      "constant": true,
      "inputs": [],
      "name": "MAX_OWNERSHIP_STAKE_ERROR",
      "outputs": [
        {
          "name": "",
          "type": "string"
        }
      ],
      "payable": false,
      "stateMutability": "view",
      "type": "function"
    },
    {
      "constant": false,
      "inputs": [
        {
          "name": "_spender",
          "type": "address"
        },
        {
          "name": "_value",
          "type": "uint256"
        }
      ],
      "name": "approve",
      "outputs": [
        {
          "name": "",
          "type": "bool"
        }
      ],
      "payable": false,
      "stateMutability": "nonpayable",
      "type": "function"
    },
    {
      "constant": true,
      "inputs": [],
      "name": "SUCCESS_CODE",
      "outputs": [
        {
          "name": "",
          "type": "uint8"
        }
      ],
      "payable": false,
      "stateMutability": "view",
      "type": "function"
    },
    {
      "constant": true,
      "inputs": [],
      "name": "totalSupply",
      "outputs": [
        {
          "name": "",
          "type": "uint256"
        }
      ],
      "payable": false,
      "stateMutability": "view",
      "type": "function"
    },
    {
      "constant": false,
      "inputs": [
        {
          "name": "from",
          "type": "address"
        },
        {
          "name": "to",
          "type": "address"
        },
        {
          "name": "value",
          "type": "uint256"
        }
      ],
      "name": "transferFrom",
      "outputs": [
        {
          "name": "success",
          "type": "bool"
        }
      ],
      "payable": false,
      "stateMutability": "nonpayable",
      "type": "function"
    },
    {
      "constant": false,
      "inputs": [
        {
          "name": "_spender",
          "type": "address"
        },
        {
          "name": "_subtractedValue",
          "type": "uint256"
        }
      ],
      "name": "decreaseApproval",
      "outputs": [
        {
          "name": "",
          "type": "bool"
        }
      ],
      "payable": false,
      "stateMutability": "nonpayable",
      "type": "function"
    },
    {
      "constant": true,
      "inputs": [
        {
          "name": "_owner",
          "type": "address"
        }
      ],
      "name": "balanceOf",
      "outputs": [
        {
          "name": "",
          "type": "uint256"
        }
      ],
      "payable": false,
      "stateMutability": "view",
      "type": "function"
    },
    {
      "constant": false,
      "inputs": [],
      "name": "renounceOwnership",
      "outputs": [],
      "payable": false,
      "stateMutability": "nonpayable",
      "type": "function"
    },
    {
      "constant": true,
      "inputs": [
        {
          "name": "restrictionCode",
          "type": "uint8"
        }
      ],
      "name": "messageForTransferRestriction",
      "outputs": [
        {
          "name": "message",
          "type": "string"
        }
      ],
      "payable": false,
      "stateMutability": "view",
      "type": "function"
    },
    {
      "constant": true,
      "inputs": [],
      "name": "owner",
      "outputs": [
        {
          "name": "",
          "type": "address"
        }
      ],
      "payable": false,
      "stateMutability": "view",
      "type": "function"
    },
    {
      "constant": true,
      "inputs": [],
      "name": "MAX_OWNERSHIP_STAKE_CODE",
      "outputs": [
        {
          "name": "",
          "type": "uint8"
        }
      ],
      "payable": false,
      "stateMutability": "view",
      "type": "function"
    },
    {
      "constant": false,
      "inputs": [
        {
          "name": "to",
          "type": "address"
        },
        {
          "name": "value",
          "type": "uint256"
        }
      ],
      "name": "transfer",
      "outputs": [
        {
          "name": "success",
          "type": "bool"
        }
      ],
      "payable": false,
      "stateMutability": "nonpayable",
      "type": "function"
    },
    {
      "constant": true,
      "inputs": [],
      "name": "maxPercentOwnershipTimesOneThousand",
      "outputs": [
        {
          "name": "",
          "type": "uint256"
        }
      ],
      "payable": false,
      "stateMutability": "view",
      "type": "function"
    },
    {
      "constant": false,
      "inputs": [
        {
          "name": "_spender",
          "type": "address"
        },
        {
          "name": "_addedValue",
          "type": "uint256"
        }
      ],
      "name": "increaseApproval",
      "outputs": [
        {
          "name": "",
          "type": "bool"
        }
      ],
      "payable": false,
      "stateMutability": "nonpayable",
      "type": "function"
    },
    {
      "constant": true,
      "inputs": [
        {
          "name": "_owner",
          "type": "address"
        },
        {
          "name": "_spender",
          "type": "address"
        }
      ],
      "name": "allowance",
      "outputs": [
        {
          "name": "",
          "type": "uint256"
        }
      ],
      "payable": false,
      "stateMutability": "view",
      "type": "function"
    },
    {
      "constant": true,
      "inputs": [],
      "name": "PERCENT_OUT_OF_BOUNDS_ERROR",
      "outputs": [
        {
          "name": "",
          "type": "string"
        }
      ],
      "payable": false,
      "stateMutability": "view",
      "type": "function"
    },
    {
      "constant": true,
      "inputs": [],
      "name": "SUCCESS_MESSAGE",
      "outputs": [
        {
          "name": "",
          "type": "string"
        }
      ],
      "payable": false,
      "stateMutability": "view",
      "type": "function"
    },
    {
      "constant": false,
      "inputs": [
        {
          "name": "_newOwner",
          "type": "address"
        }
      ],
      "name": "transferOwnership",
      "outputs": [],
      "payable": false,
      "stateMutability": "nonpayable",
      "type": "function"
    },
    {
      "inputs": [
        {
          "name": "_maxPercentOwnershipTimesOneThousand",
          "type": "uint256"
        }
      ],
      "payable": false,
      "stateMutability": "nonpayable",
      "type": "constructor"
    },
    {
      "anonymous": false,
      "inputs": [
        {
          "indexed": false,
          "name": "newMaxPercentOwnershipTimesOneThousand",
          "type": "uint256"
        },
        {
          "indexed": false,
          "name": "oldMaxPercentOwnershipTimesOneThousand",
          "type": "uint256"
        }
      ],
      "name": "ChangedMaxOwnershipStake",
      "type": "event"
    },
    {
      "anonymous": false,
      "inputs": [
        {
          "indexed": true,
          "name": "previousOwner",
          "type": "address"
        }
      ],
      "name": "OwnershipRenounced",
      "type": "event"
    },
    {
      "anonymous": false,
      "inputs": [
        {
          "indexed": true,
          "name": "previousOwner",
          "type": "address"
        },
        {
          "indexed": true,
          "name": "newOwner",
          "type": "address"
        }
      ],
      "name": "OwnershipTransferred",
      "type": "event"
    },
    {
      "anonymous": false,
      "inputs": [
        {
          "indexed": true,
          "name": "owner",
          "type": "address"
        },
        {
          "indexed": true,
          "name": "spender",
          "type": "address"
        },
        {
          "indexed": false,
          "name": "value",
          "type": "uint256"
        }
      ],
      "name": "Approval",
      "type": "event"
    },
    {
      "anonymous": false,
      "inputs": [
        {
          "indexed": true,
          "name": "from",
          "type": "address"
        },
        {
          "indexed": true,
          "name": "to",
          "type": "address"
        },
        {
          "indexed": false,
          "name": "value",
          "type": "uint256"
        }
      ],
      "name": "Transfer",
      "type": "event"
    },
    {
      "constant": false,
      "inputs": [
        {
          "name": "_maxPercentOwnershipTimesOneThousand",
          "type": "uint256"
        }
      ],
      "name": "changeMaximumPercentOwnership",
      "outputs": [],
      "payable": false,
      "stateMutability": "nonpayable",
      "type": "function"
    },
    {
      "constant": true,
      "inputs": [
        {
          "name": "part",
          "type": "uint256"
        },
        {
          "name": "whole",
          "type": "uint256"
        }
      ],
      "name": "calcPercentTimesOneThousand",
      "outputs": [
        {
          "name": "",
          "type": "uint256"
        }
      ],
      "payable": false,
      "stateMutability": "pure",
      "type": "function"
    },
    {
      "constant": true,
      "inputs": [
        {
          "name": "from",
          "type": "address"
        },
        {
          "name": "to",
          "type": "address"
        },
        {
          "name": "value",
          "type": "uint256"
        }
      ],
      "name": "detectTransferRestriction",
      "outputs": [
        {
          "name": "restrictionCode",
          "type": "uint8"
        }
      ],
      "payable": false,
      "stateMutability": "view",
      "type": "function"
    }
  ],
  "bytecode": "0x60806040523480156200001157600080fd5b50604051602080620024bf83398101806040528101908080519060200190929190505050600373__MessagesAndCodes______________________636ef3054c909160006040805190810160405280600781526020017f53554343455353000000000000000000000000000000000000000000000000008152506040518463ffffffff167c0100000000000000000000000000000000000000000000000000000000028152600401808481526020018360ff1660ff16815260200180602001828103825283818151815260200191508051906020019080838360005b838110156200010a578082015181840152602081019050620000ed565b50505050905090810190601f168015620001385780820380516001836020036101000a031916815260200191505b5094505050505060206040518083038186803b1580156200015857600080fd5b505af41580156200016d573d6000803e3d6000fd5b505050506040513d60208110156200018457600080fd5b81019080805190602001909291905050505033600560006101000a81548173ffffffffffffffffffffffffffffffffffffffff021916908373ffffffffffffffffffffffffffffffffffffffff1602179055506103e8811115608060405190810160405280604781526020017f4d6178696d756d2070657263656e74206f776e6572736869702074696d65732081526020017f31303030206d757374206265206c657373207468616e206f7220657175616c2081526020017f746f2031303030000000000000000000000000000000000000000000000000008152509015156200030c576040517f08c379a00000000000000000000000000000000000000000000000000000000081526004018080602001828103825283818151815260200191508051906020019080838360005b83811015620002d0578082015181840152602081019050620002b3565b50505050905090810190601f168015620002fe5780820380516001836020036101000a031916815260200191505b509250505060405180910390fd5b5080600681905550600373__MessagesAndCodes______________________63ef0067949091606060405190810160405280603e81526020017f494c4c4547414c5f5452414e534645525f4d4158494d554d5f4f574e4552534881526020017f49505f5354414b455f524541434845445f464f525f524543495049454e5400008152506040518363ffffffff167c01000000000000000000000000000000000000000000000000000000000281526004018083815260200180602001828103825283818151815260200191508051906020019080838360005b8381101562000402578082015181840152602081019050620003e5565b50505050905090810190601f168015620004305780820380516001836020036101000a031916815260200191505b50935050505060206040518083038186803b1580156200044f57600080fd5b505af415801562000464573d6000803e3d6000fd5b505050506040513d60208110156200047b57600080fd5b8101908080519060200190929190505050600560146101000a81548160ff021916908360ff1602179055505061200880620004b76000396000f30060806040526004361061011d576000357c0100000000000000000000000000000000000000000000000000000000900463ffffffff16806306d53c0c14610122578063095ea7b3146101b25780630b397a90146102175780630e969a051461026257806318160ddd1461029357806323b872dd146102be578063661884631461034357806370a08231146103a8578063715018a6146103ff5780637f4ab1dd146104165780638da5cb5b146104bf5780638fd7022b14610516578063a45c2cb514610547578063a9059cbb14610574578063afa255d9146105d9578063d4ce141514610604578063d73dd6231461068b578063dd62ed3e146106f0578063e30014fd14610767578063e7984d17146107f7578063f2fde38b14610887575b600080fd5b34801561012e57600080fd5b506101376108ca565b6040518080602001828103825283818151815260200191508051906020019080838360005b8381101561017757808201518184015260208101905061015c565b50505050905090810190601f1680156101a45780820380516001836020036101000a031916815260200191505b509250505060405180910390f35b3480156101be57600080fd5b506101fd600480360381019080803573ffffffffffffffffffffffffffffffffffffffff1690602001909291908035906020019092919050505061092a565b604051808215151515815260200191505060405180910390f35b34801561022357600080fd5b5061024c6004803603810190808035906020019092919080359060200190929190505050610a1c565b6040518082815260200191505060405180910390f35b34801561026e57600080fd5b50610277610a7e565b604051808260ff1660ff16815260200191505060405180910390f35b34801561029f57600080fd5b506102a8610a83565b6040518082815260200191505060405180910390f35b3480156102ca57600080fd5b50610329600480360381019080803573ffffffffffffffffffffffffffffffffffffffff169060200190929190803573ffffffffffffffffffffffffffffffffffffffff16906020019092919080359060200190929190505050610a8d565b604051808215151515815260200191505060405180910390f35b34801561034f57600080fd5b5061038e600480360381019080803573ffffffffffffffffffffffffffffffffffffffff16906020019092919080359060200190929190505050610b75565b604051808215151515815260200191505060405180910390f35b3480156103b457600080fd5b506103e9600480360381019080803573ffffffffffffffffffffffffffffffffffffffff169060200190929190505050610e07565b6040518082815260200191505060405180910390f35b34801561040b57600080fd5b50610414610e4f565b005b34801561042257600080fd5b50610444600480360381019080803560ff169060200190929190505050610f54565b6040518080602001828103825283818151815260200191508051906020019080838360005b83811015610484578082015181840152602081019050610469565b50505050905090810190601f1680156104b15780820380516001836020036101000a031916815260200191505b509250505060405180910390f35b3480156104cb57600080fd5b506104d4611012565b604051808273ffffffffffffffffffffffffffffffffffffffff1673ffffffffffffffffffffffffffffffffffffffff16815260200191505060405180910390f35b34801561052257600080fd5b5061052b611038565b604051808260ff1660ff16815260200191505060405180910390f35b34801561055357600080fd5b506105726004803603810190808035906020019092919050505061104b565b005b34801561058057600080fd5b506105bf600480360381019080803573ffffffffffffffffffffffffffffffffffffffff16906020019092919080359060200190929190505050611224565b604051808215151515815260200191505060405180910390f35b3480156105e557600080fd5b506105ee61130a565b6040518082815260200191505060405180910390f35b34801561061057600080fd5b5061066f600480360381019080803573ffffffffffffffffffffffffffffffffffffffff169060200190929190803573ffffffffffffffffffffffffffffffffffffffff16906020019092919080359060200190929190505050611310565b604051808260ff1660ff16815260200191505060405180910390f35b34801561069757600080fd5b506106d6600480360381019080803573ffffffffffffffffffffffffffffffffffffffff169060200190929190803590602001909291905050506114d8565b604051808215151515815260200191505060405180910390f35b3480156106fc57600080fd5b50610751600480360381019080803573ffffffffffffffffffffffffffffffffffffffff169060200190929190803573ffffffffffffffffffffffffffffffffffffffff1690602001909291905050506116d4565b6040518082815260200191505060405180910390f35b34801561077357600080fd5b5061077c61175b565b6040518080602001828103825283818151815260200191508051906020019080838360005b838110156107bc5780820151818401526020810190506107a1565b50505050905090810190601f1680156107e95780820380516001836020036101000a031916815260200191505b509250505060405180910390f35b34801561080357600080fd5b5061080c6117e1565b6040518080602001828103825283818151815260200191508051906020019080838360005b8381101561084c578082015181840152602081019050610831565b50505050905090810190601f1680156108795780820380516001836020036101000a031916815260200191505b509250505060405180910390f35b34801561089357600080fd5b506108c8600480360381019080803573ffffffffffffffffffffffffffffffffffffffff16906020019092919050505061181a565b005b606060405190810160405280603e81526020017f494c4c4547414c5f5452414e534645525f4d4158494d554d5f4f574e4552534881526020017f49505f5354414b455f524541434845445f464f525f524543495049454e54000081525081565b600081600260003373ffffffffffffffffffffffffffffffffffffffff1673ffffffffffffffffffffffffffffffffffffffff16815260200190815260200160002060008573ffffffffffffffffffffffffffffffffffffffff1673ffffffffffffffffffffffffffffffffffffffff168152602001908152602001600020819055508273ffffffffffffffffffffffffffffffffffffffff163373ffffffffffffffffffffffffffffffffffffffff167f8c5be1e5ebec7d5bd14f71427d1e84f3dd0314c0f7b2291e5b200ac8c7c3b925846040518082815260200191505060405180910390a36001905092915050565b6000806000610a366127108661188290919063ffffffff16565b9150610a71600a610a636005610a5588876118ba90919063ffffffff16565b6118d090919063ffffffff16565b6118ba90919063ffffffff16565b9050809250505092915050565b600081565b6000600154905090565b60008383836000610a9f848484611310565b9050600060ff168160ff1614610ab482610f54565b901515610b5c576040517f08c379a00000000000000000000000000000000000000000000000000000000081526004018080602001828103825283818151815260200191508051906020019080838360005b83811015610b21578082015181840152602081019050610b06565b50505050905090810190601f168015610b4e5780820380516001836020036101000a031916815260200191505b509250505060405180910390fd5b50610b688888886118ec565b9450505050509392505050565b600080600260003373ffffffffffffffffffffffffffffffffffffffff1673ffffffffffffffffffffffffffffffffffffffff16815260200190815260200160002060008573ffffffffffffffffffffffffffffffffffffffff1673ffffffffffffffffffffffffffffffffffffffff1681526020019081526020016000205490508083101515610c87576000600260003373ffffffffffffffffffffffffffffffffffffffff1673ffffffffffffffffffffffffffffffffffffffff16815260200190815260200160002060008673ffffffffffffffffffffffffffffffffffffffff1673ffffffffffffffffffffffffffffffffffffffff16815260200190815260200160002081905550610d1b565b610c9a8382611ca790919063ffffffff16565b600260003373ffffffffffffffffffffffffffffffffffffffff1673ffffffffffffffffffffffffffffffffffffffff16815260200190815260200160002060008673ffffffffffffffffffffffffffffffffffffffff1673ffffffffffffffffffffffffffffffffffffffff168152602001908152602001600020819055505b8373ffffffffffffffffffffffffffffffffffffffff163373ffffffffffffffffffffffffffffffffffffffff167f8c5be1e5ebec7d5bd14f71427d1e84f3dd0314c0f7b2291e5b200ac8c7c3b925600260003373ffffffffffffffffffffffffffffffffffffffff1673ffffffffffffffffffffffffffffffffffffffff16815260200190815260200160002060008873ffffffffffffffffffffffffffffffffffffffff1673ffffffffffffffffffffffffffffffffffffffff168152602001908152602001600020546040518082815260200191505060405180910390a3600191505092915050565b60008060008373ffffffffffffffffffffffffffffffffffffffff1673ffffffffffffffffffffffffffffffffffffffff168152602001908152602001600020549050919050565b600560009054906101000a900473ffffffffffffffffffffffffffffffffffffffff1673ffffffffffffffffffffffffffffffffffffffff163373ffffffffffffffffffffffffffffffffffffffff16141515610eab57600080fd5b600560009054906101000a900473ffffffffffffffffffffffffffffffffffffffff1673ffffffffffffffffffffffffffffffffffffffff167ff8df31144d9c2f0f6b59d69b8b98abd5459d07f2742c4df920b25aae33c6482060405160405180910390a26000600560006101000a81548173ffffffffffffffffffffffffffffffffffffffff021916908373ffffffffffffffffffffffffffffffffffffffff160217905550565b6060600360000160008360ff1660ff1681526020019081526020016000208054600181600116156101000203166002900480601f0160208091040260200160405190810160405280929190818152602001828054600181600116156101000203166002900480156110065780601f10610fdb57610100808354040283529160200191611006565b820191906000526020600020905b815481529060010190602001808311610fe957829003601f168201915b50505050509050919050565b600560009054906101000a900473ffffffffffffffffffffffffffffffffffffffff1681565b600560149054906101000a900460ff1681565b600560009054906101000a900473ffffffffffffffffffffffffffffffffffffffff1673ffffffffffffffffffffffffffffffffffffffff163373ffffffffffffffffffffffffffffffffffffffff161415156110a757600080fd5b6103e8811115608060405190810160405280604781526020017f4d6178696d756d2070657263656e74206f776e6572736869702074696d65732081526020017f31303030206d757374206265206c657373207468616e206f7220657175616c2081526020017f746f2031303030000000000000000000000000000000000000000000000000008152509015156111d8576040517f08c379a00000000000000000000000000000000000000000000000000000000081526004018080602001828103825283818151815260200191508051906020019080838360005b8381101561119d578082015181840152602081019050611182565b50505050905090810190601f1680156111ca5780820380516001836020036101000a031916815260200191505b509250505060405180910390fd5b507f9cb5d86ab37fb16dcc670df336ca46a2330d55e8ad2eaf6cc59953932bc6e28081600654604051808381526020018281526020019250505060405180910390a18060068190555050565b60003383836000611236848484611310565b9050600060ff168160ff161461124b82610f54565b9015156112f3576040517f08c379a00000000000000000000000000000000000000000000000000000000081526004018080602001828103825283818151815260200191508051906020019080838360005b838110156112b857808201518184015260208101905061129d565b50505050905090810190601f1680156112e55780820380516001836020036101000a031916815260200191505b509250505060405180910390fd5b506112fe8787611cc0565b94505050505092915050565b60065481565b60008060008060009350611402853073ffffffffffffffffffffffffffffffffffffffff166370a08231896040518263ffffffff167c0100000000000000000000000000000000000000000000000000000000028152600401808273ffffffffffffffffffffffffffffffffffffffff1673ffffffffffffffffffffffffffffffffffffffff168152602001915050602060405180830381600087803b1580156113b957600080fd5b505af11580156113cd573d6000803e3d6000fd5b505050506040513d60208110156113e357600080fd5b81019080805190602001909291905050506118d090919063ffffffff16565b92506114ac833073ffffffffffffffffffffffffffffffffffffffff166318160ddd6040518163ffffffff167c0100000000000000000000000000000000000000000000000000000000028152600401602060405180830381600087803b15801561146c57600080fd5b505af1158015611480573d6000803e3d6000fd5b505050506040513d602081101561149657600080fd5b8101908080519060200190929190505050610a1c565b91506006548211905080156114ce57600560149054906101000a900460ff1693505b5050509392505050565b600061156982600260003373ffffffffffffffffffffffffffffffffffffffff1673ffffffffffffffffffffffffffffffffffffffff16815260200190815260200160002060008673ffffffffffffffffffffffffffffffffffffffff1673ffffffffffffffffffffffffffffffffffffffff168152602001908152602001600020546118d090919063ffffffff16565b600260003373ffffffffffffffffffffffffffffffffffffffff1673ffffffffffffffffffffffffffffffffffffffff16815260200190815260200160002060008573ffffffffffffffffffffffffffffffffffffffff1673ffffffffffffffffffffffffffffffffffffffff168152602001908152602001600020819055508273ffffffffffffffffffffffffffffffffffffffff163373ffffffffffffffffffffffffffffffffffffffff167f8c5be1e5ebec7d5bd14f71427d1e84f3dd0314c0f7b2291e5b200ac8c7c3b925600260003373ffffffffffffffffffffffffffffffffffffffff1673ffffffffffffffffffffffffffffffffffffffff16815260200190815260200160002060008773ffffffffffffffffffffffffffffffffffffffff1673ffffffffffffffffffffffffffffffffffffffff168152602001908152602001600020546040518082815260200191505060405180910390a36001905092915050565b6000600260008473ffffffffffffffffffffffffffffffffffffffff1673ffffffffffffffffffffffffffffffffffffffff16815260200190815260200160002060008373ffffffffffffffffffffffffffffffffffffffff1673ffffffffffffffffffffffffffffffffffffffff16815260200190815260200160002054905092915050565b608060405190810160405280604781526020017f4d6178696d756d2070657263656e74206f776e6572736869702074696d65732081526020017f31303030206d757374206265206c657373207468616e206f7220657175616c2081526020017f746f20313030300000000000000000000000000000000000000000000000000081525081565b6040805190810160405280600781526020017f535543434553530000000000000000000000000000000000000000000000000081525081565b600560009054906101000a900473ffffffffffffffffffffffffffffffffffffffff1673ffffffffffffffffffffffffffffffffffffffff163373ffffffffffffffffffffffffffffffffffffffff1614151561187657600080fd5b61187f81611ee0565b50565b60008083141561189557600090506118b4565b81830290508183828115156118a657fe5b041415156118b057fe5b8090505b92915050565b600081838115156118c757fe5b04905092915050565b600081830190508281101515156118e357fe5b80905092915050565b60008060008573ffffffffffffffffffffffffffffffffffffffff1673ffffffffffffffffffffffffffffffffffffffff16815260200190815260200160002054821115151561193b57600080fd5b600260008573ffffffffffffffffffffffffffffffffffffffff1673ffffffffffffffffffffffffffffffffffffffff16815260200190815260200160002060003373ffffffffffffffffffffffffffffffffffffffff1673ffffffffffffffffffffffffffffffffffffffff1681526020019081526020016000205482111515156119c657600080fd5b600073ffffffffffffffffffffffffffffffffffffffff168373ffffffffffffffffffffffffffffffffffffffff1614151515611a0257600080fd5b611a53826000808773ffffffffffffffffffffffffffffffffffffffff1673ffffffffffffffffffffffffffffffffffffffff16815260200190815260200160002054611ca790919063ffffffff16565b6000808673ffffffffffffffffffffffffffffffffffffffff1673ffffffffffffffffffffffffffffffffffffffff16815260200190815260200160002081905550611ae6826000808673ffffffffffffffffffffffffffffffffffffffff1673ffffffffffffffffffffffffffffffffffffffff168152602001908152602001600020546118d090919063ffffffff16565b6000808573ffffffffffffffffffffffffffffffffffffffff1673ffffffffffffffffffffffffffffffffffffffff16815260200190815260200160002081905550611bb782600260008773ffffffffffffffffffffffffffffffffffffffff1673ffffffffffffffffffffffffffffffffffffffff16815260200190815260200160002060003373ffffffffffffffffffffffffffffffffffffffff1673ffffffffffffffffffffffffffffffffffffffff16815260200190815260200160002054611ca790919063ffffffff16565b600260008673ffffffffffffffffffffffffffffffffffffffff1673ffffffffffffffffffffffffffffffffffffffff16815260200190815260200160002060003373ffffffffffffffffffffffffffffffffffffffff1673ffffffffffffffffffffffffffffffffffffffff168152602001908152602001600020819055508273ffffffffffffffffffffffffffffffffffffffff168473ffffffffffffffffffffffffffffffffffffffff167fddf252ad1be2c89b69c2b068fc378daa952ba7f163c4a11628f55a4df523b3ef846040518082815260200191505060405180910390a3600190509392505050565b6000828211151515611cb557fe5b818303905092915050565b60008060003373ffffffffffffffffffffffffffffffffffffffff1673ffffffffffffffffffffffffffffffffffffffff168152602001908152602001600020548211151515611d0f57600080fd5b600073ffffffffffffffffffffffffffffffffffffffff168373ffffffffffffffffffffffffffffffffffffffff1614151515611d4b57600080fd5b611d9c826000803373ffffffffffffffffffffffffffffffffffffffff1673ffffffffffffffffffffffffffffffffffffffff16815260200190815260200160002054611ca790919063ffffffff16565b6000803373ffffffffffffffffffffffffffffffffffffffff1673ffffffffffffffffffffffffffffffffffffffff16815260200190815260200160002081905550611e2f826000808673ffffffffffffffffffffffffffffffffffffffff1673ffffffffffffffffffffffffffffffffffffffff168152602001908152602001600020546118d090919063ffffffff16565b6000808573ffffffffffffffffffffffffffffffffffffffff1673ffffffffffffffffffffffffffffffffffffffff168152602001908152602001600020819055508273ffffffffffffffffffffffffffffffffffffffff163373ffffffffffffffffffffffffffffffffffffffff167fddf252ad1be2c89b69c2b068fc378daa952ba7f163c4a11628f55a4df523b3ef846040518082815260200191505060405180910390a36001905092915050565b600073ffffffffffffffffffffffffffffffffffffffff168173ffffffffffffffffffffffffffffffffffffffff1614151515611f1c57600080fd5b8073ffffffffffffffffffffffffffffffffffffffff16600560009054906101000a900473ffffffffffffffffffffffffffffffffffffffff1673ffffffffffffffffffffffffffffffffffffffff167f8be0079c531659141344cd1fd0a4f28419497f9722a3daafe3b4186f6b6457e060405160405180910390a380600560006101000a81548173ffffffffffffffffffffffffffffffffffffffff021916908373ffffffffffffffffffffffffffffffffffffffff160217905550505600a165627a7a723058207c92256674f12866d21d21aae545ed0548c179d0662bfd41df3b1649b69a14a10029",
  "deployedBytecode": "0x60806040526004361061011d576000357c0100000000000000000000000000000000000000000000000000000000900463ffffffff16806306d53c0c14610122578063095ea7b3146101b25780630b397a90146102175780630e969a051461026257806318160ddd1461029357806323b872dd146102be578063661884631461034357806370a08231146103a8578063715018a6146103ff5780637f4ab1dd146104165780638da5cb5b146104bf5780638fd7022b14610516578063a45c2cb514610547578063a9059cbb14610574578063afa255d9146105d9578063d4ce141514610604578063d73dd6231461068b578063dd62ed3e146106f0578063e30014fd14610767578063e7984d17146107f7578063f2fde38b14610887575b600080fd5b34801561012e57600080fd5b506101376108ca565b6040518080602001828103825283818151815260200191508051906020019080838360005b8381101561017757808201518184015260208101905061015c565b50505050905090810190601f1680156101a45780820380516001836020036101000a031916815260200191505b509250505060405180910390f35b3480156101be57600080fd5b506101fd600480360381019080803573ffffffffffffffffffffffffffffffffffffffff1690602001909291908035906020019092919050505061092a565b604051808215151515815260200191505060405180910390f35b34801561022357600080fd5b5061024c6004803603810190808035906020019092919080359060200190929190505050610a1c565b6040518082815260200191505060405180910390f35b34801561026e57600080fd5b50610277610a7e565b604051808260ff1660ff16815260200191505060405180910390f35b34801561029f57600080fd5b506102a8610a83565b6040518082815260200191505060405180910390f35b3480156102ca57600080fd5b50610329600480360381019080803573ffffffffffffffffffffffffffffffffffffffff169060200190929190803573ffffffffffffffffffffffffffffffffffffffff16906020019092919080359060200190929190505050610a8d565b604051808215151515815260200191505060405180910390f35b34801561034f57600080fd5b5061038e600480360381019080803573ffffffffffffffffffffffffffffffffffffffff16906020019092919080359060200190929190505050610b75565b604051808215151515815260200191505060405180910390f35b3480156103b457600080fd5b506103e9600480360381019080803573ffffffffffffffffffffffffffffffffffffffff169060200190929190505050610e07565b6040518082815260200191505060405180910390f35b34801561040b57600080fd5b50610414610e4f565b005b34801561042257600080fd5b50610444600480360381019080803560ff169060200190929190505050610f54565b6040518080602001828103825283818151815260200191508051906020019080838360005b83811015610484578082015181840152602081019050610469565b50505050905090810190601f1680156104b15780820380516001836020036101000a031916815260200191505b509250505060405180910390f35b3480156104cb57600080fd5b506104d4611012565b604051808273ffffffffffffffffffffffffffffffffffffffff1673ffffffffffffffffffffffffffffffffffffffff16815260200191505060405180910390f35b34801561052257600080fd5b5061052b611038565b604051808260ff1660ff16815260200191505060405180910390f35b34801561055357600080fd5b506105726004803603810190808035906020019092919050505061104b565b005b34801561058057600080fd5b506105bf600480360381019080803573ffffffffffffffffffffffffffffffffffffffff16906020019092919080359060200190929190505050611224565b604051808215151515815260200191505060405180910390f35b3480156105e557600080fd5b506105ee61130a565b6040518082815260200191505060405180910390f35b34801561061057600080fd5b5061066f600480360381019080803573ffffffffffffffffffffffffffffffffffffffff169060200190929190803573ffffffffffffffffffffffffffffffffffffffff16906020019092919080359060200190929190505050611310565b604051808260ff1660ff16815260200191505060405180910390f35b34801561069757600080fd5b506106d6600480360381019080803573ffffffffffffffffffffffffffffffffffffffff169060200190929190803590602001909291905050506114d8565b604051808215151515815260200191505060405180910390f35b3480156106fc57600080fd5b50610751600480360381019080803573ffffffffffffffffffffffffffffffffffffffff169060200190929190803573ffffffffffffffffffffffffffffffffffffffff1690602001909291905050506116d4565b6040518082815260200191505060405180910390f35b34801561077357600080fd5b5061077c61175b565b6040518080602001828103825283818151815260200191508051906020019080838360005b838110156107bc5780820151818401526020810190506107a1565b50505050905090810190601f1680156107e95780820380516001836020036101000a031916815260200191505b509250505060405180910390f35b34801561080357600080fd5b5061080c6117e1565b6040518080602001828103825283818151815260200191508051906020019080838360005b8381101561084c578082015181840152602081019050610831565b50505050905090810190601f1680156108795780820380516001836020036101000a031916815260200191505b509250505060405180910390f35b34801561089357600080fd5b506108c8600480360381019080803573ffffffffffffffffffffffffffffffffffffffff16906020019092919050505061181a565b005b606060405190810160405280603e81526020017f494c4c4547414c5f5452414e534645525f4d4158494d554d5f4f574e4552534881526020017f49505f5354414b455f524541434845445f464f525f524543495049454e54000081525081565b600081600260003373ffffffffffffffffffffffffffffffffffffffff1673ffffffffffffffffffffffffffffffffffffffff16815260200190815260200160002060008573ffffffffffffffffffffffffffffffffffffffff1673ffffffffffffffffffffffffffffffffffffffff168152602001908152602001600020819055508273ffffffffffffffffffffffffffffffffffffffff163373ffffffffffffffffffffffffffffffffffffffff167f8c5be1e5ebec7d5bd14f71427d1e84f3dd0314c0f7b2291e5b200ac8c7c3b925846040518082815260200191505060405180910390a36001905092915050565b6000806000610a366127108661188290919063ffffffff16565b9150610a71600a610a636005610a5588876118ba90919063ffffffff16565b6118d090919063ffffffff16565b6118ba90919063ffffffff16565b9050809250505092915050565b600081565b6000600154905090565b60008383836000610a9f848484611310565b9050600060ff168160ff1614610ab482610f54565b901515610b5c576040517f08c379a00000000000000000000000000000000000000000000000000000000081526004018080602001828103825283818151815260200191508051906020019080838360005b83811015610b21578082015181840152602081019050610b06565b50505050905090810190601f168015610b4e5780820380516001836020036101000a031916815260200191505b509250505060405180910390fd5b50610b688888886118ec565b9450505050509392505050565b600080600260003373ffffffffffffffffffffffffffffffffffffffff1673ffffffffffffffffffffffffffffffffffffffff16815260200190815260200160002060008573ffffffffffffffffffffffffffffffffffffffff1673ffffffffffffffffffffffffffffffffffffffff1681526020019081526020016000205490508083101515610c87576000600260003373ffffffffffffffffffffffffffffffffffffffff1673ffffffffffffffffffffffffffffffffffffffff16815260200190815260200160002060008673ffffffffffffffffffffffffffffffffffffffff1673ffffffffffffffffffffffffffffffffffffffff16815260200190815260200160002081905550610d1b565b610c9a8382611ca790919063ffffffff16565b600260003373ffffffffffffffffffffffffffffffffffffffff1673ffffffffffffffffffffffffffffffffffffffff16815260200190815260200160002060008673ffffffffffffffffffffffffffffffffffffffff1673ffffffffffffffffffffffffffffffffffffffff168152602001908152602001600020819055505b8373ffffffffffffffffffffffffffffffffffffffff163373ffffffffffffffffffffffffffffffffffffffff167f8c5be1e5ebec7d5bd14f71427d1e84f3dd0314c0f7b2291e5b200ac8c7c3b925600260003373ffffffffffffffffffffffffffffffffffffffff1673ffffffffffffffffffffffffffffffffffffffff16815260200190815260200160002060008873ffffffffffffffffffffffffffffffffffffffff1673ffffffffffffffffffffffffffffffffffffffff168152602001908152602001600020546040518082815260200191505060405180910390a3600191505092915050565b60008060008373ffffffffffffffffffffffffffffffffffffffff1673ffffffffffffffffffffffffffffffffffffffff168152602001908152602001600020549050919050565b600560009054906101000a900473ffffffffffffffffffffffffffffffffffffffff1673ffffffffffffffffffffffffffffffffffffffff163373ffffffffffffffffffffffffffffffffffffffff16141515610eab57600080fd5b600560009054906101000a900473ffffffffffffffffffffffffffffffffffffffff1673ffffffffffffffffffffffffffffffffffffffff167ff8df31144d9c2f0f6b59d69b8b98abd5459d07f2742c4df920b25aae33c6482060405160405180910390a26000600560006101000a81548173ffffffffffffffffffffffffffffffffffffffff021916908373ffffffffffffffffffffffffffffffffffffffff160217905550565b6060600360000160008360ff1660ff1681526020019081526020016000208054600181600116156101000203166002900480601f0160208091040260200160405190810160405280929190818152602001828054600181600116156101000203166002900480156110065780601f10610fdb57610100808354040283529160200191611006565b820191906000526020600020905b815481529060010190602001808311610fe957829003601f168201915b50505050509050919050565b600560009054906101000a900473ffffffffffffffffffffffffffffffffffffffff1681565b600560149054906101000a900460ff1681565b600560009054906101000a900473ffffffffffffffffffffffffffffffffffffffff1673ffffffffffffffffffffffffffffffffffffffff163373ffffffffffffffffffffffffffffffffffffffff161415156110a757600080fd5b6103e8811115608060405190810160405280604781526020017f4d6178696d756d2070657263656e74206f776e6572736869702074696d65732081526020017f31303030206d757374206265206c657373207468616e206f7220657175616c2081526020017f746f2031303030000000000000000000000000000000000000000000000000008152509015156111d8576040517f08c379a00000000000000000000000000000000000000000000000000000000081526004018080602001828103825283818151815260200191508051906020019080838360005b8381101561119d578082015181840152602081019050611182565b50505050905090810190601f1680156111ca5780820380516001836020036101000a031916815260200191505b509250505060405180910390fd5b507f9cb5d86ab37fb16dcc670df336ca46a2330d55e8ad2eaf6cc59953932bc6e28081600654604051808381526020018281526020019250505060405180910390a18060068190555050565b60003383836000611236848484611310565b9050600060ff168160ff161461124b82610f54565b9015156112f3576040517f08c379a00000000000000000000000000000000000000000000000000000000081526004018080602001828103825283818151815260200191508051906020019080838360005b838110156112b857808201518184015260208101905061129d565b50505050905090810190601f1680156112e55780820380516001836020036101000a031916815260200191505b509250505060405180910390fd5b506112fe8787611cc0565b94505050505092915050565b60065481565b60008060008060009350611402853073ffffffffffffffffffffffffffffffffffffffff166370a08231896040518263ffffffff167c0100000000000000000000000000000000000000000000000000000000028152600401808273ffffffffffffffffffffffffffffffffffffffff1673ffffffffffffffffffffffffffffffffffffffff168152602001915050602060405180830381600087803b1580156113b957600080fd5b505af11580156113cd573d6000803e3d6000fd5b505050506040513d60208110156113e357600080fd5b81019080805190602001909291905050506118d090919063ffffffff16565b92506114ac833073ffffffffffffffffffffffffffffffffffffffff166318160ddd6040518163ffffffff167c0100000000000000000000000000000000000000000000000000000000028152600401602060405180830381600087803b15801561146c57600080fd5b505af1158015611480573d6000803e3d6000fd5b505050506040513d602081101561149657600080fd5b8101908080519060200190929190505050610a1c565b91506006548211905080156114ce57600560149054906101000a900460ff1693505b5050509392505050565b600061156982600260003373ffffffffffffffffffffffffffffffffffffffff1673ffffffffffffffffffffffffffffffffffffffff16815260200190815260200160002060008673ffffffffffffffffffffffffffffffffffffffff1673ffffffffffffffffffffffffffffffffffffffff168152602001908152602001600020546118d090919063ffffffff16565b600260003373ffffffffffffffffffffffffffffffffffffffff1673ffffffffffffffffffffffffffffffffffffffff16815260200190815260200160002060008573ffffffffffffffffffffffffffffffffffffffff1673ffffffffffffffffffffffffffffffffffffffff168152602001908152602001600020819055508273ffffffffffffffffffffffffffffffffffffffff163373ffffffffffffffffffffffffffffffffffffffff167f8c5be1e5ebec7d5bd14f71427d1e84f3dd0314c0f7b2291e5b200ac8c7c3b925600260003373ffffffffffffffffffffffffffffffffffffffff1673ffffffffffffffffffffffffffffffffffffffff16815260200190815260200160002060008773ffffffffffffffffffffffffffffffffffffffff1673ffffffffffffffffffffffffffffffffffffffff168152602001908152602001600020546040518082815260200191505060405180910390a36001905092915050565b6000600260008473ffffffffffffffffffffffffffffffffffffffff1673ffffffffffffffffffffffffffffffffffffffff16815260200190815260200160002060008373ffffffffffffffffffffffffffffffffffffffff1673ffffffffffffffffffffffffffffffffffffffff16815260200190815260200160002054905092915050565b608060405190810160405280604781526020017f4d6178696d756d2070657263656e74206f776e6572736869702074696d65732081526020017f31303030206d757374206265206c657373207468616e206f7220657175616c2081526020017f746f20313030300000000000000000000000000000000000000000000000000081525081565b6040805190810160405280600781526020017f535543434553530000000000000000000000000000000000000000000000000081525081565b600560009054906101000a900473ffffffffffffffffffffffffffffffffffffffff1673ffffffffffffffffffffffffffffffffffffffff163373ffffffffffffffffffffffffffffffffffffffff1614151561187657600080fd5b61187f81611ee0565b50565b60008083141561189557600090506118b4565b81830290508183828115156118a657fe5b041415156118b057fe5b8090505b92915050565b600081838115156118c757fe5b04905092915050565b600081830190508281101515156118e357fe5b80905092915050565b60008060008573ffffffffffffffffffffffffffffffffffffffff1673ffffffffffffffffffffffffffffffffffffffff16815260200190815260200160002054821115151561193b57600080fd5b600260008573ffffffffffffffffffffffffffffffffffffffff1673ffffffffffffffffffffffffffffffffffffffff16815260200190815260200160002060003373ffffffffffffffffffffffffffffffffffffffff1673ffffffffffffffffffffffffffffffffffffffff1681526020019081526020016000205482111515156119c657600080fd5b600073ffffffffffffffffffffffffffffffffffffffff168373ffffffffffffffffffffffffffffffffffffffff1614151515611a0257600080fd5b611a53826000808773ffffffffffffffffffffffffffffffffffffffff1673ffffffffffffffffffffffffffffffffffffffff16815260200190815260200160002054611ca790919063ffffffff16565b6000808673ffffffffffffffffffffffffffffffffffffffff1673ffffffffffffffffffffffffffffffffffffffff16815260200190815260200160002081905550611ae6826000808673ffffffffffffffffffffffffffffffffffffffff1673ffffffffffffffffffffffffffffffffffffffff168152602001908152602001600020546118d090919063ffffffff16565b6000808573ffffffffffffffffffffffffffffffffffffffff1673ffffffffffffffffffffffffffffffffffffffff16815260200190815260200160002081905550611bb782600260008773ffffffffffffffffffffffffffffffffffffffff1673ffffffffffffffffffffffffffffffffffffffff16815260200190815260200160002060003373ffffffffffffffffffffffffffffffffffffffff1673ffffffffffffffffffffffffffffffffffffffff16815260200190815260200160002054611ca790919063ffffffff16565b600260008673ffffffffffffffffffffffffffffffffffffffff1673ffffffffffffffffffffffffffffffffffffffff16815260200190815260200160002060003373ffffffffffffffffffffffffffffffffffffffff1673ffffffffffffffffffffffffffffffffffffffff168152602001908152602001600020819055508273ffffffffffffffffffffffffffffffffffffffff168473ffffffffffffffffffffffffffffffffffffffff167fddf252ad1be2c89b69c2b068fc378daa952ba7f163c4a11628f55a4df523b3ef846040518082815260200191505060405180910390a3600190509392505050565b6000828211151515611cb557fe5b818303905092915050565b60008060003373ffffffffffffffffffffffffffffffffffffffff1673ffffffffffffffffffffffffffffffffffffffff168152602001908152602001600020548211151515611d0f57600080fd5b600073ffffffffffffffffffffffffffffffffffffffff168373ffffffffffffffffffffffffffffffffffffffff1614151515611d4b57600080fd5b611d9c826000803373ffffffffffffffffffffffffffffffffffffffff1673ffffffffffffffffffffffffffffffffffffffff16815260200190815260200160002054611ca790919063ffffffff16565b6000803373ffffffffffffffffffffffffffffffffffffffff1673ffffffffffffffffffffffffffffffffffffffff16815260200190815260200160002081905550611e2f826000808673ffffffffffffffffffffffffffffffffffffffff1673ffffffffffffffffffffffffffffffffffffffff168152602001908152602001600020546118d090919063ffffffff16565b6000808573ffffffffffffffffffffffffffffffffffffffff1673ffffffffffffffffffffffffffffffffffffffff168152602001908152602001600020819055508273ffffffffffffffffffffffffffffffffffffffff163373ffffffffffffffffffffffffffffffffffffffff167fddf252ad1be2c89b69c2b068fc378daa952ba7f163c4a11628f55a4df523b3ef846040518082815260200191505060405180910390a36001905092915050565b600073ffffffffffffffffffffffffffffffffffffffff168173ffffffffffffffffffffffffffffffffffffffff1614151515611f1c57600080fd5b8073ffffffffffffffffffffffffffffffffffffffff16600560009054906101000a900473ffffffffffffffffffffffffffffffffffffffff1673ffffffffffffffffffffffffffffffffffffffff167f8be0079c531659141344cd1fd0a4f28419497f9722a3daafe3b4186f6b6457e060405160405180910390a380600560006101000a81548173ffffffffffffffffffffffffffffffffffffffff021916908373ffffffffffffffffffffffffffffffffffffffff160217905550505600a165627a7a723058207c92256674f12866d21d21aae545ed0548c179d0662bfd41df3b1649b69a14a10029",
  "source": "pragma solidity ^0.4.24;\nimport \"../../token/ERC1404/MessagedERC1404.sol\";\nimport \"zeppelin-solidity/contracts/math/SafeMath.sol\";\nimport \"zeppelin-solidity/contracts/ownership/Ownable.sol\";\n\n/// @title ERC-1404 that limits the ownership stake all accounts may hold\ncontract MaxOwnershipStakeToken is MessagedERC1404, Ownable {\n    using SafeMath for uint256;\n    uint8 public MAX_OWNERSHIP_STAKE_CODE;\n    uint256 public maxPercentOwnershipTimesOneThousand;\n    string public constant MAX_OWNERSHIP_STAKE_ERROR = \"ILLEGAL_TRANSFER_MAXIMUM_OWNERSHIP_STAKE_REACHED_FOR_RECIPIENT\";\n    string public constant PERCENT_OUT_OF_BOUNDS_ERROR = \"Maximum percent ownership times 1000 must be less than or equal to 1000\";\n\n    event ChangedMaxOwnershipStake(\n      uint256 newMaxPercentOwnershipTimesOneThousand,\n      uint256 oldMaxPercentOwnershipTimesOneThousand\n    );\n\n    constructor (uint256 _maxPercentOwnershipTimesOneThousand) public {\n        require(_maxPercentOwnershipTimesOneThousand <= 1000, PERCENT_OUT_OF_BOUNDS_ERROR);\n        maxPercentOwnershipTimesOneThousand = _maxPercentOwnershipTimesOneThousand;\n        MAX_OWNERSHIP_STAKE_CODE = messagesAndCodes.autoAddMessage(MAX_OWNERSHIP_STAKE_ERROR);\n    }\n\n    function changeMaximumPercentOwnership (uint256 _maxPercentOwnershipTimesOneThousand)\n        public\n        onlyOwner\n    {\n        require(_maxPercentOwnershipTimesOneThousand <= 1000, PERCENT_OUT_OF_BOUNDS_ERROR);\n        emit ChangedMaxOwnershipStake(\n            _maxPercentOwnershipTimesOneThousand,\n            maxPercentOwnershipTimesOneThousand\n        );\n        maxPercentOwnershipTimesOneThousand = _maxPercentOwnershipTimesOneThousand;\n    }\n\n    function calcPercentTimesOneThousand(uint256 part, uint256 whole)\n        public\n        pure\n        returns (uint256)\n    {\n        uint256 numerator = part.mul(10000);\n        uint256 quotient = numerator.div(whole).add(5).div(10);\n        return quotient;\n    }\n\n    function detectTransferRestriction (address from, address to, uint256 value)\n        public\n        view\n        returns (uint8 restrictionCode)\n    {\n        restrictionCode = SUCCESS_CODE;\n        uint256 expectedRecipientBalance = this.balanceOf(to).add(value);\n        uint256 expectedPercentOwnershipTimesOneThousand = calcPercentTimesOneThousand(expectedRecipientBalance, this.totalSupply());\n        bool exceedsMaxPercentOwnership = expectedPercentOwnershipTimesOneThousand > maxPercentOwnershipTimesOneThousand;\n        if (exceedsMaxPercentOwnership) {\n            restrictionCode = MAX_OWNERSHIP_STAKE_CODE;\n        }\n    }\n}\n",
  "sourcePath": "/Users/dameongreen/Documents/erc-1440-2/Security-Tokens-and-Stablecoins-Quick-Start-Guide/Chapter06/simple-restricted-token/contracts/examples/ownership-percentage/MaxOwnershipStakeToken.sol",
  "compiler": {
    "name": "solc",
    "version": "0.4.24+commit.e67f0147.Emscripten.clang"
  },
  "schemaVersion": "3.0.16",
  "updatedAt": "2020-04-12T15:16:49.579Z",
  "devdoc": {
    "methods": {
      "allowance(address,address)": {
        "details": "Function to check the amount of tokens that an owner allowed to a spender.",
        "params": {
          "_owner": "address The address which owns the funds.",
          "_spender": "address The address which will spend the funds."
        },
        "return": "A uint256 specifying the amount of tokens still available for the spender."
      },
      "approve(address,uint256)": {
        "details": "Approve the passed address to spend the specified amount of tokens on behalf of msg.sender. Beware that changing an allowance with this method brings the risk that someone may use both the old and the new allowance by unfortunate transaction ordering. One possible solution to mitigate this race condition is to first reduce the spender's allowance to 0 and set the desired value afterwards: https://github.com/ethereum/EIPs/issues/20#issuecomment-263524729",
        "params": {
          "_spender": "The address which will spend the funds.",
          "_value": "The amount of tokens to be spent."
        }
      },
      "balanceOf(address)": {
        "details": "Gets the balance of the specified address.",
        "params": {
          "_owner": "The address to query the the balance of."
        },
        "return": "An uint256 representing the amount owned by the passed address."
      },
      "decreaseApproval(address,uint256)": {
        "details": "Decrease the amount of tokens that an owner allowed to a spender. approve should be called when allowed[_spender] == 0. To decrement allowed value is better to use this function to avoid 2 calls (and wait until the first transaction is mined) From MonolithDAO Token.sol",
        "params": {
          "_spender": "The address which will spend the funds.",
          "_subtractedValue": "The amount of tokens to decrease the allowance by."
        }
      },
      "increaseApproval(address,uint256)": {
        "details": "Increase the amount of tokens that an owner allowed to a spender. approve should be called when allowed[_spender] == 0. To increment allowed value is better to use this function to avoid 2 calls (and wait until the first transaction is mined) From MonolithDAO Token.sol",
        "params": {
          "_addedValue": "The amount of tokens to increase the allowance by.",
          "_spender": "The address which will spend the funds."
        }
      },
      "renounceOwnership()": {
        "details": "Allows the current owner to relinquish control of the contract."
      },
      "totalSupply()": {
        "details": "Total number of tokens in existence"
      },
      "transferOwnership(address)": {
        "details": "Allows the current owner to transfer control of the contract to a newOwner.",
        "params": {
          "_newOwner": "The address to transfer ownership to."
        }
      }
    },
    "title": "ERC-1404 that limits the ownership stake all accounts may hold"
  },
  "userdoc": {
    "methods": {
      "renounceOwnership()": {
        "notice": "Renouncing to ownership will leave the contract without an owner. It will not be possible to call the functions with the `onlyOwner` modifier anymore."
      }
    }
  }
}