{
  "contractName": "MessagesAndCodes",
  "abi": [
    {
      "constant": true,
      "inputs": [],
      "name": "EMPTY_MESSAGE_ERROR",
      "outputs": [
        {
          "name": "",
          "type": "string"
        }
      ],
      "payable": false,
      "stateMutability": "view",
      "type": "function"
    },
    {
      "constant": true,
      "inputs": [],
      "name": "CODE_UNASSIGNED_ERROR",
      "outputs": [
        {
          "name": "",
          "type": "string"
        }
      ],
      "payable": false,
      "stateMutability": "view",
      "type": "function"
    },
    {
      "constant": true,
      "inputs": [],
      "name": "CODE_RESERVED_ERROR",
      "outputs": [
        {
          "name": "",
          "type": "string"
        }
      ],
      "payable": false,
      "stateMutability": "view",
      "type": "function"
    },
    {
      "constant": false,
      "inputs": [
        {
          "name": "self",
          "type": "MessagesAndCodes.Data storage"
        },
        {
          "name": "_code",
          "type": "uint8"
        },
        {
          "name": "_message",
          "type": "string"
        }
      ],
      "name": "addMessage",
      "outputs": [
        {
          "name": "code",
          "type": "uint8"
        }
      ],
      "payable": false,
      "stateMutability": "nonpayable",
      "type": "function"
    },
    {
      "constant": false,
      "inputs": [
        {
          "name": "self",
          "type": "MessagesAndCodes.Data storage"
        },
        {
          "name": "_message",
          "type": "string"
        }
      ],
      "name": "autoAddMessage",
      "outputs": [
        {
          "name": "code",
          "type": "uint8"
        }
      ],
      "payable": false,
      "stateMutability": "nonpayable",
      "type": "function"
    },
    {
      "constant": false,
      "inputs": [
        {
          "name": "self",
          "type": "MessagesAndCodes.Data storage"
        },
        {
          "name": "_code",
          "type": "uint8"
        }
      ],
      "name": "removeMessage",
      "outputs": [
        {
          "name": "code",
          "type": "uint8"
        }
      ],
      "payable": false,
      "stateMutability": "nonpayable",
      "type": "function"
    },
    {
      "constant": false,
      "inputs": [
        {
          "name": "self",
          "type": "MessagesAndCodes.Data storage"
        },
        {
          "name": "_code",
          "type": "uint8"
        },
        {
          "name": "_message",
          "type": "string"
        }
      ],
      "name": "updateMessage",
      "outputs": [
        {
          "name": "code",
          "type": "uint8"
        }
      ],
      "payable": false,
      "stateMutability": "nonpayable",
      "type": "function"
    }
  ],
  "bytecode": "0x610ec4610030600b82828239805160001a6073146000811461002057610022565bfe5b5030600052607381538281f300730000000000000000000000000000000000000000301460806040526004361061009a576000357c0100000000000000000000000000000000000000000000000000000000900463ffffffff1680636ef3054c1461009f57806379bb4acc14610139578063832a10ef146101bc578063d711814014610256578063d87d7289146102aa578063ef0067941461032d578063f7feed76146103ba575b600080fd5b8180156100ab57600080fd5b5061011d60048036038101908080359060200190929190803560ff169060200190929190803590602001908201803590602001908080601f016020809104026020016040519081016040528093929190818152602001838380828437820191505050505050919291929050505061043d565b604051808260ff1660ff16815260200191505060405180910390f35b6101416106bd565b6040518080602001828103825283818151815260200191508051906020019080838360005b83811015610181578082015181840152602081019050610166565b50505050905090810190601f1680156101ae5780820380516001836020036101000a031916815260200191505b509250505060405180910390f35b8180156101c857600080fd5b5061023a60048036038101908080359060200190929190803560ff169060200190929190803590602001908201803590602001908080601f01602080910402602001604051908101604052809392919081815260200183838082843782019150505050505091929192905050506106f6565b604051808260ff1660ff16815260200191505060405180910390f35b81801561026257600080fd5b5061028e60048036038101908080359060200190929190803560ff16906020019092919050505061092b565b604051808260ff1660ff16815260200191505060405180910390f35b6102b2610b92565b6040518080602001828103825283818151815260200191508051906020019080838360005b838110156102f25780820151818401526020810190506102d7565b50505050905090810190601f16801561031f5780820380516001836020036101000a031916815260200191505b509250505060405180910390f35b81801561033957600080fd5b5061039e60048036038101908080359060200190929190803590602001908201803590602001908080601f0160208091040260200160405190810160405280939291908181526020018383808284378201915050505050509192919290505050610bf2565b604051808260ff1660ff16815260200191505060405180910390f35b6103c2610d10565b6040518080602001828103825283818151815260200191508051906020019080838360005b838110156104025780820151818401526020810190506103e7565b50505050905090810190601f16801561042f5780820380516001836020036101000a031916815260200191505b509250505060405180910390f35b600061044882610d70565b156040805190810160405280601e81526020017f4d6573736167652063616e6e6f7420626520656d70747920737472696e670000815250901515610527576040517f08c379a00000000000000000000000000000000000000000000000000000000081526004018080602001828103825283818151815260200191508051906020019080838360005b838110156104ec5780820151818401526020810190506104d1565b50505050905090810190601f1680156105195780820380516001836020036101000a031916815260200191505b509250505060405180910390fd5b506105328484610d7d565b15606060405190810160405280602b81526020017f476976656e20636f646520697320616c726561647920706f696e74696e67207481526020017f6f2061206d657373616765000000000000000000000000000000000000000000815250901515610638576040517f08c379a00000000000000000000000000000000000000000000000000000000081526004018080602001828103825283818151815260200191508051906020019080838360005b838110156105fd5780820151818401526020810190506105e2565b50505050905090810190601f16801561062a5780820380516001836020036101000a031916815260200191505b509250505060405180910390fd5b50818460000160008560ff1660ff1681526020019081526020016000209080519060200190610668929190610db9565b508360010183908060018154018082558091505090600182039060005260206000209060209182820401919006909192909190916101000a81548160ff021916908360ff160217905550508290509392505050565b6040805190810160405280601e81526020017f4d6573736167652063616e6e6f7420626520656d70747920737472696e67000081525081565b600061070182610d70565b156040805190810160405280601e81526020017f4d6573736167652063616e6e6f7420626520656d70747920737472696e6700008152509015156107e0576040517f08c379a00000000000000000000000000000000000000000000000000000000081526004018080602001828103825283818151815260200191508051906020019080838360005b838110156107a557808201518184015260208101905061078a565b50505050905090810190601f1680156107d25780820380516001836020036101000a031916815260200191505b509250505060405180910390fd5b506107eb8484610d7d565b606060405190810160405280602681526020017f476976656e20636f646520646f6573206e6f7420706f696e7420746f2061206d81526020017f65737361676500000000000000000000000000000000000000000000000000008152509015156108f0576040517f08c379a00000000000000000000000000000000000000000000000000000000081526004018080602001828103825283818151815260200191508051906020019080838360005b838110156108b557808201518184015260208101905061089a565b50505050905090810190601f1680156108e25780820380516001836020036101000a031916815260200191505b509250505060405180910390fd5b50818460000160008560ff1660ff1681526020019081526020016000209080519060200190610920929190610db9565b508290509392505050565b600080600061093a8585610d7d565b606060405190810160405280602681526020017f476976656e20636f646520646f6573206e6f7420706f696e7420746f2061206d81526020017f6573736167650000000000000000000000000000000000000000000000000000815250901515610a3f576040517f08c379a00000000000000000000000000000000000000000000000000000000081526004018080602001828103825283818151815260200191508051906020019080838360005b83811015610a045780820151818401526020810190506109e9565b50505050905090810190601f168015610a315780820380516001836020036101000a031916815260200191505b509250505060405180910390fd5b50600091505b8360ff16856001018360ff16815481101515610a5d57fe5b90600052602060002090602091828204019190069054906101000a900460ff1660ff16141515610a94578180600101925050610a45565b8190505b60018560010180549050038160ff161015610b2f57846001016001820160ff16815481101515610ac457fe5b90600052602060002090602091828204019190069054906101000a900460ff16856001018260ff16815481101515610af857fe5b90600052602060002090602091828204019190066101000a81548160ff021916908360ff1602179055508080600101915050610a98565b84600101805480919060019003610b469190610e39565b5060206040519081016040528060008152508560000160008660ff1660ff1681526020019081526020016000209080519060200190610b86929190610db9565b50839250505092915050565b606060405190810160405280602681526020017f476976656e20636f646520646f6573206e6f7420706f696e7420746f2061206d81526020017f657373616765000000000000000000000000000000000000000000000000000081525081565b6000610bfd82610d70565b156040805190810160405280601e81526020017f4d6573736167652063616e6e6f7420626520656d70747920737472696e670000815250901515610cdc576040517f08c379a00000000000000000000000000000000000000000000000000000000081526004018080602001828103825283818151815260200191508051906020019080838360005b83811015610ca1578082015181840152602081019050610c86565b50505050905090810190601f168015610cce5780820380516001836020036101000a031916815260200191505b509250505060405180910390fd5b50600090505b610cec8382610d7d565b15610cfe578080600101915050610ce2565b610d0983828461043d565b5092915050565b606060405190810160405280602b81526020017f476976656e20636f646520697320616c726561647920706f696e74696e67207481526020017f6f2061206d65737361676500000000000000000000000000000000000000000081525081565b6000808251149050919050565b6000808360000160008460ff1660ff16815260200190815260200160002080546001816001161561010002031660029004905011905092915050565b828054600181600116156101000203166002900490600052602060002090601f016020900481019282601f10610dfa57805160ff1916838001178555610e28565b82800160010185558215610e28579182015b82811115610e27578251825591602001919060010190610e0c565b5b509050610e359190610e73565b5090565b815481835581811115610e6e57601f016020900481601f01602090048360005260206000209182019101610e6d9190610e73565b5b505050565b610e9591905b80821115610e91576000816000905550600101610e79565b5090565b905600a165627a7a723058206343f15e5e61b065c2b77a84fb8bbb06f418c16e879b9ef80854fd8deb5132bf0029",
  "source": "pragma solidity ^0.4.24;\n\nlibrary MessagesAndCodes {\n    string public constant EMPTY_MESSAGE_ERROR = \"Message cannot be empty string\";\n    string public constant CODE_RESERVED_ERROR = \"Given code is already pointing to a message\";\n    string public constant CODE_UNASSIGNED_ERROR = \"Given code does not point to a message\";\n\n    struct Data {\n        mapping (uint8 => string) messages;\n        uint8[] codes;\n    }\n\n    function messageIsEmpty (string _message)\n        internal\n        pure\n        returns (bool isEmpty)\n    {\n        isEmpty = bytes(_message).length == 0;\n    }\n\n    function messageExists (Data storage self, uint8 _code)\n        internal\n        view\n        returns (bool exists)\n    {\n        exists = bytes(self.messages[_code]).length > 0;\n    }\n\n    function addMessage (Data storage self, uint8 _code, string _message)\n        public\n        returns (uint8 code)\n    {\n        require(!messageIsEmpty(_message), EMPTY_MESSAGE_ERROR);\n        require(!messageExists(self, _code), CODE_RESERVED_ERROR);\n\n        // enter message at code and push code onto storage\n        self.messages[_code] = _message;\n        self.codes.push(_code);\n        code = _code;\n    }\n\n    function autoAddMessage (Data storage self, string _message)\n        public\n        returns (uint8 code)\n    {\n        require(!messageIsEmpty(_message), EMPTY_MESSAGE_ERROR);\n\n        // find next available code to store the message at\n        code = 0;\n        while (messageExists(self, code)) {\n            code++;\n        }\n\n        // add message at the auto-generated code\n        addMessage(self, code, _message);\n    }\n\n    function removeMessage (Data storage self, uint8 _code)\n        public\n        returns (uint8 code)\n    {\n        require(messageExists(self, _code), CODE_UNASSIGNED_ERROR);\n\n        // find index of code\n        uint8 indexOfCode = 0;\n        while (self.codes[indexOfCode] != _code) {\n            indexOfCode++;\n        }\n\n        // remove code from storage by shifting codes in array\n        for (uint8 i = indexOfCode; i < self.codes.length - 1; i++) {\n            self.codes[i] = self.codes[i + 1];\n        }\n        self.codes.length--;\n\n        // remove message from storage\n        self.messages[_code] = \"\";\n        code = _code;\n    }\n\n    function updateMessage (Data storage self, uint8 _code, string _message)\n        public\n        returns (uint8 code)\n    {\n        require(!messageIsEmpty(_message), EMPTY_MESSAGE_ERROR);\n        require(messageExists(self, _code), CODE_UNASSIGNED_ERROR);\n\n        // update message at code\n        self.messages[_code] = _message;\n        code = _code;\n    }\n}",
  "sourcePath": "/Users/dameongreen/Documents/erc-1440-2/Security-Tokens-and-Stablecoins-Quick-Start-Guide/Chapter06/simple-restricted-token/contracts/token/ERC1404/MessagesAndCodes.sol",
  "compiler": {
    "name": "solc",
    "version": "0.4.24+commit.e67f0147.Emscripten.clang"
  },
  "schemaVersion": "3.0.16",
  "updatedAt": "2020-04-12T15:17:58.182Z",
  "devdoc": {
    "methods": {}
  },
  "userdoc": {
    "methods": {}
  }
}