{
  "contractName": "MyERC1404",
  "abi": [
    {
      "constant": false,
      "inputs": [
        {
          "name": "_spender",
          "type": "address"
        },
        {
          "name": "_value",
          "type": "uint256"
        }
      ],
      "name": "approve",
      "outputs": [
        {
          "name": "",
          "type": "bool"
        }
      ],
      "payable": false,
      "stateMutability": "nonpayable",
      "type": "function"
    },
    {
      "constant": true,
      "inputs": [
        {
          "name": "_operator",
          "type": "address"
        },
        {
          "name": "_role",
          "type": "string"
        }
      ],
      "name": "checkRole",
      "outputs": [],
      "payable": false,
      "stateMutability": "view",
      "type": "function"
    },
    {
      "constant": true,
      "inputs": [],
      "name": "SUCCESS_CODE",
      "outputs": [
        {
          "name": "",
          "type": "uint8"
        }
      ],
      "payable": false,
      "stateMutability": "view",
      "type": "function"
    },
    {
      "constant": true,
      "inputs": [],
      "name": "totalSupply",
      "outputs": [
        {
          "name": "",
          "type": "uint256"
        }
      ],
      "payable": false,
      "stateMutability": "view",
      "type": "function"
    },
    {
      "constant": true,
      "inputs": [],
      "name": "ROLE_WHITELISTED",
      "outputs": [
        {
          "name": "",
          "type": "string"
        }
      ],
      "payable": false,
      "stateMutability": "view",
      "type": "function"
    },
    {
      "constant": true,
      "inputs": [
        {
          "name": "_operator",
          "type": "address"
        },
        {
          "name": "_role",
          "type": "string"
        }
      ],
      "name": "hasRole",
      "outputs": [
        {
          "name": "",
          "type": "bool"
        }
      ],
      "payable": false,
      "stateMutability": "view",
      "type": "function"
    },
    {
      "constant": true,
      "inputs": [],
      "name": "NON_WHITELIST_ERROR",
      "outputs": [
        {
          "name": "",
          "type": "string"
        }
      ],
      "payable": false,
      "stateMutability": "view",
      "type": "function"
    },
    {
      "constant": true,
      "inputs": [],
      "name": "NON_WHITELIST_CODE",
      "outputs": [
        {
          "name": "",
          "type": "uint8"
        }
      ],
      "payable": false,
      "stateMutability": "view",
      "type": "function"
    },
    {
      "constant": false,
      "inputs": [
        {
          "name": "_operators",
          "type": "address[]"
        }
      ],
      "name": "removeAddressesFromWhitelist",
      "outputs": [],
      "payable": false,
      "stateMutability": "nonpayable",
      "type": "function"
    },
    {
      "constant": false,
      "inputs": [
        {
          "name": "_operator",
          "type": "address"
        }
      ],
      "name": "removeAddressFromWhitelist",
      "outputs": [],
      "payable": false,
      "stateMutability": "nonpayable",
      "type": "function"
    },
    {
      "constant": false,
      "inputs": [
        {
          "name": "_spender",
          "type": "address"
        },
        {
          "name": "_subtractedValue",
          "type": "uint256"
        }
      ],
      "name": "decreaseApproval",
      "outputs": [
        {
          "name": "",
          "type": "bool"
        }
      ],
      "payable": false,
      "stateMutability": "nonpayable",
      "type": "function"
    },
    {
      "constant": true,
      "inputs": [],
      "name": "tokenInfo",
      "outputs": [
        {
          "name": "initialAccount",
          "type": "address"
        },
        {
          "name": "name",
          "type": "string"
        },
        {
          "name": "symbol",
          "type": "string"
        },
        {
          "name": "totalSupply",
          "type": "uint256"
        }
      ],
      "payable": false,
      "stateMutability": "view",
      "type": "function"
    },
    {
      "constant": true,
      "inputs": [
        {
          "name": "_owner",
          "type": "address"
        }
      ],
      "name": "balanceOf",
      "outputs": [
        {
          "name": "",
          "type": "uint256"
        }
      ],
      "payable": false,
      "stateMutability": "view",
      "type": "function"
    },
    {
      "constant": false,
      "inputs": [],
      "name": "renounceOwnership",
      "outputs": [],
      "payable": false,
      "stateMutability": "nonpayable",
      "type": "function"
    },
    {
      "constant": false,
      "inputs": [
        {
          "name": "_operator",
          "type": "address"
        }
      ],
      "name": "addAddressToWhitelist",
      "outputs": [],
      "payable": false,
      "stateMutability": "nonpayable",
      "type": "function"
    },
    {
      "constant": true,
      "inputs": [],
      "name": "owner",
      "outputs": [
        {
          "name": "",
          "type": "address"
        }
      ],
      "payable": false,
      "stateMutability": "view",
      "type": "function"
    },
    {
      "constant": true,
      "inputs": [
        {
          "name": "_operator",
          "type": "address"
        }
      ],
      "name": "whitelist",
      "outputs": [
        {
          "name": "",
          "type": "bool"
        }
      ],
      "payable": false,
      "stateMutability": "view",
      "type": "function"
    },
    {
      "constant": false,
      "inputs": [
        {
          "name": "_spender",
          "type": "address"
        },
        {
          "name": "_addedValue",
          "type": "uint256"
        }
      ],
      "name": "increaseApproval",
      "outputs": [
        {
          "name": "",
          "type": "bool"
        }
      ],
      "payable": false,
      "stateMutability": "nonpayable",
      "type": "function"
    },
    {
      "constant": true,
      "inputs": [
        {
          "name": "_owner",
          "type": "address"
        },
        {
          "name": "_spender",
          "type": "address"
        }
      ],
      "name": "allowance",
      "outputs": [
        {
          "name": "",
          "type": "uint256"
        }
      ],
      "payable": false,
      "stateMutability": "view",
      "type": "function"
    },
    {
      "constant": false,
      "inputs": [
        {
          "name": "_operators",
          "type": "address[]"
        }
      ],
      "name": "addAddressesToWhitelist",
      "outputs": [],
      "payable": false,
      "stateMutability": "nonpayable",
      "type": "function"
    },
    {
      "constant": true,
      "inputs": [],
      "name": "SUCCESS_MESSAGE",
      "outputs": [
        {
          "name": "",
          "type": "string"
        }
      ],
      "payable": false,
      "stateMutability": "view",
      "type": "function"
    },
    {
      "constant": false,
      "inputs": [
        {
          "name": "_newOwner",
          "type": "address"
        }
      ],
      "name": "transferOwnership",
      "outputs": [],
      "payable": false,
      "stateMutability": "nonpayable",
      "type": "function"
    },
    {
      "inputs": [
        {
          "name": "_name",
          "type": "string"
        },
        {
          "name": "_symbol",
          "type": "string"
        },
        {
          "name": "initialAccount",
          "type": "address"
        },
        {
          "name": "initialBalance",
          "type": "uint256"
        }
      ],
      "payable": false,
      "stateMutability": "nonpayable",
      "type": "constructor"
    },
    {
      "anonymous": false,
      "inputs": [
        {
          "indexed": true,
          "name": "operator",
          "type": "address"
        },
        {
          "indexed": false,
          "name": "role",
          "type": "string"
        }
      ],
      "name": "RoleAdded",
      "type": "event"
    },
    {
      "anonymous": false,
      "inputs": [
        {
          "indexed": true,
          "name": "operator",
          "type": "address"
        },
        {
          "indexed": false,
          "name": "role",
          "type": "string"
        }
      ],
      "name": "RoleRemoved",
      "type": "event"
    },
    {
      "anonymous": false,
      "inputs": [
        {
          "indexed": true,
          "name": "previousOwner",
          "type": "address"
        }
      ],
      "name": "OwnershipRenounced",
      "type": "event"
    },
    {
      "anonymous": false,
      "inputs": [
        {
          "indexed": true,
          "name": "previousOwner",
          "type": "address"
        },
        {
          "indexed": true,
          "name": "newOwner",
          "type": "address"
        }
      ],
      "name": "OwnershipTransferred",
      "type": "event"
    },
    {
      "anonymous": false,
      "inputs": [
        {
          "indexed": true,
          "name": "owner",
          "type": "address"
        },
        {
          "indexed": true,
          "name": "spender",
          "type": "address"
        },
        {
          "indexed": false,
          "name": "value",
          "type": "uint256"
        }
      ],
      "name": "Approval",
      "type": "event"
    },
    {
      "anonymous": false,
      "inputs": [
        {
          "indexed": true,
          "name": "from",
          "type": "address"
        },
        {
          "indexed": true,
          "name": "to",
          "type": "address"
        },
        {
          "indexed": false,
          "name": "value",
          "type": "uint256"
        }
      ],
      "name": "Transfer",
      "type": "event"
    },
    {
      "constant": true,
      "inputs": [
        {
          "name": "from",
          "type": "address"
        },
        {
          "name": "to",
          "type": "address"
        },
        {
          "name": "value",
          "type": "uint256"
        }
      ],
      "name": "detectTransferRestriction",
      "outputs": [
        {
          "name": "restrictionCode",
          "type": "uint8"
        }
      ],
      "payable": false,
      "stateMutability": "view",
      "type": "function"
    },
    {
      "constant": true,
      "inputs": [
        {
          "name": "restrictionCode",
          "type": "uint8"
        }
      ],
      "name": "messageForTransferRestriction",
      "outputs": [
        {
          "name": "message",
          "type": "string"
        }
      ],
      "payable": false,
      "stateMutability": "view",
      "type": "function"
    },
    {
      "constant": false,
      "inputs": [
        {
          "name": "to",
          "type": "address"
        },
        {
          "name": "value",
          "type": "uint256"
        }
      ],
      "name": "transfer",
      "outputs": [
        {
          "name": "success",
          "type": "bool"
        }
      ],
      "payable": false,
      "stateMutability": "nonpayable",
      "type": "function"
    },
    {
      "constant": false,
      "inputs": [
        {
          "name": "from",
          "type": "address"
        },
        {
          "name": "to",
          "type": "address"
        },
        {
          "name": "value",
          "type": "uint256"
        }
      ],
      "name": "transferFrom",
      "outputs": [
        {
          "name": "success",
          "type": "bool"
        }
      ],
      "payable": false,
      "stateMutability": "nonpayable",
      "type": "function"
    }
  ],
  "bytecode": "0x60806040523480156200001157600080fd5b5060405162002cd438038062002cd48339810180604052810190808051820192919060200180518201929190602001805190602001909291908051906020019092919050505033600360006101000a81548173ffffffffffffffffffffffffffffffffffffffff021916908373ffffffffffffffffffffffffffffffffffffffff160217905550806000808473ffffffffffffffffffffffffffffffffffffffff1673ffffffffffffffffffffffffffffffffffffffff1681526020019081526020016000208190555080600181905550620000fc82620001d2640100000000026401000000009004565b6080604051908101604052808373ffffffffffffffffffffffffffffffffffffffff16815260200185815260200184815260200182815250600560008201518160000160006101000a81548173ffffffffffffffffffffffffffffffffffffffff021916908373ffffffffffffffffffffffffffffffffffffffff16021790555060208201518160010190805190602001906200019b92919062000429565b506040820151816002019080519060200190620001ba92919062000429565b506060820151816003015590505050505050620004d8565b600360009054906101000a900473ffffffffffffffffffffffffffffffffffffffff1673ffffffffffffffffffffffffffffffffffffffff163373ffffffffffffffffffffffffffffffffffffffff161415156200022f57600080fd5b6200027f816040805190810160405280600981526020017f77686974656c697374000000000000000000000000000000000000000000000081525062000282640100000000026401000000009004565b50565b62000311826004836040518082805190602001908083835b602083101515620002c157805182526020820191506020810190506020830392506200029a565b6001836020036101000a0380198251168184511680821785525050505050509050019150509081526020016040518091039020620003cb6401000000000262002762179091906401000000009004565b8173ffffffffffffffffffffffffffffffffffffffff167fbfec83d64eaa953f2708271a023ab9ee82057f8f3578d548c1a4ba0b5b700489826040518080602001828103825283818151815260200191508051906020019080838360005b838110156200038c5780820151818401526020810190506200036f565b50505050905090810190601f168015620003ba5780820380516001836020036101000a031916815260200191505b509250505060405180910390a25050565b60018260000160008373ffffffffffffffffffffffffffffffffffffffff1673ffffffffffffffffffffffffffffffffffffffff16815260200190815260200160002060006101000a81548160ff0219169083151502179055505050565b828054600181600116156101000203166002900490600052602060002090601f016020900481019282601f106200046c57805160ff19168380011785556200049d565b828001600101855582156200049d579182015b828111156200049c5782518255916020019190600101906200047f565b5b509050620004ac9190620004b0565b5090565b620004d591905b80821115620004d1576000816000905550600101620004b7565b5090565b90565b6127ec80620004e86000396000f300608060405260043610610154576000357c0100000000000000000000000000000000000000000000000000000000900463ffffffff168063095ea7b3146101595780630988ca8c146101be5780630e969a051461024757806318160ddd1461027857806318b919e9146102a3578063217fe6c61461033357806322baf96d146103d457806323b872dd146104645780632431691c146104e957806324953eaa1461051a578063286dd3f51461058057806366188463146105c35780636addb6631461062857806370a082311461075e578063715018a6146107b55780637b9417c8146107cc5780637f4ab1dd1461080f5780638da5cb5b146108b85780639b19251a1461090f578063a9059cbb1461096a578063d4ce1415146109cf578063d73dd62314610a56578063dd62ed3e14610abb578063e2ec6ec314610b32578063e7984d1714610b98578063f2fde38b14610c28575b600080fd5b34801561016557600080fd5b506101a4600480360381019080803573ffffffffffffffffffffffffffffffffffffffff16906020019092919080359060200190929190505050610c6b565b604051808215151515815260200191505060405180910390f35b3480156101ca57600080fd5b50610245600480360381019080803573ffffffffffffffffffffffffffffffffffffffff169060200190929190803590602001908201803590602001908080601f0160208091040260200160405190810160405280939291908181526020018383808284378201915050505050509192919290505050610d5d565b005b34801561025357600080fd5b5061025c610dde565b604051808260ff1660ff16815260200191505060405180910390f35b34801561028457600080fd5b5061028d610de3565b6040518082815260200191505060405180910390f35b3480156102af57600080fd5b506102b8610ded565b6040518080602001828103825283818151815260200191508051906020019080838360005b838110156102f85780820151818401526020810190506102dd565b50505050905090810190601f1680156103255780820380516001836020036101000a031916815260200191505b509250505060405180910390f35b34801561033f57600080fd5b506103ba600480360381019080803573ffffffffffffffffffffffffffffffffffffffff169060200190929190803590602001908201803590602001908080601f0160208091040260200160405190810160405280939291908181526020018383808284378201915050505050509192919290505050610e26565b604051808215151515815260200191505060405180910390f35b3480156103e057600080fd5b506103e9610ead565b6040518080602001828103825283818151815260200191508051906020019080838360005b8381101561042957808201518184015260208101905061040e565b50505050905090810190601f1680156104565780820380516001836020036101000a031916815260200191505b509250505060405180910390f35b34801561047057600080fd5b506104cf600480360381019080803573ffffffffffffffffffffffffffffffffffffffff169060200190929190803573ffffffffffffffffffffffffffffffffffffffff16906020019092919080359060200190929190505050610f0d565b604051808215151515815260200191505060405180910390f35b3480156104f557600080fd5b506104fe610ff5565b604051808260ff1660ff16815260200191505060405180910390f35b34801561052657600080fd5b5061057e60048036038101908080359060200190820180359060200190808060200260200160405190810160405280939291908181526020018383602002808284378201915050505050509192919290505050610ffa565b005b34801561058c57600080fd5b506105c1600480360381019080803573ffffffffffffffffffffffffffffffffffffffff169060200190929190505050611097565b005b3480156105cf57600080fd5b5061060e600480360381019080803573ffffffffffffffffffffffffffffffffffffffff16906020019092919080359060200190929190505050611135565b604051808215151515815260200191505060405180910390f35b34801561063457600080fd5b5061063d6113c7565b604051808573ffffffffffffffffffffffffffffffffffffffff1673ffffffffffffffffffffffffffffffffffffffff1681526020018060200180602001848152602001838103835286818151815260200191508051906020019080838360005b838110156106b957808201518184015260208101905061069e565b50505050905090810190601f1680156106e65780820380516001836020036101000a031916815260200191505b50838103825285818151815260200191508051906020019080838360005b8381101561071f578082015181840152602081019050610704565b50505050905090810190601f16801561074c5780820380516001836020036101000a031916815260200191505b50965050505050505060405180910390f35b34801561076a57600080fd5b5061079f600480360381019080803573ffffffffffffffffffffffffffffffffffffffff169060200190929190505050611535565b6040518082815260200191505060405180910390f35b3480156107c157600080fd5b506107ca61157d565b005b3480156107d857600080fd5b5061080d600480360381019080803573ffffffffffffffffffffffffffffffffffffffff169060200190929190505050611682565b005b34801561081b57600080fd5b5061083d600480360381019080803560ff169060200190929190505050611720565b6040518080602001828103825283818151815260200191508051906020019080838360005b8381101561087d578082015181840152602081019050610862565b50505050905090810190601f1680156108aa5780820380516001836020036101000a031916815260200191505b509250505060405180910390f35b3480156108c457600080fd5b506108cd6117e3565b604051808273ffffffffffffffffffffffffffffffffffffffff1673ffffffffffffffffffffffffffffffffffffffff16815260200191505060405180910390f35b34801561091b57600080fd5b50610950600480360381019080803573ffffffffffffffffffffffffffffffffffffffff169060200190929190505050611809565b604051808215151515815260200191505060405180910390f35b34801561097657600080fd5b506109b5600480360381019080803573ffffffffffffffffffffffffffffffffffffffff16906020019092919080359060200190929190505050611851565b604051808215151515815260200191505060405180910390f35b3480156109db57600080fd5b50610a3a600480360381019080803573ffffffffffffffffffffffffffffffffffffffff169060200190929190803573ffffffffffffffffffffffffffffffffffffffff16906020019092919080359060200190929190505050611937565b604051808260ff1660ff16815260200191505060405180910390f35b348015610a6257600080fd5b50610aa1600480360381019080803573ffffffffffffffffffffffffffffffffffffffff1690602001909291908035906020019092919050505061195d565b604051808215151515815260200191505060405180910390f35b348015610ac757600080fd5b50610b1c600480360381019080803573ffffffffffffffffffffffffffffffffffffffff169060200190929190803573ffffffffffffffffffffffffffffffffffffffff169060200190929190505050611b59565b6040518082815260200191505060405180910390f35b348015610b3e57600080fd5b50610b9660048036038101908080359060200190820180359060200190808060200260200160405190810160405280939291908181526020018383602002808284378201915050505050509192919290505050611be0565b005b348015610ba457600080fd5b50610bad611c7d565b6040518080602001828103825283818151815260200191508051906020019080838360005b83811015610bed578082015181840152602081019050610bd2565b50505050905090810190601f168015610c1a5780820380516001836020036101000a031916815260200191505b509250505060405180910390f35b348015610c3457600080fd5b50610c69600480360381019080803573ffffffffffffffffffffffffffffffffffffffff169060200190929190505050611cb6565b005b600081600260003373ffffffffffffffffffffffffffffffffffffffff1673ffffffffffffffffffffffffffffffffffffffff16815260200190815260200160002060008573ffffffffffffffffffffffffffffffffffffffff1673ffffffffffffffffffffffffffffffffffffffff168152602001908152602001600020819055508273ffffffffffffffffffffffffffffffffffffffff163373ffffffffffffffffffffffffffffffffffffffff167f8c5be1e5ebec7d5bd14f71427d1e84f3dd0314c0f7b2291e5b200ac8c7c3b925846040518082815260200191505060405180910390a36001905092915050565b610dda826004836040518082805190602001908083835b602083101515610d995780518252602082019150602081019050602083039250610d74565b6001836020036101000a0380198251168184511680821785525050505050509050019150509081526020016040518091039020611d1e90919063ffffffff16565b5050565b600081565b6000600154905090565b6040805190810160405280600981526020017f77686974656c697374000000000000000000000000000000000000000000000081525081565b6000610ea5836004846040518082805190602001908083835b602083101515610e645780518252602082019150602081019050602083039250610e3f565b6001836020036101000a0380198251168184511680821785525050505050509050019150509081526020016040518091039020611d3790919063ffffffff16565b905092915050565b606060405190810160405280602b81526020017f494c4c4547414c5f5452414e534645525f544f5f4e4f4e5f57484954454c495381526020017f5445445f4144445245535300000000000000000000000000000000000000000081525081565b60008383836000610f1f848484611937565b9050600060ff168160ff1614610f3482611720565b901515610fdc576040517f08c379a00000000000000000000000000000000000000000000000000000000081526004018080602001828103825283818151815260200191508051906020019080838360005b83811015610fa1578082015181840152602081019050610f86565b50505050905090810190601f168015610fce5780820380516001836020036101000a031916815260200191505b509250505060405180910390fd5b50610fe8888888611d90565b9450505050509392505050565b600281565b6000600360009054906101000a900473ffffffffffffffffffffffffffffffffffffffff1673ffffffffffffffffffffffffffffffffffffffff163373ffffffffffffffffffffffffffffffffffffffff1614151561105857600080fd5b600090505b815181101561109357611086828281518110151561107757fe5b90602001906020020151611097565b808060010191505061105d565b5050565b600360009054906101000a900473ffffffffffffffffffffffffffffffffffffffff1673ffffffffffffffffffffffffffffffffffffffff163373ffffffffffffffffffffffffffffffffffffffff161415156110f357600080fd5b611132816040805190810160405280600981526020017f77686974656c697374000000000000000000000000000000000000000000000081525061214b565b50565b600080600260003373ffffffffffffffffffffffffffffffffffffffff1673ffffffffffffffffffffffffffffffffffffffff16815260200190815260200160002060008573ffffffffffffffffffffffffffffffffffffffff1673ffffffffffffffffffffffffffffffffffffffff1681526020019081526020016000205490508083101515611247576000600260003373ffffffffffffffffffffffffffffffffffffffff1673ffffffffffffffffffffffffffffffffffffffff16815260200190815260200160002060008673ffffffffffffffffffffffffffffffffffffffff1673ffffffffffffffffffffffffffffffffffffffff168152602001908152602001600020819055506112db565b61125a838261227f90919063ffffffff16565b600260003373ffffffffffffffffffffffffffffffffffffffff1673ffffffffffffffffffffffffffffffffffffffff16815260200190815260200160002060008673ffffffffffffffffffffffffffffffffffffffff1673ffffffffffffffffffffffffffffffffffffffff168152602001908152602001600020819055505b8373ffffffffffffffffffffffffffffffffffffffff163373ffffffffffffffffffffffffffffffffffffffff167f8c5be1e5ebec7d5bd14f71427d1e84f3dd0314c0f7b2291e5b200ac8c7c3b925600260003373ffffffffffffffffffffffffffffffffffffffff1673ffffffffffffffffffffffffffffffffffffffff16815260200190815260200160002060008873ffffffffffffffffffffffffffffffffffffffff1673ffffffffffffffffffffffffffffffffffffffff168152602001908152602001600020546040518082815260200191505060405180910390a3600191505092915050565b60058060000160009054906101000a900473ffffffffffffffffffffffffffffffffffffffff1690806001018054600181600116156101000203166002900480601f0160208091040260200160405190810160405280929190818152602001828054600181600116156101000203166002900480156114875780601f1061145c57610100808354040283529160200191611487565b820191906000526020600020905b81548152906001019060200180831161146a57829003601f168201915b505050505090806002018054600181600116156101000203166002900480601f0160208091040260200160405190810160405280929190818152602001828054600181600116156101000203166002900480156115255780601f106114fa57610100808354040283529160200191611525565b820191906000526020600020905b81548152906001019060200180831161150857829003601f168201915b5050505050908060030154905084565b60008060008373ffffffffffffffffffffffffffffffffffffffff1673ffffffffffffffffffffffffffffffffffffffff168152602001908152602001600020549050919050565b600360009054906101000a900473ffffffffffffffffffffffffffffffffffffffff1673ffffffffffffffffffffffffffffffffffffffff163373ffffffffffffffffffffffffffffffffffffffff161415156115d957600080fd5b600360009054906101000a900473ffffffffffffffffffffffffffffffffffffffff1673ffffffffffffffffffffffffffffffffffffffff167ff8df31144d9c2f0f6b59d69b8b98abd5459d07f2742c4df920b25aae33c6482060405160405180910390a26000600360006101000a81548173ffffffffffffffffffffffffffffffffffffffff021916908373ffffffffffffffffffffffffffffffffffffffff160217905550565b600360009054906101000a900473ffffffffffffffffffffffffffffffffffffffff1673ffffffffffffffffffffffffffffffffffffffff163373ffffffffffffffffffffffffffffffffffffffff161415156116de57600080fd5b61171d816040805190810160405280600981526020017f77686974656c6973740000000000000000000000000000000000000000000000815250612298565b50565b6060600060ff168260ff16141561176e576040805190810160405280600781526020017f535543434553530000000000000000000000000000000000000000000000000081525090506117de565b600260ff168260ff1614156117dd57606060405190810160405280602b81526020017f494c4c4547414c5f5452414e534645525f544f5f4e4f4e5f57484954454c495381526020017f5445445f4144445245535300000000000000000000000000000000000000000081525090505b5b919050565b600360009054906101000a900473ffffffffffffffffffffffffffffffffffffffff1681565b600061184a826040805190810160405280600981526020017f77686974656c6973740000000000000000000000000000000000000000000000815250610e26565b9050919050565b60003383836000611863848484611937565b9050600060ff168160ff161461187882611720565b901515611920576040517f08c379a00000000000000000000000000000000000000000000000000000000081526004018080602001828103825283818151815260200191508051906020019080838360005b838110156118e55780820151818401526020810190506118ca565b50505050905090810190601f1680156119125780820380516001836020036101000a031916815260200191505b509250505060405180910390fd5b5061192b87876123cc565b94505050505092915050565b600061194283611809565b15156119515760029050611956565b600090505b9392505050565b60006119ee82600260003373ffffffffffffffffffffffffffffffffffffffff1673ffffffffffffffffffffffffffffffffffffffff16815260200190815260200160002060008673ffffffffffffffffffffffffffffffffffffffff1673ffffffffffffffffffffffffffffffffffffffff168152602001908152602001600020546125ec90919063ffffffff16565b600260003373ffffffffffffffffffffffffffffffffffffffff1673ffffffffffffffffffffffffffffffffffffffff16815260200190815260200160002060008573ffffffffffffffffffffffffffffffffffffffff1673ffffffffffffffffffffffffffffffffffffffff168152602001908152602001600020819055508273ffffffffffffffffffffffffffffffffffffffff163373ffffffffffffffffffffffffffffffffffffffff167f8c5be1e5ebec7d5bd14f71427d1e84f3dd0314c0f7b2291e5b200ac8c7c3b925600260003373ffffffffffffffffffffffffffffffffffffffff1673ffffffffffffffffffffffffffffffffffffffff16815260200190815260200160002060008773ffffffffffffffffffffffffffffffffffffffff1673ffffffffffffffffffffffffffffffffffffffff168152602001908152602001600020546040518082815260200191505060405180910390a36001905092915050565b6000600260008473ffffffffffffffffffffffffffffffffffffffff1673ffffffffffffffffffffffffffffffffffffffff16815260200190815260200160002060008373ffffffffffffffffffffffffffffffffffffffff1673ffffffffffffffffffffffffffffffffffffffff16815260200190815260200160002054905092915050565b6000600360009054906101000a900473ffffffffffffffffffffffffffffffffffffffff1673ffffffffffffffffffffffffffffffffffffffff163373ffffffffffffffffffffffffffffffffffffffff16141515611c3e57600080fd5b600090505b8151811015611c7957611c6c8282815181101515611c5d57fe5b90602001906020020151611682565b8080600101915050611c43565b5050565b6040805190810160405280600781526020017f535543434553530000000000000000000000000000000000000000000000000081525081565b600360009054906101000a900473ffffffffffffffffffffffffffffffffffffffff1673ffffffffffffffffffffffffffffffffffffffff163373ffffffffffffffffffffffffffffffffffffffff16141515611d1257600080fd5b611d1b81612608565b50565b611d288282611d37565b1515611d3357600080fd5b5050565b60008260000160008373ffffffffffffffffffffffffffffffffffffffff1673ffffffffffffffffffffffffffffffffffffffff16815260200190815260200160002060009054906101000a900460ff16905092915050565b60008060008573ffffffffffffffffffffffffffffffffffffffff1673ffffffffffffffffffffffffffffffffffffffff168152602001908152602001600020548211151515611ddf57600080fd5b600260008573ffffffffffffffffffffffffffffffffffffffff1673ffffffffffffffffffffffffffffffffffffffff16815260200190815260200160002060003373ffffffffffffffffffffffffffffffffffffffff1673ffffffffffffffffffffffffffffffffffffffff168152602001908152602001600020548211151515611e6a57600080fd5b600073ffffffffffffffffffffffffffffffffffffffff168373ffffffffffffffffffffffffffffffffffffffff1614151515611ea657600080fd5b611ef7826000808773ffffffffffffffffffffffffffffffffffffffff1673ffffffffffffffffffffffffffffffffffffffff1681526020019081526020016000205461227f90919063ffffffff16565b6000808673ffffffffffffffffffffffffffffffffffffffff1673ffffffffffffffffffffffffffffffffffffffff16815260200190815260200160002081905550611f8a826000808673ffffffffffffffffffffffffffffffffffffffff1673ffffffffffffffffffffffffffffffffffffffff168152602001908152602001600020546125ec90919063ffffffff16565b6000808573ffffffffffffffffffffffffffffffffffffffff1673ffffffffffffffffffffffffffffffffffffffff1681526020019081526020016000208190555061205b82600260008773ffffffffffffffffffffffffffffffffffffffff1673ffffffffffffffffffffffffffffffffffffffff16815260200190815260200160002060003373ffffffffffffffffffffffffffffffffffffffff1673ffffffffffffffffffffffffffffffffffffffff1681526020019081526020016000205461227f90919063ffffffff16565b600260008673ffffffffffffffffffffffffffffffffffffffff1673ffffffffffffffffffffffffffffffffffffffff16815260200190815260200160002060003373ffffffffffffffffffffffffffffffffffffffff1673ffffffffffffffffffffffffffffffffffffffff168152602001908152602001600020819055508273ffffffffffffffffffffffffffffffffffffffff168473ffffffffffffffffffffffffffffffffffffffff167fddf252ad1be2c89b69c2b068fc378daa952ba7f163c4a11628f55a4df523b3ef846040518082815260200191505060405180910390a3600190509392505050565b6121c8826004836040518082805190602001908083835b6020831015156121875780518252602082019150602081019050602083039250612162565b6001836020036101000a038019825116818451168082178552505050505050905001915050908152602001604051809103902061270490919063ffffffff16565b8173ffffffffffffffffffffffffffffffffffffffff167fd211483f91fc6eff862467f8de606587a30c8fc9981056f051b897a418df803a826040518080602001828103825283818151815260200191508051906020019080838360005b83811015612241578082015181840152602081019050612226565b50505050905090810190601f16801561226e5780820380516001836020036101000a031916815260200191505b509250505060405180910390a25050565b600082821115151561228d57fe5b818303905092915050565b612315826004836040518082805190602001908083835b6020831015156122d457805182526020820191506020810190506020830392506122af565b6001836020036101000a038019825116818451168082178552505050505050905001915050908152602001604051809103902061276290919063ffffffff16565b8173ffffffffffffffffffffffffffffffffffffffff167fbfec83d64eaa953f2708271a023ab9ee82057f8f3578d548c1a4ba0b5b700489826040518080602001828103825283818151815260200191508051906020019080838360005b8381101561238e578082015181840152602081019050612373565b50505050905090810190601f1680156123bb5780820380516001836020036101000a031916815260200191505b509250505060405180910390a25050565b60008060003373ffffffffffffffffffffffffffffffffffffffff1673ffffffffffffffffffffffffffffffffffffffff16815260200190815260200160002054821115151561241b57600080fd5b600073ffffffffffffffffffffffffffffffffffffffff168373ffffffffffffffffffffffffffffffffffffffff161415151561245757600080fd5b6124a8826000803373ffffffffffffffffffffffffffffffffffffffff1673ffffffffffffffffffffffffffffffffffffffff1681526020019081526020016000205461227f90919063ffffffff16565b6000803373ffffffffffffffffffffffffffffffffffffffff1673ffffffffffffffffffffffffffffffffffffffff1681526020019081526020016000208190555061253b826000808673ffffffffffffffffffffffffffffffffffffffff1673ffffffffffffffffffffffffffffffffffffffff168152602001908152602001600020546125ec90919063ffffffff16565b6000808573ffffffffffffffffffffffffffffffffffffffff1673ffffffffffffffffffffffffffffffffffffffff168152602001908152602001600020819055508273ffffffffffffffffffffffffffffffffffffffff163373ffffffffffffffffffffffffffffffffffffffff167fddf252ad1be2c89b69c2b068fc378daa952ba7f163c4a11628f55a4df523b3ef846040518082815260200191505060405180910390a36001905092915050565b600081830190508281101515156125ff57fe5b80905092915050565b600073ffffffffffffffffffffffffffffffffffffffff168173ffffffffffffffffffffffffffffffffffffffff161415151561264457600080fd5b8073ffffffffffffffffffffffffffffffffffffffff16600360009054906101000a900473ffffffffffffffffffffffffffffffffffffffff1673ffffffffffffffffffffffffffffffffffffffff167f8be0079c531659141344cd1fd0a4f28419497f9722a3daafe3b4186f6b6457e060405160405180910390a380600360006101000a81548173ffffffffffffffffffffffffffffffffffffffff021916908373ffffffffffffffffffffffffffffffffffffffff16021790555050565b60008260000160008373ffffffffffffffffffffffffffffffffffffffff1673ffffffffffffffffffffffffffffffffffffffff16815260200190815260200160002060006101000a81548160ff0219169083151502179055505050565b60018260000160008373ffffffffffffffffffffffffffffffffffffffff1673ffffffffffffffffffffffffffffffffffffffff16815260200190815260200160002060006101000a81548160ff02191690831515021790555050505600a165627a7a723058201c25b5be1dc88daf76ec4e70b95c1771a7d3821284bfaf42a0d880972fb312cc0029",
  "source": "/**\n * Blockchain Security Token Offerings Quick Start Guide\n * packt pub\n * @author Brian Wu\n */\npragma solidity ^0.4.24;\nimport \"./ERC1404.sol\";\nimport \"zeppelin-solidity/contracts/token/ERC20/StandardToken.sol\";\nimport \"zeppelin-solidity/contracts/access/Whitelist.sol\";\n/// @title ERC-1404 implementation with built-in message and code management solution\n/// @dev Inherit from this contract to implement your own ERC-1404 token\ncontract MyERC1404 is ERC1404, StandardToken, Whitelist {\n    TokenInfo public tokenInfo;\n    uint8 public constant SUCCESS_CODE = 0;\n    string public constant SUCCESS_MESSAGE = \"SUCCESS\";\n    uint8 public constant NON_WHITELIST_CODE = 2;\n    string public constant NON_WHITELIST_ERROR = \"ILLEGAL_TRANSFER_TO_NON_WHITELISTED_ADDRESS\";\n    struct TokenInfo {\n        address initialAccount; \n        string name;\n        string symbol;\n        uint totalSupply;\n    }\n    constructor(string _name, string _symbol,  address initialAccount, uint256 initialBalance) public{\n        balances[initialAccount] = initialBalance;\n        totalSupply_ = initialBalance;\n        addAddressToWhitelist(initialAccount);\n        tokenInfo = TokenInfo(initialAccount, _name, _symbol,initialBalance);\n    }\n    modifier notRestricted (address from, address to, uint256 value) {\n        uint8 restrictionCode = detectTransferRestriction(from, to, value);\n        require(restrictionCode == SUCCESS_CODE, messageForTransferRestriction(restrictionCode));\n        _;\n    }\n    function detectTransferRestriction (address from, address to, uint256 value)\n        public\n        view\n        returns (uint8 restrictionCode)\n    {\n        if (!whitelist(to)) {\n            restrictionCode = NON_WHITELIST_CODE; // illegal transfer outside of whitelist\n        } else {\n            restrictionCode = SUCCESS_CODE; // successful transfer (required)\n        }\n    }\n\n        \n    function messageForTransferRestriction (uint8 restrictionCode)\n        public\n        view\n        returns (string message)\n    {\n        if (restrictionCode == SUCCESS_CODE) {\n            message = SUCCESS_MESSAGE;\n        } else if(restrictionCode == NON_WHITELIST_CODE) {\n            message = NON_WHITELIST_ERROR;\n        }\n    }\n    \n    function transfer (address to, uint256 value)\n        public\n        notRestricted(msg.sender, to, value)\n        returns (bool success)\n    {\n        success = super.transfer(to, value);\n    }\n\n    function transferFrom (address from, address to, uint256 value)\n        notRestricted(from, to, value)\n        returns (bool success)\n    {\n        success = super.transferFrom(from, to, value);\n    }\n}\n",
  "sourcePath": "/Users/dameongreen/Documents/erc-1440-2/Security-Tokens-and-Stablecoins-Quick-Start-Guide/Chapter06/simple-restricted-token/contracts/token/ERC1404/MyERC1404.sol",
  "compiler": {
    "name": "solc",
    "version": "0.4.24+commit.e67f0147.Emscripten.clang"
  },
  "schemaVersion": "3.0.16",
  "updatedAt": "2020-04-12T15:17:58.200Z",
  "devdoc": {
    "methods": {
      "addAddressToWhitelist(address)": {
        "details": "add an address to the whitelist",
        "params": {
          "_operator": "address"
        },
        "return": "true if the address was added to the whitelist, false if the address was already in the whitelist"
      },
      "addAddressesToWhitelist(address[])": {
        "details": "add addresses to the whitelist",
        "params": {
          "_operators": "addresses"
        },
        "return": "true if at least one address was added to the whitelist, false if all addresses were already in the whitelist"
      },
      "allowance(address,address)": {
        "details": "Function to check the amount of tokens that an owner allowed to a spender.",
        "params": {
          "_owner": "address The address which owns the funds.",
          "_spender": "address The address which will spend the funds."
        },
        "return": "A uint256 specifying the amount of tokens still available for the spender."
      },
      "approve(address,uint256)": {
        "details": "Approve the passed address to spend the specified amount of tokens on behalf of msg.sender. Beware that changing an allowance with this method brings the risk that someone may use both the old and the new allowance by unfortunate transaction ordering. One possible solution to mitigate this race condition is to first reduce the spender's allowance to 0 and set the desired value afterwards: https://github.com/ethereum/EIPs/issues/20#issuecomment-263524729",
        "params": {
          "_spender": "The address which will spend the funds.",
          "_value": "The amount of tokens to be spent."
        }
      },
      "balanceOf(address)": {
        "details": "Gets the balance of the specified address.",
        "params": {
          "_owner": "The address to query the the balance of."
        },
        "return": "An uint256 representing the amount owned by the passed address."
      },
      "checkRole(address,string)": {
        "details": "reverts if addr does not have role",
        "params": {
          "_operator": "address",
          "_role": "the name of the role // reverts"
        }
      },
      "decreaseApproval(address,uint256)": {
        "details": "Decrease the amount of tokens that an owner allowed to a spender. approve should be called when allowed[_spender] == 0. To decrement allowed value is better to use this function to avoid 2 calls (and wait until the first transaction is mined) From MonolithDAO Token.sol",
        "params": {
          "_spender": "The address which will spend the funds.",
          "_subtractedValue": "The amount of tokens to decrease the allowance by."
        }
      },
      "hasRole(address,string)": {
        "details": "determine if addr has role",
        "params": {
          "_operator": "address",
          "_role": "the name of the role"
        },
        "return": "bool"
      },
      "increaseApproval(address,uint256)": {
        "details": "Increase the amount of tokens that an owner allowed to a spender. approve should be called when allowed[_spender] == 0. To increment allowed value is better to use this function to avoid 2 calls (and wait until the first transaction is mined) From MonolithDAO Token.sol",
        "params": {
          "_addedValue": "The amount of tokens to increase the allowance by.",
          "_spender": "The address which will spend the funds."
        }
      },
      "removeAddressFromWhitelist(address)": {
        "details": "remove an address from the whitelist",
        "params": {
          "_operator": "address"
        },
        "return": "true if the address was removed from the whitelist, false if the address wasn't in the whitelist in the first place"
      },
      "removeAddressesFromWhitelist(address[])": {
        "details": "remove addresses from the whitelist",
        "params": {
          "_operators": "addresses"
        },
        "return": "true if at least one address was removed from the whitelist, false if all addresses weren't in the whitelist in the first place"
      },
      "renounceOwnership()": {
        "details": "Allows the current owner to relinquish control of the contract."
      },
      "totalSupply()": {
        "details": "Total number of tokens in existence"
      },
      "transferOwnership(address)": {
        "details": "Allows the current owner to transfer control of the contract to a newOwner.",
        "params": {
          "_newOwner": "The address to transfer ownership to."
        }
      },
      "whitelist(address)": {
        "details": "getter to determine if address is in whitelist"
      }
    },
    "title": "ERC-1404 implementation with built-in message and code management solution"
  },
  "userdoc": {
    "methods": {
      "renounceOwnership()": {
        "notice": "Renouncing to ownership will leave the contract without an owner. It will not be possible to call the functions with the `onlyOwner` modifier anymore."
      }
    }
  }
}