{
  "contractName": "RegulatorServiceExample",
  "abi": [
    {
      "constant": false,
      "inputs": [],
      "name": "renounceOwnership",
      "outputs": [],
      "payable": false,
      "stateMutability": "nonpayable",
      "type": "function"
    },
    {
      "constant": true,
      "inputs": [],
      "name": "owner",
      "outputs": [
        {
          "name": "",
          "type": "address"
        }
      ],
      "payable": false,
      "stateMutability": "view",
      "type": "function"
    },
    {
      "constant": false,
      "inputs": [
        {
          "name": "_newOwner",
          "type": "address"
        }
      ],
      "name": "transferOwnership",
      "outputs": [],
      "payable": false,
      "stateMutability": "nonpayable",
      "type": "function"
    },
    {
      "constant": true,
      "inputs": [],
      "name": "admin",
      "outputs": [
        {
          "name": "",
          "type": "address"
        }
      ],
      "payable": false,
      "stateMutability": "view",
      "type": "function"
    },
    {
      "anonymous": false,
      "inputs": [
        {
          "indexed": true,
          "name": "token",
          "type": "address"
        },
        {
          "indexed": false,
          "name": "locked",
          "type": "bool"
        }
      ],
      "name": "LogLockSet",
      "type": "event"
    },
    {
      "anonymous": false,
      "inputs": [
        {
          "indexed": true,
          "name": "token",
          "type": "address"
        },
        {
          "indexed": false,
          "name": "enabled",
          "type": "bool"
        }
      ],
      "name": "LogPartialTransferSet",
      "type": "event"
    },
    {
      "anonymous": false,
      "inputs": [
        {
          "indexed": true,
          "name": "token",
          "type": "address"
        },
        {
          "indexed": true,
          "name": "participant",
          "type": "address"
        },
        {
          "indexed": false,
          "name": "permission",
          "type": "uint8"
        }
      ],
      "name": "LogPermissionSet",
      "type": "event"
    },
    {
      "anonymous": false,
      "inputs": [
        {
          "indexed": true,
          "name": "oldAdmin",
          "type": "address"
        },
        {
          "indexed": true,
          "name": "newAdmin",
          "type": "address"
        }
      ],
      "name": "LogTransferAdmin",
      "type": "event"
    },
    {
      "anonymous": false,
      "inputs": [
        {
          "indexed": true,
          "name": "previousOwner",
          "type": "address"
        }
      ],
      "name": "OwnershipRenounced",
      "type": "event"
    },
    {
      "anonymous": false,
      "inputs": [
        {
          "indexed": true,
          "name": "previousOwner",
          "type": "address"
        },
        {
          "indexed": true,
          "name": "newOwner",
          "type": "address"
        }
      ],
      "name": "OwnershipTransferred",
      "type": "event"
    },
    {
      "constant": false,
      "inputs": [],
      "name": "TokenRegulatorService",
      "outputs": [],
      "payable": false,
      "stateMutability": "nonpayable",
      "type": "function"
    },
    {
      "constant": false,
      "inputs": [
        {
          "name": "_token",
          "type": "address"
        },
        {
          "name": "_locked",
          "type": "bool"
        }
      ],
      "name": "setLocked",
      "outputs": [],
      "payable": false,
      "stateMutability": "nonpayable",
      "type": "function"
    },
    {
      "constant": false,
      "inputs": [
        {
          "name": "_token",
          "type": "address"
        },
        {
          "name": "_enabled",
          "type": "bool"
        }
      ],
      "name": "setPartialTransfers",
      "outputs": [],
      "payable": false,
      "stateMutability": "nonpayable",
      "type": "function"
    },
    {
      "constant": false,
      "inputs": [
        {
          "name": "_token",
          "type": "address"
        },
        {
          "name": "_participant",
          "type": "address"
        },
        {
          "name": "_permission",
          "type": "uint8"
        }
      ],
      "name": "setPermission",
      "outputs": [],
      "payable": false,
      "stateMutability": "nonpayable",
      "type": "function"
    },
    {
      "constant": false,
      "inputs": [
        {
          "name": "newAdmin",
          "type": "address"
        }
      ],
      "name": "transferAdmin",
      "outputs": [],
      "payable": false,
      "stateMutability": "nonpayable",
      "type": "function"
    },
    {
      "constant": false,
      "inputs": [
        {
          "name": "_token",
          "type": "address"
        },
        {
          "name": "_spender",
          "type": "address"
        },
        {
          "name": "_from",
          "type": "address"
        },
        {
          "name": "_to",
          "type": "address"
        },
        {
          "name": "_amount",
          "type": "uint256"
        }
      ],
      "name": "check",
      "outputs": [
        {
          "name": "",
          "type": "uint8"
        }
      ],
      "payable": false,
      "stateMutability": "nonpayable",
      "type": "function"
    },
    {
      "constant": true,
      "inputs": [
        {
          "name": "_reason",
          "type": "uint8"
        }
      ],
      "name": "messageForReason",
      "outputs": [
        {
          "name": "",
          "type": "string"
        }
      ],
      "payable": false,
      "stateMutability": "view",
      "type": "function"
    }
  ],
  "bytecode": "0x6080604052336000806101000a81548173ffffffffffffffffffffffffffffffffffffffff021916908373ffffffffffffffffffffffffffffffffffffffff16021790555061119e806100536000396000f3006080604052600436106100af576000357c0100000000000000000000000000000000000000000000000000000000900463ffffffff16806305204231146100b45780631b3d803f14610124578063715018a61461013b57806375829def14610152578063803fcd431461019557806389ad0a341461025c5780638da5cb5b146102ab57806392f9611514610302578063d7fb8dc014610351578063f2fde38b146103fa578063f851a4401461043d575b600080fd5b3480156100c057600080fd5b50610122600480360381019080803573ffffffffffffffffffffffffffffffffffffffff169060200190929190803573ffffffffffffffffffffffffffffffffffffffff169060200190929190803560ff169060200190929190505050610494565b005b34801561013057600080fd5b5061013961064c565b005b34801561014757600080fd5b5061015061068f565b005b34801561015e57600080fd5b50610193600480360381019080803573ffffffffffffffffffffffffffffffffffffffff169060200190929190505050610791565b005b3480156101a157600080fd5b50610240600480360381019080803573ffffffffffffffffffffffffffffffffffffffff169060200190929190803573ffffffffffffffffffffffffffffffffffffffff169060200190929190803573ffffffffffffffffffffffffffffffffffffffff169060200190929190803573ffffffffffffffffffffffffffffffffffffffff169060200190929190803590602001909291905050506108ee565b604051808260ff1660ff16815260200191505060405180910390f35b34801561026857600080fd5b506102a9600480360381019080803573ffffffffffffffffffffffffffffffffffffffff169060200190929190803515159060200190929190505050610b1d565b005b3480156102b757600080fd5b506102c0610c28565b604051808273ffffffffffffffffffffffffffffffffffffffff1673ffffffffffffffffffffffffffffffffffffffff16815260200191505060405180910390f35b34801561030e57600080fd5b5061034f600480360381019080803573ffffffffffffffffffffffffffffffffffffffff169060200190929190803515159060200190929190505050610c4d565b005b34801561035d57600080fd5b5061037f600480360381019080803560ff169060200190929190505050610d58565b6040518080602001828103825283818151815260200191508051906020019080838360005b838110156103bf5780820151818401526020810190506103a4565b50505050905090810190601f1680156103ec5780820380516001836020036101000a031916815260200191505b509250505060405180910390f35b34801561040657600080fd5b5061043b600480360381019080803573ffffffffffffffffffffffffffffffffffffffff169060200190929190505050610f3d565b005b34801561044957600080fd5b50610452610fa4565b604051808273ffffffffffffffffffffffffffffffffffffffff1673ffffffffffffffffffffffffffffffffffffffff16815260200191505060405180910390f35b600160009054906101000a900473ffffffffffffffffffffffffffffffffffffffff1673ffffffffffffffffffffffffffffffffffffffff163373ffffffffffffffffffffffffffffffffffffffff16148061053c57506000809054906101000a900473ffffffffffffffffffffffffffffffffffffffff1673ffffffffffffffffffffffffffffffffffffffff163373ffffffffffffffffffffffffffffffffffffffff16145b151561054757600080fd5b80600360008573ffffffffffffffffffffffffffffffffffffffff1673ffffffffffffffffffffffffffffffffffffffff16815260200190815260200160002060008473ffffffffffffffffffffffffffffffffffffffff1673ffffffffffffffffffffffffffffffffffffffff16815260200190815260200160002060006101000a81548160ff021916908360ff1602179055508173ffffffffffffffffffffffffffffffffffffffff168373ffffffffffffffffffffffffffffffffffffffff167f79ce3a32c049677f0da6a41a1035fc36947480d903cbae5f26118d5d5b96e7d883604051808260ff1660ff16815260200191505060405180910390a3505050565b33600160006101000a81548173ffffffffffffffffffffffffffffffffffffffff021916908373ffffffffffffffffffffffffffffffffffffffff160217905550565b6000809054906101000a900473ffffffffffffffffffffffffffffffffffffffff1673ffffffffffffffffffffffffffffffffffffffff163373ffffffffffffffffffffffffffffffffffffffff161415156106ea57600080fd5b6000809054906101000a900473ffffffffffffffffffffffffffffffffffffffff1673ffffffffffffffffffffffffffffffffffffffff167ff8df31144d9c2f0f6b59d69b8b98abd5459d07f2742c4df920b25aae33c6482060405160405180910390a260008060006101000a81548173ffffffffffffffffffffffffffffffffffffffff021916908373ffffffffffffffffffffffffffffffffffffffff160217905550565b60008060009054906101000a900473ffffffffffffffffffffffffffffffffffffffff1673ffffffffffffffffffffffffffffffffffffffff163373ffffffffffffffffffffffffffffffffffffffff161415156107ee57600080fd5b600073ffffffffffffffffffffffffffffffffffffffff168273ffffffffffffffffffffffffffffffffffffffff161415151561082a57600080fd5b600160009054906101000a900473ffffffffffffffffffffffffffffffffffffffff16905081600160006101000a81548173ffffffffffffffffffffffffffffffffffffffff021916908373ffffffffffffffffffffffffffffffffffffffff1602179055508173ffffffffffffffffffffffffffffffffffffffff168173ffffffffffffffffffffffffffffffffffffffff167f0ad836e1614da10ff391cfc802a39f547f3cdc42900fa72de16b085855c169d560405160405180910390a35050565b6000600260008773ffffffffffffffffffffffffffffffffffffffff1673ffffffffffffffffffffffffffffffffffffffff16815260200190815260200160002060000160009054906101000a900460ff161561094e5760019050610b14565b60006001600360008973ffffffffffffffffffffffffffffffffffffffff1673ffffffffffffffffffffffffffffffffffffffff16815260200190815260200160002060008773ffffffffffffffffffffffffffffffffffffffff1673ffffffffffffffffffffffffffffffffffffffff16815260200190815260200160002060009054906101000a900460ff161660ff1614156109ef5760039050610b14565b60006002600360008973ffffffffffffffffffffffffffffffffffffffff1673ffffffffffffffffffffffffffffffffffffffff16815260200190815260200160002060008673ffffffffffffffffffffffffffffffffffffffff1673ffffffffffffffffffffffffffffffffffffffff16815260200190815260200160002060009054906101000a900460ff161660ff161415610a905760049050610b14565b600260008773ffffffffffffffffffffffffffffffffffffffff1673ffffffffffffffffffffffffffffffffffffffff16815260200190815260200160002060000160019054906101000a900460ff16158015610b0157506000610af387610fca565b83811515610afd57fe5b0614155b15610b0f5760029050610b14565b600090505b95945050505050565b6000809054906101000a900473ffffffffffffffffffffffffffffffffffffffff1673ffffffffffffffffffffffffffffffffffffffff163373ffffffffffffffffffffffffffffffffffffffff16141515610b7857600080fd5b80600260008473ffffffffffffffffffffffffffffffffffffffff1673ffffffffffffffffffffffffffffffffffffffff16815260200190815260200160002060000160006101000a81548160ff0219169083151502179055508173ffffffffffffffffffffffffffffffffffffffff167f0a12157eaf7bc78c797f32f0756efb6a90d605759d6e535a278033ec487d176682604051808215151515815260200191505060405180910390a25050565b6000809054906101000a900473ffffffffffffffffffffffffffffffffffffffff1681565b6000809054906101000a900473ffffffffffffffffffffffffffffffffffffffff1673ffffffffffffffffffffffffffffffffffffffff163373ffffffffffffffffffffffffffffffffffffffff16141515610ca857600080fd5b80600260008473ffffffffffffffffffffffffffffffffffffffff1673ffffffffffffffffffffffffffffffffffffffff16815260200190815260200160002060000160016101000a81548160ff0219169083151502179055508173ffffffffffffffffffffffffffffffffffffffff167f85d37ec694752aafe8ff3ea3fb045641ded9ae08224d069215d88722175a8db882604051808215151515815260200191505060405180910390a25050565b6060600160ff168260ff161415610da6576040805190810160405280600f81526020017f546f6b656e206973206c6f636b656400000000000000000000000000000000008152509050610f38565b600360ff168260ff161415610e1957606060405190810160405280602781526020017f53656e646572206973206e6f7420616c6c6f77656420746f2073656e6420746881526020017f6520746f6b656e000000000000000000000000000000000000000000000000008152509050610f38565b600460ff168260ff161415610e8c57606060405190810160405280602c81526020017f5265636569766572206973206e6f7420616c6c6f77656420746f20726563656981526020017f76652074686520746f6b656e00000000000000000000000000000000000000008152509050610f38565b600260ff168260ff161415610eff57606060405190810160405280602381526020017f546f6b656e2063616e206e6f74207472616465207061727469616c20616d6f7581526020017f6e747300000000000000000000000000000000000000000000000000000000008152509050610f38565b6040805190810160405280600781526020017f537563636573730000000000000000000000000000000000000000000000000081525090505b919050565b6000809054906101000a900473ffffffffffffffffffffffffffffffffffffffff1673ffffffffffffffffffffffffffffffffffffffff163373ffffffffffffffffffffffffffffffffffffffff16141515610f9857600080fd5b610fa181611078565b50565b600160009054906101000a900473ffffffffffffffffffffffffffffffffffffffff1681565b60008173ffffffffffffffffffffffffffffffffffffffff1663313ce5676040518163ffffffff167c0100000000000000000000000000000000000000000000000000000000028152600401602060405180830381600087803b15801561103057600080fd5b505af1158015611044573d6000803e3d6000fd5b505050506040513d602081101561105a57600080fd5b810190808051906020019092919050505060ff16600a0a9050919050565b600073ffffffffffffffffffffffffffffffffffffffff168173ffffffffffffffffffffffffffffffffffffffff16141515156110b457600080fd5b8073ffffffffffffffffffffffffffffffffffffffff166000809054906101000a900473ffffffffffffffffffffffffffffffffffffffff1673ffffffffffffffffffffffffffffffffffffffff167f8be0079c531659141344cd1fd0a4f28419497f9722a3daafe3b4186f6b6457e060405160405180910390a3806000806101000a81548173ffffffffffffffffffffffffffffffffffffffff021916908373ffffffffffffffffffffffffffffffffffffffff160217905550505600a165627a7a723058202843a86cf4db8c4d8a86e77212d6353b7223de05355777410ef6db0f5d6a3cc40029",
  "source": "pragma solidity ^0.4.18;\n\nimport 'zeppelin-solidity/contracts/ownership/Ownable.sol';\nimport 'zeppelin-solidity/contracts/token/ERC20/DetailedERC20.sol';\nimport '../../../token/R-Token/RegulatedToken.sol';\nimport '../../../token/R-Token/RegulatorService.sol';\n\n/**\n * @title  On-chain RegulatorService implementation for approving trades\n * @author Originally Bob Remeika, modified by TokenSoft Inc\n * @dev Orignal source: https://github.com/harborhq/r-token/blob/master/contracts/TokenRegulatorService.sol\n */\ncontract RegulatorServiceExample is RegulatorService, Ownable {\n  /**\n   * @dev Throws if called by any account other than the admin\n   */\n  modifier onlyAdmins() {\n    require(msg.sender == admin || msg.sender == owner);\n    _;\n  }\n\n  /// @dev Settings that affect token trading at a global level\n  struct Settings {\n\n    /**\n     * @dev Toggle for locking/unlocking trades at a token level.\n     *      The default behavior of the zero memory state for locking will be unlocked.\n     */\n    bool locked;\n\n    /**\n     * @dev Toggle for allowing/disallowing fractional token trades at a token level.\n     *      The default state when this contract is created `false` (or no partial\n     *      transfers allowed).\n     */\n    bool partialTransfers;\n  }\n\n  // @dev Check success code & message\n  uint8 constant private CHECK_SUCCESS = 0;\n  string constant private SUCCESS_MESSAGE = 'Success';\n\n  // @dev Check error reason: Token is locked\n  uint8 constant private CHECK_ELOCKED = 1;\n  string constant private ELOCKED_MESSAGE = 'Token is locked';\n\n  // @dev Check error reason: Token can not trade partial amounts\n  uint8 constant private CHECK_EDIVIS = 2;\n  string constant private EDIVIS_MESSAGE = 'Token can not trade partial amounts';\n\n  // @dev Check error reason: Sender is not allowed to send the token\n  uint8 constant private CHECK_ESEND = 3;\n  string constant private ESEND_MESSAGE = 'Sender is not allowed to send the token';\n\n  // @dev Check error reason: Receiver is not allowed to receive the token\n  uint8 constant private CHECK_ERECV = 4;\n  string constant private ERECV_MESSAGE = 'Receiver is not allowed to receive the token';\n\n  /// @dev Permission bits for allowing a participant to send tokens\n  uint8 constant private PERM_SEND = 0x1;\n\n  /// @dev Permission bits for allowing a participant to receive tokens\n  uint8 constant private PERM_RECEIVE = 0x2;\n\n  // @dev Address of the administrator\n  address public admin;\n\n  /// @notice Permissions that allow/disallow token trades on a per token level\n  mapping(address => Settings) private settings;\n\n  /// @dev Permissions that allow/disallow token trades on a per participant basis.\n  ///      The format for key based access is `participants[tokenAddress][participantAddress]`\n  ///      which returns the permission bits of a participant for a particular token.\n  mapping(address => mapping(address => uint8)) private participants;\n\n  /// @dev Event raised when a token's locked setting is set\n  event LogLockSet(address indexed token, bool locked);\n\n  /// @dev Event raised when a token's partial transfer setting is set\n  event LogPartialTransferSet(address indexed token, bool enabled);\n\n  /// @dev Event raised when a participant permissions are set for a token\n  event LogPermissionSet(address indexed token, address indexed participant, uint8 permission);\n\n  /// @dev Event raised when the admin address changes\n  event LogTransferAdmin(address indexed oldAdmin, address indexed newAdmin);\n\n  function TokenRegulatorService() public {\n    admin = msg.sender;\n  }\n\n  /**\n   * @notice Locks the ability to trade a token\n   *\n   * @dev    This method can only be called by this contract's owner\n   *\n   * @param  _token The address of the token to lock\n   */\n  function setLocked(address _token, bool _locked) onlyOwner public {\n    settings[_token].locked = _locked;\n\n    LogLockSet(_token, _locked);\n  }\n\n  /**\n   * @notice Allows the ability to trade a fraction of a token\n   *\n   * @dev    This method can only be called by this contract's owner\n   *\n   * @param  _token The address of the token to allow partial transfers\n   */\n  function setPartialTransfers(address _token, bool _enabled) onlyOwner public {\n   settings[_token].partialTransfers = _enabled;\n\n   LogPartialTransferSet(_token, _enabled);\n  }\n\n  /**\n   * @notice Sets the trade permissions for a participant on a token\n   *\n   * @dev    The `_permission` bits overwrite the previous trade permissions and can\n   *         only be called by the contract's owner.  `_permissions` can be bitwise\n   *         `|`'d together to allow for more than one permission bit to be set.\n   *\n   * @param  _token The address of the token\n   * @param  _participant The address of the trade participant\n   * @param  _permission Permission bits to be set\n   */\n  function setPermission(address _token, address _participant, uint8 _permission) onlyAdmins public {\n    participants[_token][_participant] = _permission;\n\n    LogPermissionSet(_token, _participant, _permission);\n  }\n\n  /**\n   * @dev Allows the owner to transfer admin controls to newAdmin.\n   *\n   * @param newAdmin The address to transfer admin rights to.\n   */\n  function transferAdmin(address newAdmin) onlyOwner public {\n    require(newAdmin != address(0));\n\n    address oldAdmin = admin;\n    admin = newAdmin;\n\n    LogTransferAdmin(oldAdmin, newAdmin);\n  }\n\n  /**\n   * @notice Checks whether or not a trade should be approved\n   *\n   * @dev    This method calls back to the token contract specified by `_token` for\n   *         information needed to enforce trade approval if needed\n   *\n   * @param  _token The address of the token to be transfered\n   * @param  _spender The address of the spender of the token (unused in this implementation)\n   * @param  _from The address of the sender account\n   * @param  _to The address of the receiver account\n   * @param  _amount The quantity of the token to trade\n   *\n   * @return `true` if the trade should be approved and `false` if the trade should not be approved\n   */\n  function check(address _token, address _spender, address _from, address _to, uint256 _amount) public returns (uint8) {\n    if (settings[_token].locked) {\n      return CHECK_ELOCKED;\n    }\n\n    if (participants[_token][_from] & PERM_SEND == 0) {\n      return CHECK_ESEND;\n    }\n\n    if (participants[_token][_to] & PERM_RECEIVE == 0) {\n      return CHECK_ERECV;\n    }\n\n    if (!settings[_token].partialTransfers && _amount % _wholeToken(_token) != 0) {\n      return CHECK_EDIVIS;\n    }\n\n    return CHECK_SUCCESS;\n  }\n\n  /**\n   * @notice Returns the error message for a passed failed check reason\n   *\n   * @param  _reason The reason code: 0 means success.  Non-zero values are left to the implementation\n   *                 to assign meaning.\n   *\n   * @return The human-readable mesage string\n   */\n  function messageForReason (uint8 _reason) public view returns (string) {\n    if (_reason == CHECK_ELOCKED) {\n      return ELOCKED_MESSAGE;\n    }\n    \n    if (_reason == CHECK_ESEND) {\n      return ESEND_MESSAGE;\n    }\n\n    if (_reason == CHECK_ERECV) {\n      return ERECV_MESSAGE;\n    }\n\n    if (_reason == CHECK_EDIVIS) {\n      return EDIVIS_MESSAGE;\n    }\n\n    return SUCCESS_MESSAGE;\n  }\n\n  /**\n   * @notice Retrieves the whole token value from a token that this `RegulatorService` manages\n   *\n   * @param  _token The token address of the managed token\n   *\n   * @return The uint256 value that represents a single whole token\n   */\n  function _wholeToken(address _token) view private returns (uint256) {\n    return uint256(10)**DetailedERC20(_token).decimals();\n  }\n}",
  "sourcePath": "/Users/dameongreen/Documents/erc-1440-2/Security-Tokens-and-Stablecoins-Quick-Start-Guide/Chapter06/simple-restricted-token/contracts/examples/other-standards/R-Token/RegulatorServiceExample.sol",
  "compiler": {
    "name": "solc",
    "version": "0.4.24+commit.e67f0147.Emscripten.clang"
  },
  "schemaVersion": "3.0.16",
  "updatedAt": "2020-04-12T15:16:49.561Z",
  "devdoc": {
    "author": "Originally Bob Remeika, modified by TokenSoft Inc",
    "methods": {
      "check(address,address,address,address,uint256)": {
        "details": "This method calls back to the token contract specified by `_token` for        information needed to enforce trade approval if needed",
        "params": {
          "_amount": "The quantity of the token to trade",
          "_from": "The address of the sender account",
          "_spender": "The address of the spender of the token (unused in this implementation)",
          "_to": "The address of the receiver account",
          "_token": "The address of the token to be transfered"
        },
        "return": "`true` if the trade should be approved and `false` if the trade should not be approved"
      },
      "messageForReason(uint8)": {
        "params": {
          "_reason": "The reason code: 0 means success.  Non-zero values are left to the implementation                to assign meaning."
        },
        "return": "The human-readable mesage string"
      },
      "renounceOwnership()": {
        "details": "Allows the current owner to relinquish control of the contract."
      },
      "setLocked(address,bool)": {
        "details": "This method can only be called by this contract's owner",
        "params": {
          "_token": "The address of the token to lock"
        }
      },
      "setPartialTransfers(address,bool)": {
        "details": "This method can only be called by this contract's owner",
        "params": {
          "_token": "The address of the token to allow partial transfers"
        }
      },
      "setPermission(address,address,uint8)": {
        "details": "The `_permission` bits overwrite the previous trade permissions and can        only be called by the contract's owner.  `_permissions` can be bitwise        `|`'d together to allow for more than one permission bit to be set.",
        "params": {
          "_participant": "The address of the trade participant",
          "_permission": "Permission bits to be set",
          "_token": "The address of the token"
        }
      },
      "transferAdmin(address)": {
        "details": "Allows the owner to transfer admin controls to newAdmin.",
        "params": {
          "newAdmin": "The address to transfer admin rights to."
        }
      },
      "transferOwnership(address)": {
        "details": "Allows the current owner to transfer control of the contract to a newOwner.",
        "params": {
          "_newOwner": "The address to transfer ownership to."
        }
      }
    },
    "title": "On-chain RegulatorService implementation for approving trades"
  },
  "userdoc": {
    "methods": {
      "check(address,address,address,address,uint256)": {
        "notice": "Checks whether or not a trade should be approved"
      },
      "messageForReason(uint8)": {
        "notice": "Returns the error message for a passed failed check reason"
      },
      "renounceOwnership()": {
        "notice": "Renouncing to ownership will leave the contract without an owner. It will not be possible to call the functions with the `onlyOwner` modifier anymore."
      },
      "setLocked(address,bool)": {
        "notice": "Locks the ability to trade a token"
      },
      "setPartialTransfers(address,bool)": {
        "notice": "Allows the ability to trade a fraction of a token"
      },
      "setPermission(address,address,uint8)": {
        "notice": "Sets the trade permissions for a participant on a token"
      }
    }
  }
}